{
	"Solidity/Faucet3.sol": {
		"Faucet": {
			"abi": [
				{
					"inputs": [],
					"stateMutability": "nonpayable",
					"type": "constructor"
				},
				{
					"inputs": [],
					"name": "destroy",
					"outputs": [],
					"stateMutability": "nonpayable",
					"type": "function"
				},
				{
					"inputs": [
						{
							"internalType": "uint256",
							"name": "withdraw_amount",
							"type": "uint256"
						}
					],
					"name": "withdraw",
					"outputs": [],
					"stateMutability": "nonpayable",
					"type": "function"
				},
				{
					"stateMutability": "payable",
					"type": "receive"
				}
			],
			"devdoc": {
				"kind": "dev",
				"methods": {},
				"version": 1
			},
			"evm": {
				"assembly": "    /* \"Solidity/Faucet3.sol\":154:860  contract Faucet {... */\n  mstore(0x40, 0x80)\n    /* \"Solidity/Faucet3.sol\":227:267  constructor() {... */\n  callvalue\n  dup1\n  iszero\n  tag_1\n  jumpi\n  revert(0x00, 0x00)\ntag_1:\n  pop\n    /* \"Solidity/Faucet3.sol\":245:250  owner */\n  0x00\n    /* \"Solidity/Faucet3.sol\":245:263  owner = msg.sender */\n  dup1\n  sload\n  not(sub(shl(0xa0, 0x01), 0x01))\n  and\n    /* \"Solidity/Faucet3.sol\":253:263  msg.sender */\n  caller\n    /* \"Solidity/Faucet3.sol\":245:263  owner = msg.sender */\n  or\n  swap1\n  sstore\n    /* \"Solidity/Faucet3.sol\":154:860  contract Faucet {... */\n  dataSize(sub_0)\n  dup1\n  dataOffset(sub_0)\n  0x00\n  codecopy\n  0x00\n  return\nstop\n\nsub_0: assembly {\n        /* \"Solidity/Faucet3.sol\":154:860  contract Faucet {... */\n      mstore(0x40, 0x80)\n      jumpi(tag_1, lt(calldatasize, 0x04))\n      shr(0xe0, calldataload(0x00))\n      dup1\n      0x2e1a7d4d\n      eq\n      tag_3\n      jumpi\n      dup1\n      0x83197ef0\n      eq\n      tag_4\n      jumpi\n      revert(0x00, 0x00)\n    tag_1:\n      jumpi(tag_2, calldatasize)\n      stop\n    tag_2:\n      revert(0x00, 0x00)\n        /* \"Solidity/Faucet3.sol\":541:788  function withdraw(uint withdraw_amount) public {... */\n    tag_3:\n      callvalue\n      dup1\n      iszero\n      tag_7\n      jumpi\n      revert(0x00, 0x00)\n    tag_7:\n      pop\n      tag_8\n      tag_9\n      calldatasize\n      0x04\n      tag_10\n      jump\t// in\n    tag_9:\n      tag_11\n      jump\t// in\n    tag_8:\n      stop\n        /* \"Solidity/Faucet3.sol\":294:494  function destroy() public {... */\n    tag_4:\n      callvalue\n      dup1\n      iszero\n      tag_12\n      jumpi\n      revert(0x00, 0x00)\n    tag_12:\n      pop\n      tag_8\n      tag_14\n      jump\t// in\n        /* \"Solidity/Faucet3.sol\":541:788  function withdraw(uint withdraw_amount) public {... */\n    tag_11:\n        /* \"Solidity/Faucet3.sol\":655:664  0.1 ether */\n      0x016345785d8a0000\n        /* \"Solidity/Faucet3.sol\":636:651  withdraw_amount */\n      dup2\n        /* \"Solidity/Faucet3.sol\":636:664  withdraw_amount <= 0.1 ether */\n      gt\n      iszero\n        /* \"Solidity/Faucet3.sol\":628:665  require(withdraw_amount <= 0.1 ether) */\n      tag_16\n      jumpi\n      revert(0x00, 0x00)\n    tag_16:\n        /* \"Solidity/Faucet3.sol\":736:781  payable(msg.sender).transfer(withdraw_amount) */\n      mload(0x40)\n        /* \"Solidity/Faucet3.sol\":744:754  msg.sender */\n      caller\n      swap1\n        /* \"Solidity/Faucet3.sol\":736:781  payable(msg.sender).transfer(withdraw_amount) */\n      dup3\n      iszero\n      0x08fc\n      mul\n      swap1\n        /* \"Solidity/Faucet3.sol\":765:780  withdraw_amount */\n      dup4\n      swap1\n        /* \"Solidity/Faucet3.sol\":736:781  payable(msg.sender).transfer(withdraw_amount) */\n      0x00\n      dup2\n      dup2\n      dup2\n        /* \"Solidity/Faucet3.sol\":765:780  withdraw_amount */\n      dup6\n        /* \"Solidity/Faucet3.sol\":744:754  msg.sender */\n      dup9\n        /* \"Solidity/Faucet3.sol\":736:781  payable(msg.sender).transfer(withdraw_amount) */\n      dup9\n      call\n      swap4\n      pop\n      pop\n      pop\n      pop\n      iszero\n      dup1\n      iszero\n      tag_18\n      jumpi\n      returndatacopy(0x00, 0x00, returndatasize)\n      revert(0x00, returndatasize)\n    tag_18:\n      pop\n        /* \"Solidity/Faucet3.sol\":541:788  function withdraw(uint withdraw_amount) public {... */\n      pop\n      jump\t// out\n        /* \"Solidity/Faucet3.sol\":294:494  function destroy() public {... */\n    tag_14:\n        /* \"Solidity/Faucet3.sol\":346:351  owner */\n      and(sub(shl(0xa0, 0x01), 0x01), sload(0x00))\n        /* \"Solidity/Faucet3.sol\":332:342  msg.sender */\n      caller\n        /* \"Solidity/Faucet3.sol\":332:351  msg.sender == owner */\n      eq\n        /* \"Solidity/Faucet3.sol\":324:352  require(msg.sender == owner) */\n      tag_20\n      jumpi\n      revert(0x00, 0x00)\n    tag_20:\n        /* \"Solidity/Faucet3.sol\":374:395  address(this).balance */\n      selfbalance\n        /* \"Solidity/Faucet3.sol\":402:413  balance > 0 */\n      dup1\n      iszero\n        /* \"Solidity/Faucet3.sol\":399:457  if(balance > 0) {... */\n      tag_21\n      jumpi\n        /* \"Solidity/Faucet3.sol\":428:433  owner */\n      0x00\n      dup1\n      sload\n        /* \"Solidity/Faucet3.sol\":420:452  payable(owner).transfer(balance) */\n      mload(0x40)\n      sub(shl(0xa0, 0x01), 0x01)\n        /* \"Solidity/Faucet3.sol\":428:433  owner */\n      swap1\n      swap2\n      and\n      swap2\n        /* \"Solidity/Faucet3.sol\":420:452  payable(owner).transfer(balance) */\n      dup4\n      iszero\n      0x08fc\n      mul\n      swap2\n        /* \"Solidity/Faucet3.sol\":444:451  balance */\n      dup5\n      swap2\n        /* \"Solidity/Faucet3.sol\":420:452  payable(owner).transfer(balance) */\n      dup2\n        /* \"Solidity/Faucet3.sol\":428:433  owner */\n      dup2\n        /* \"Solidity/Faucet3.sol\":420:452  payable(owner).transfer(balance) */\n      dup2\n        /* \"Solidity/Faucet3.sol\":444:451  balance */\n      dup6\n        /* \"Solidity/Faucet3.sol\":428:433  owner */\n      dup9\n        /* \"Solidity/Faucet3.sol\":420:452  payable(owner).transfer(balance) */\n      dup9\n      call\n      swap4\n      pop\n      pop\n      pop\n      pop\n      iszero\n      dup1\n      iszero\n      tag_18\n      jumpi\n      returndatacopy(0x00, 0x00, returndatasize)\n      revert(0x00, returndatasize)\n        /* \"Solidity/Faucet3.sol\":399:457  if(balance > 0) {... */\n    tag_21:\n        /* \"Solidity/Faucet3.sol\":320:494  {... */\n      pop\n        /* \"Solidity/Faucet3.sol\":294:494  function destroy() public {... */\n      jump\t// out\n        /* \"#utility.yul\":14:194   */\n    tag_10:\n        /* \"#utility.yul\":73:79   */\n      0x00\n        /* \"#utility.yul\":126:128   */\n      0x20\n        /* \"#utility.yul\":114:123   */\n      dup3\n        /* \"#utility.yul\":105:112   */\n      dup5\n        /* \"#utility.yul\":101:124   */\n      sub\n        /* \"#utility.yul\":97:129   */\n      slt\n        /* \"#utility.yul\":94:146   */\n      iszero\n      tag_26\n      jumpi\n        /* \"#utility.yul\":142:143   */\n      0x00\n        /* \"#utility.yul\":139:140   */\n      0x00\n        /* \"#utility.yul\":132:144   */\n      revert\n        /* \"#utility.yul\":94:146   */\n    tag_26:\n      pop\n        /* \"#utility.yul\":165:188   */\n      calldataload\n      swap2\n        /* \"#utility.yul\":14:194   */\n      swap1\n      pop\n      jump\t// out\n\n    auxdata: 0xa26469706673582212209b8a7f2e72c629607b843a8170139d71e2516cd786a648eb130340b13831fd4764736f6c634300081e0033\n}\n",
				"bytecode": {
					"linkReferences": {},
					"object": "6080604052348015600e575f5ffd5b505f80546001600160a01b0319163317905561014f8061002d5f395ff3fe60806040526004361061002b575f3560e01c80632e1a7d4d1461003657806383197ef014610057575f5ffd5b3661003257005b5f5ffd5b348015610041575f5ffd5b50610055610050366004610102565b61006b565b005b348015610062575f5ffd5b506100556100ad565b67016345785d8a000081111561007f575f5ffd5b604051339082156108fc029083905f818181858888f193505050501580156100a9573d5f5f3e3d5ffd5b5050565b5f546001600160a01b031633146100c2575f5ffd5b4780156100ff575f80546040516001600160a01b039091169183156108fc02918491818181858888f193505050501580156100a9573d5f5f3e3d5ffd5b50565b5f60208284031215610112575f5ffd5b503591905056fea26469706673582212209b8a7f2e72c629607b843a8170139d71e2516cd786a648eb130340b13831fd4764736f6c634300081e0033",
					"opcodes": "PUSH1 0x80 PUSH1 0x40 MSTORE CALLVALUE DUP1 ISZERO PUSH1 0xE JUMPI PUSH0 PUSH0 REVERT JUMPDEST POP PUSH0 DUP1 SLOAD PUSH1 0x1 PUSH1 0x1 PUSH1 0xA0 SHL SUB NOT AND CALLER OR SWAP1 SSTORE PUSH2 0x14F DUP1 PUSH2 0x2D PUSH0 CODECOPY PUSH0 RETURN INVALID PUSH1 0x80 PUSH1 0x40 MSTORE PUSH1 0x4 CALLDATASIZE LT PUSH2 0x2B JUMPI PUSH0 CALLDATALOAD PUSH1 0xE0 SHR DUP1 PUSH4 0x2E1A7D4D EQ PUSH2 0x36 JUMPI DUP1 PUSH4 0x83197EF0 EQ PUSH2 0x57 JUMPI PUSH0 PUSH0 REVERT JUMPDEST CALLDATASIZE PUSH2 0x32 JUMPI STOP JUMPDEST PUSH0 PUSH0 REVERT JUMPDEST CALLVALUE DUP1 ISZERO PUSH2 0x41 JUMPI PUSH0 PUSH0 REVERT JUMPDEST POP PUSH2 0x55 PUSH2 0x50 CALLDATASIZE PUSH1 0x4 PUSH2 0x102 JUMP JUMPDEST PUSH2 0x6B JUMP JUMPDEST STOP JUMPDEST CALLVALUE DUP1 ISZERO PUSH2 0x62 JUMPI PUSH0 PUSH0 REVERT JUMPDEST POP PUSH2 0x55 PUSH2 0xAD JUMP JUMPDEST PUSH8 0x16345785D8A0000 DUP2 GT ISZERO PUSH2 0x7F JUMPI PUSH0 PUSH0 REVERT JUMPDEST PUSH1 0x40 MLOAD CALLER SWAP1 DUP3 ISZERO PUSH2 0x8FC MUL SWAP1 DUP4 SWAP1 PUSH0 DUP2 DUP2 DUP2 DUP6 DUP9 DUP9 CALL SWAP4 POP POP POP POP ISZERO DUP1 ISZERO PUSH2 0xA9 JUMPI RETURNDATASIZE PUSH0 PUSH0 RETURNDATACOPY RETURNDATASIZE PUSH0 REVERT JUMPDEST POP POP JUMP JUMPDEST PUSH0 SLOAD PUSH1 0x1 PUSH1 0x1 PUSH1 0xA0 SHL SUB AND CALLER EQ PUSH2 0xC2 JUMPI PUSH0 PUSH0 REVERT JUMPDEST SELFBALANCE DUP1 ISZERO PUSH2 0xFF JUMPI PUSH0 DUP1 SLOAD PUSH1 0x40 MLOAD PUSH1 0x1 PUSH1 0x1 PUSH1 0xA0 SHL SUB SWAP1 SWAP2 AND SWAP2 DUP4 ISZERO PUSH2 0x8FC MUL SWAP2 DUP5 SWAP2 DUP2 DUP2 DUP2 DUP6 DUP9 DUP9 CALL SWAP4 POP POP POP POP ISZERO DUP1 ISZERO PUSH2 0xA9 JUMPI RETURNDATASIZE PUSH0 PUSH0 RETURNDATACOPY RETURNDATASIZE PUSH0 REVERT JUMPDEST POP JUMP JUMPDEST PUSH0 PUSH1 0x20 DUP3 DUP5 SUB SLT ISZERO PUSH2 0x112 JUMPI PUSH0 PUSH0 REVERT JUMPDEST POP CALLDATALOAD SWAP2 SWAP1 POP JUMP INVALID LOG2 PUSH5 0x6970667358 0x22 SLT KECCAK256 SWAP12 DUP11 PUSH32 0x2E72C629607B843A8170139D71E2516CD786A648EB130340B13831FD4764736F PUSH13 0x634300081E0033000000000000 "
				},
				"gasEstimates": {
					"creation": {
						"codeDepositCost": "67000",
						"executionCost": "24349",
						"totalCost": "91349"
					},
					"external": {
						"destroy()": "infinite",
						"withdraw(uint256)": "infinite"
					}
				},
				"methodIdentifiers": {
					"destroy()": "83197ef0",
					"withdraw(uint256)": "2e1a7d4d"
				}
			},
			"storageLayout": {
				"storage": [
					{
						"astId": 3,
						"contract": "Solidity/Faucet3.sol:Faucet",
						"label": "owner",
						"offset": 0,
						"slot": "0",
						"type": "t_address"
					}
				],
				"types": {
					"t_address": {
						"encoding": "inplace",
						"label": "address",
						"numberOfBytes": "20"
					}
				}
			},
			"userdoc": {
				"kind": "user",
				"methods": {},
				"version": 1
			}
		}
	}
}