{
	"Solidity/SimpleStore.sol": {
		"simpleStore": {
			"abi": [
				{
					"inputs": [
						{
							"internalType": "string",
							"name": "_name",
							"type": "string"
						},
						{
							"internalType": "uint256",
							"name": "_favoriteNumber",
							"type": "uint256"
						}
					],
					"name": "addperson",
					"outputs": [],
					"stateMutability": "nonpayable",
					"type": "function"
				},
				{
					"inputs": [
						{
							"internalType": "uint256",
							"name": "",
							"type": "uint256"
						}
					],
					"name": "listOfPeople",
					"outputs": [
						{
							"internalType": "string",
							"name": "name",
							"type": "string"
						},
						{
							"internalType": "uint256",
							"name": "favoriteNumber",
							"type": "uint256"
						}
					],
					"stateMutability": "view",
					"type": "function"
				},
				{
					"inputs": [
						{
							"internalType": "string",
							"name": "",
							"type": "string"
						}
					],
					"name": "nameToFavoriteNumber",
					"outputs": [
						{
							"internalType": "uint256",
							"name": "",
							"type": "uint256"
						}
					],
					"stateMutability": "view",
					"type": "function"
				},
				{
					"inputs": [],
					"name": "owner",
					"outputs": [
						{
							"internalType": "address",
							"name": "",
							"type": "address"
						}
					],
					"stateMutability": "view",
					"type": "function"
				},
				{
					"inputs": [],
					"name": "retrieve",
					"outputs": [
						{
							"internalType": "uint256",
							"name": "",
							"type": "uint256"
						}
					],
					"stateMutability": "view",
					"type": "function"
				},
				{
					"inputs": [
						{
							"internalType": "uint256",
							"name": "_favoriteNumber",
							"type": "uint256"
						}
					],
					"name": "store",
					"outputs": [],
					"stateMutability": "nonpayable",
					"type": "function"
				}
			],
			"devdoc": {
				"kind": "dev",
				"methods": {},
				"version": 1
			},
			"evm": {
				"assembly": "    /* \"Solidity/SimpleStore.sol\":58:738  contract simpleStore{... */\n  mstore(0x40, 0x80)\n  callvalue\n  dup1\n  iszero\n  tag_1\n  jumpi\n  revert(0x00, 0x00)\ntag_1:\n  pop\n  dataSize(sub_0)\n  dup1\n  dataOffset(sub_0)\n  0x00\n  codecopy\n  0x00\n  return\nstop\n\nsub_0: assembly {\n        /* \"Solidity/SimpleStore.sol\":58:738  contract simpleStore{... */\n      mstore(0x40, 0x80)\n      callvalue\n      dup1\n      iszero\n      tag_1\n      jumpi\n      revert(0x00, 0x00)\n    tag_1:\n      pop\n      jumpi(tag_2, lt(calldatasize, 0x04))\n      shr(0xe0, calldataload(0x00))\n      dup1\n      0x2e64cec1\n      eq\n      tag_3\n      jumpi\n      dup1\n      0x2ebce631\n      eq\n      tag_4\n      jumpi\n      dup1\n      0x6057361d\n      eq\n      tag_5\n      jumpi\n      dup1\n      0x8bab8dd5\n      eq\n      tag_6\n      jumpi\n      dup1\n      0x8da5cb5b\n      eq\n      tag_7\n      jumpi\n      dup1\n      0xe1b3202a\n      eq\n      tag_8\n      jumpi\n    tag_2:\n      revert(0x00, 0x00)\n        /* \"Solidity/SimpleStore.sol\":448:537  function retrieve() public view returns (uint256){... */\n    tag_3:\n      tag_9\n      tag_10\n      jump\t// in\n    tag_9:\n      mload(0x40)\n      tag_11\n      swap2\n      swap1\n      tag_12\n      jump\t// in\n    tag_11:\n      mload(0x40)\n      dup1\n      swap2\n      sub\n      swap1\n      return\n        /* \"Solidity/SimpleStore.sol\":143:171  People[] public listOfPeople */\n    tag_4:\n      tag_13\n      0x04\n      dup1\n      calldatasize\n      sub\n      dup2\n      add\n      swap1\n      tag_14\n      swap2\n      swap1\n      tag_15\n      jump\t// in\n    tag_14:\n      tag_16\n      jump\t// in\n    tag_13:\n      mload(0x40)\n      tag_17\n      swap3\n      swap2\n      swap1\n      tag_18\n      jump\t// in\n    tag_17:\n      mload(0x40)\n      dup1\n      swap2\n      sub\n      swap1\n      return\n        /* \"Solidity/SimpleStore.sol\":317:442  function store(uint256 _favoriteNumber) public{... */\n    tag_5:\n      tag_19\n      0x04\n      dup1\n      calldatasize\n      sub\n      dup2\n      add\n      swap1\n      tag_20\n      swap2\n      swap1\n      tag_15\n      jump\t// in\n    tag_20:\n      tag_21\n      jump\t// in\n    tag_19:\n      stop\n        /* \"Solidity/SimpleStore.sol\":178:230  mapping(string=>uint256) public nameToFavoriteNumber */\n    tag_6:\n      tag_22\n      0x04\n      dup1\n      calldatasize\n      sub\n      dup2\n      add\n      swap1\n      tag_23\n      swap2\n      swap1\n      tag_24\n      jump\t// in\n    tag_23:\n      tag_25\n      jump\t// in\n    tag_22:\n      mload(0x40)\n      tag_26\n      swap2\n      swap1\n      tag_12\n      jump\t// in\n    tag_26:\n      mload(0x40)\n      dup1\n      swap2\n      sub\n      swap1\n      return\n        /* \"Solidity/SimpleStore.sol\":116:136  address public owner */\n    tag_7:\n      tag_27\n      tag_28\n      jump\t// in\n    tag_27:\n      mload(0x40)\n      tag_29\n      swap2\n      swap1\n      tag_30\n      jump\t// in\n    tag_29:\n      mload(0x40)\n      dup1\n      swap2\n      sub\n      swap1\n      return\n        /* \"Solidity/SimpleStore.sol\":543:733  function addperson(string memory _name,uint256 _favoriteNumber) public{... */\n    tag_8:\n      tag_31\n      0x04\n      dup1\n      calldatasize\n      sub\n      dup2\n      add\n      swap1\n      tag_32\n      swap2\n      swap1\n      tag_33\n      jump\t// in\n    tag_32:\n      tag_34\n      jump\t// in\n    tag_31:\n      stop\n        /* \"Solidity/SimpleStore.sol\":448:537  function retrieve() public view returns (uint256){... */\n    tag_10:\n        /* \"Solidity/SimpleStore.sol\":489:496  uint256 */\n      0x00\n        /* \"Solidity/SimpleStore.sol\":514:530  MyFavoriteNumber */\n      sload(0x00)\n        /* \"Solidity/SimpleStore.sol\":507:530  return MyFavoriteNumber */\n      swap1\n      pop\n        /* \"Solidity/SimpleStore.sol\":448:537  function retrieve() public view returns (uint256){... */\n      swap1\n      jump\t// out\n        /* \"Solidity/SimpleStore.sol\":143:171  People[] public listOfPeople */\n    tag_16:\n      0x02\n      dup2\n      dup2\n      sload\n      dup2\n      lt\n      tag_36\n      jumpi\n      0x00\n      dup1\n      revert\n    tag_36:\n      swap1\n      0x00\n      mstore\n      keccak256(0x00, 0x20)\n      swap1\n      0x02\n      mul\n      add\n      0x00\n      swap2\n      pop\n      swap1\n      pop\n      dup1\n      0x00\n      add\n      dup1\n      sload\n      tag_38\n      swap1\n      tag_39\n      jump\t// in\n    tag_38:\n      dup1\n      0x1f\n      add\n      0x20\n      dup1\n      swap2\n      div\n      mul\n      0x20\n      add\n      mload(0x40)\n      swap1\n      dup2\n      add\n      0x40\n      mstore\n      dup1\n      swap3\n      swap2\n      swap1\n      dup2\n      dup2\n      mstore\n      0x20\n      add\n      dup3\n      dup1\n      sload\n      tag_40\n      swap1\n      tag_39\n      jump\t// in\n    tag_40:\n      dup1\n      iszero\n      tag_41\n      jumpi\n      dup1\n      0x1f\n      lt\n      tag_42\n      jumpi\n      0x0100\n      dup1\n      dup4\n      sload\n      div\n      mul\n      dup4\n      mstore\n      swap2\n      0x20\n      add\n      swap2\n      jump(tag_41)\n    tag_42:\n      dup3\n      add\n      swap2\n      swap1\n      0x00\n      mstore\n      keccak256(0x00, 0x20)\n      swap1\n    tag_43:\n      dup2\n      sload\n      dup2\n      mstore\n      swap1\n      0x01\n      add\n      swap1\n      0x20\n      add\n      dup1\n      dup4\n      gt\n      tag_43\n      jumpi\n      dup3\n      swap1\n      sub\n      0x1f\n      and\n      dup3\n      add\n      swap2\n    tag_41:\n      pop\n      pop\n      pop\n      pop\n      pop\n      swap1\n      dup1\n      0x01\n      add\n      sload\n      swap1\n      pop\n      dup3\n      jump\t// out\n        /* \"Solidity/SimpleStore.sol\":317:442  function store(uint256 _favoriteNumber) public{... */\n    tag_21:\n        /* \"Solidity/SimpleStore.sol\":392:407  _favoriteNumber */\n      dup1\n        /* \"Solidity/SimpleStore.sol\":373:389  MyFavoriteNumber */\n      0x00\n        /* \"Solidity/SimpleStore.sol\":373:407  MyFavoriteNumber = _favoriteNumber */\n      dup2\n      swap1\n      sstore\n      pop\n        /* \"Solidity/SimpleStore.sol\":425:435  msg.sender */\n      caller\n        /* \"Solidity/SimpleStore.sol\":417:422  owner */\n      0x01\n      0x00\n        /* \"Solidity/SimpleStore.sol\":417:435  owner = msg.sender */\n      0x0100\n      exp\n      dup2\n      sload\n      dup2\n      0xffffffffffffffffffffffffffffffffffffffff\n      mul\n      not\n      and\n      swap1\n      dup4\n      0xffffffffffffffffffffffffffffffffffffffff\n      and\n      mul\n      or\n      swap1\n      sstore\n      pop\n        /* \"Solidity/SimpleStore.sol\":317:442  function store(uint256 _favoriteNumber) public{... */\n      pop\n      jump\t// out\n        /* \"Solidity/SimpleStore.sol\":178:230  mapping(string=>uint256) public nameToFavoriteNumber */\n    tag_25:\n      0x03\n      dup2\n      dup1\n      mload\n      0x20\n      dup2\n      add\n      dup3\n      add\n      dup1\n      mload\n      dup5\n      dup3\n      mstore\n      0x20\n      dup4\n      add\n      0x20\n      dup6\n      add\n      keccak256\n      dup2\n      dup4\n      mstore\n      dup1\n      swap6\n      pop\n      pop\n      pop\n      pop\n      pop\n      pop\n      0x00\n      swap2\n      pop\n      swap1\n      pop\n      sload\n      dup2\n      jump\t// out\n        /* \"Solidity/SimpleStore.sol\":116:136  address public owner */\n    tag_28:\n      0x01\n      0x00\n      swap1\n      sload\n      swap1\n      0x0100\n      exp\n      swap1\n      div\n      0xffffffffffffffffffffffffffffffffffffffff\n      and\n      dup2\n      jump\t// out\n        /* \"Solidity/SimpleStore.sol\":543:733  function addperson(string memory _name,uint256 _favoriteNumber) public{... */\n    tag_34:\n        /* \"Solidity/SimpleStore.sol\":623:635  listOfPeople */\n      0x02\n        /* \"Solidity/SimpleStore.sol\":641:670  People(_name,_favoriteNumber) */\n      mload(0x40)\n      dup1\n      0x40\n      add\n      0x40\n      mstore\n      dup1\n        /* \"Solidity/SimpleStore.sol\":648:653  _name */\n      dup5\n        /* \"Solidity/SimpleStore.sol\":641:670  People(_name,_favoriteNumber) */\n      dup2\n      mstore\n      0x20\n      add\n        /* \"Solidity/SimpleStore.sol\":654:669  _favoriteNumber */\n      dup4\n        /* \"Solidity/SimpleStore.sol\":641:670  People(_name,_favoriteNumber) */\n      dup2\n      mstore\n      pop\n        /* \"Solidity/SimpleStore.sol\":623:671  listOfPeople.push(People(_name,_favoriteNumber)) */\n      swap1\n      dup1\n      0x01\n      dup2\n      sload\n      add\n      dup1\n      dup3\n      sstore\n      dup1\n      swap2\n      pop\n      pop\n      0x01\n      swap1\n      sub\n      swap1\n      0x00\n      mstore\n      keccak256(0x00, 0x20)\n      swap1\n      0x02\n      mul\n      add\n      0x00\n      swap1\n      swap2\n      swap1\n      swap2\n      swap1\n      swap2\n      pop\n      0x00\n      dup3\n      add\n      mload\n      dup2\n      0x00\n      add\n      swap1\n      dup2\n      tag_47\n      swap2\n      swap1\n      tag_48\n      jump\t// in\n    tag_47:\n      pop\n      0x20\n      dup3\n      add\n      mload\n      dup2\n      0x01\n      add\n      sstore\n      pop\n      pop\n        /* \"Solidity/SimpleStore.sol\":711:726  _favoriteNumber */\n      dup1\n        /* \"Solidity/SimpleStore.sol\":681:701  nameToFavoriteNumber */\n      0x03\n        /* \"Solidity/SimpleStore.sol\":702:707  _name */\n      dup4\n        /* \"Solidity/SimpleStore.sol\":681:708  nameToFavoriteNumber[_name] */\n      mload(0x40)\n      tag_49\n      swap2\n      swap1\n      tag_50\n      jump\t// in\n    tag_49:\n      swap1\n      dup2\n      mstore\n      0x20\n      add\n      mload(0x40)\n      dup1\n      swap2\n      sub\n      swap1\n      keccak256\n        /* \"Solidity/SimpleStore.sol\":681:726  nameToFavoriteNumber[_name] = _favoriteNumber */\n      dup2\n      swap1\n      sstore\n      pop\n        /* \"Solidity/SimpleStore.sol\":543:733  function addperson(string memory _name,uint256 _favoriteNumber) public{... */\n      pop\n      pop\n      jump\t// out\n        /* \"#utility.yul\":7:84   */\n    tag_51:\n        /* \"#utility.yul\":44:51   */\n      0x00\n        /* \"#utility.yul\":73:78   */\n      dup2\n        /* \"#utility.yul\":62:78   */\n      swap1\n      pop\n        /* \"#utility.yul\":7:84   */\n      swap2\n      swap1\n      pop\n      jump\t// out\n        /* \"#utility.yul\":90:208   */\n    tag_52:\n        /* \"#utility.yul\":177:201   */\n      tag_96\n        /* \"#utility.yul\":195:200   */\n      dup2\n        /* \"#utility.yul\":177:201   */\n      tag_51\n      jump\t// in\n    tag_96:\n        /* \"#utility.yul\":172:175   */\n      dup3\n        /* \"#utility.yul\":165:202   */\n      mstore\n        /* \"#utility.yul\":90:208   */\n      pop\n      pop\n      jump\t// out\n        /* \"#utility.yul\":214:436   */\n    tag_12:\n        /* \"#utility.yul\":307:311   */\n      0x00\n        /* \"#utility.yul\":345:347   */\n      0x20\n        /* \"#utility.yul\":334:343   */\n      dup3\n        /* \"#utility.yul\":330:348   */\n      add\n        /* \"#utility.yul\":322:348   */\n      swap1\n      pop\n        /* \"#utility.yul\":358:429   */\n      tag_98\n        /* \"#utility.yul\":426:427   */\n      0x00\n        /* \"#utility.yul\":415:424   */\n      dup4\n        /* \"#utility.yul\":411:428   */\n      add\n        /* \"#utility.yul\":402:408   */\n      dup5\n        /* \"#utility.yul\":358:429   */\n      tag_52\n      jump\t// in\n    tag_98:\n        /* \"#utility.yul\":214:436   */\n      swap3\n      swap2\n      pop\n      pop\n      jump\t// out\n        /* \"#utility.yul\":442:517   */\n    tag_53:\n        /* \"#utility.yul\":475:481   */\n      0x00\n        /* \"#utility.yul\":508:510   */\n      0x40\n        /* \"#utility.yul\":502:511   */\n      mload\n        /* \"#utility.yul\":492:511   */\n      swap1\n      pop\n        /* \"#utility.yul\":442:517   */\n      swap1\n      jump\t// out\n        /* \"#utility.yul\":523:640   */\n    tag_54:\n        /* \"#utility.yul\":632:633   */\n      0x00\n        /* \"#utility.yul\":629:630   */\n      0x00\n        /* \"#utility.yul\":622:634   */\n      revert\n        /* \"#utility.yul\":646:763   */\n    tag_55:\n        /* \"#utility.yul\":755:756   */\n      0x00\n        /* \"#utility.yul\":752:753   */\n      0x00\n        /* \"#utility.yul\":745:757   */\n      revert\n        /* \"#utility.yul\":769:891   */\n    tag_56:\n        /* \"#utility.yul\":842:866   */\n      tag_103\n        /* \"#utility.yul\":860:865   */\n      dup2\n        /* \"#utility.yul\":842:866   */\n      tag_51\n      jump\t// in\n    tag_103:\n        /* \"#utility.yul\":835:840   */\n      dup2\n        /* \"#utility.yul\":832:867   */\n      eq\n        /* \"#utility.yul\":822:885   */\n      tag_104\n      jumpi\n        /* \"#utility.yul\":881:882   */\n      0x00\n        /* \"#utility.yul\":878:879   */\n      0x00\n        /* \"#utility.yul\":871:883   */\n      revert\n        /* \"#utility.yul\":822:885   */\n    tag_104:\n        /* \"#utility.yul\":769:891   */\n      pop\n      jump\t// out\n        /* \"#utility.yul\":897:1036   */\n    tag_57:\n        /* \"#utility.yul\":943:948   */\n      0x00\n        /* \"#utility.yul\":981:987   */\n      dup2\n        /* \"#utility.yul\":968:988   */\n      calldataload\n        /* \"#utility.yul\":959:988   */\n      swap1\n      pop\n        /* \"#utility.yul\":997:1030   */\n      tag_106\n        /* \"#utility.yul\":1024:1029   */\n      dup2\n        /* \"#utility.yul\":997:1030   */\n      tag_56\n      jump\t// in\n    tag_106:\n        /* \"#utility.yul\":897:1036   */\n      swap3\n      swap2\n      pop\n      pop\n      jump\t// out\n        /* \"#utility.yul\":1042:1371   */\n    tag_15:\n        /* \"#utility.yul\":1101:1107   */\n      0x00\n        /* \"#utility.yul\":1150:1152   */\n      0x20\n        /* \"#utility.yul\":1138:1147   */\n      dup3\n        /* \"#utility.yul\":1129:1136   */\n      dup5\n        /* \"#utility.yul\":1125:1148   */\n      sub\n        /* \"#utility.yul\":1121:1153   */\n      slt\n        /* \"#utility.yul\":1118:1237   */\n      iszero\n      tag_108\n      jumpi\n        /* \"#utility.yul\":1156:1235   */\n      tag_109\n      tag_54\n      jump\t// in\n    tag_109:\n        /* \"#utility.yul\":1118:1237   */\n    tag_108:\n        /* \"#utility.yul\":1276:1277   */\n      0x00\n        /* \"#utility.yul\":1301:1354   */\n      tag_110\n        /* \"#utility.yul\":1346:1353   */\n      dup5\n        /* \"#utility.yul\":1337:1343   */\n      dup3\n        /* \"#utility.yul\":1326:1335   */\n      dup6\n        /* \"#utility.yul\":1322:1344   */\n      add\n        /* \"#utility.yul\":1301:1354   */\n      tag_57\n      jump\t// in\n    tag_110:\n        /* \"#utility.yul\":1291:1354   */\n      swap2\n      pop\n        /* \"#utility.yul\":1247:1364   */\n      pop\n        /* \"#utility.yul\":1042:1371   */\n      swap3\n      swap2\n      pop\n      pop\n      jump\t// out\n        /* \"#utility.yul\":1377:1476   */\n    tag_58:\n        /* \"#utility.yul\":1429:1435   */\n      0x00\n        /* \"#utility.yul\":1463:1468   */\n      dup2\n        /* \"#utility.yul\":1457:1469   */\n      mload\n        /* \"#utility.yul\":1447:1469   */\n      swap1\n      pop\n        /* \"#utility.yul\":1377:1476   */\n      swap2\n      swap1\n      pop\n      jump\t// out\n        /* \"#utility.yul\":1482:1651   */\n    tag_59:\n        /* \"#utility.yul\":1566:1577   */\n      0x00\n        /* \"#utility.yul\":1600:1606   */\n      dup3\n        /* \"#utility.yul\":1595:1598   */\n      dup3\n        /* \"#utility.yul\":1588:1607   */\n      mstore\n        /* \"#utility.yul\":1640:1644   */\n      0x20\n        /* \"#utility.yul\":1635:1638   */\n      dup3\n        /* \"#utility.yul\":1631:1645   */\n      add\n        /* \"#utility.yul\":1616:1645   */\n      swap1\n      pop\n        /* \"#utility.yul\":1482:1651   */\n      swap3\n      swap2\n      pop\n      pop\n      jump\t// out\n        /* \"#utility.yul\":1657:1796   */\n    tag_60:\n        /* \"#utility.yul\":1746:1752   */\n      dup3\n        /* \"#utility.yul\":1741:1744   */\n      dup2\n        /* \"#utility.yul\":1736:1739   */\n      dup4\n        /* \"#utility.yul\":1730:1753   */\n      mcopy\n        /* \"#utility.yul\":1787:1788   */\n      0x00\n        /* \"#utility.yul\":1778:1784   */\n      dup4\n        /* \"#utility.yul\":1773:1776   */\n      dup4\n        /* \"#utility.yul\":1769:1785   */\n      add\n        /* \"#utility.yul\":1762:1789   */\n      mstore\n        /* \"#utility.yul\":1657:1796   */\n      pop\n      pop\n      pop\n      jump\t// out\n        /* \"#utility.yul\":1802:1904   */\n    tag_61:\n        /* \"#utility.yul\":1843:1849   */\n      0x00\n        /* \"#utility.yul\":1894:1896   */\n      0x1f\n        /* \"#utility.yul\":1890:1897   */\n      not\n        /* \"#utility.yul\":1885:1887   */\n      0x1f\n        /* \"#utility.yul\":1878:1883   */\n      dup4\n        /* \"#utility.yul\":1874:1888   */\n      add\n        /* \"#utility.yul\":1870:1898   */\n      and\n        /* \"#utility.yul\":1860:1898   */\n      swap1\n      pop\n        /* \"#utility.yul\":1802:1904   */\n      swap2\n      swap1\n      pop\n      jump\t// out\n        /* \"#utility.yul\":1910:2287   */\n    tag_62:\n        /* \"#utility.yul\":1998:2001   */\n      0x00\n        /* \"#utility.yul\":2026:2065   */\n      tag_116\n        /* \"#utility.yul\":2059:2064   */\n      dup3\n        /* \"#utility.yul\":2026:2065   */\n      tag_58\n      jump\t// in\n    tag_116:\n        /* \"#utility.yul\":2081:2152   */\n      tag_117\n        /* \"#utility.yul\":2145:2151   */\n      dup2\n        /* \"#utility.yul\":2140:2143   */\n      dup6\n        /* \"#utility.yul\":2081:2152   */\n      tag_59\n      jump\t// in\n    tag_117:\n        /* \"#utility.yul\":2074:2152   */\n      swap4\n      pop\n        /* \"#utility.yul\":2161:2226   */\n      tag_118\n        /* \"#utility.yul\":2219:2225   */\n      dup2\n        /* \"#utility.yul\":2214:2217   */\n      dup6\n        /* \"#utility.yul\":2207:2211   */\n      0x20\n        /* \"#utility.yul\":2200:2205   */\n      dup7\n        /* \"#utility.yul\":2196:2212   */\n      add\n        /* \"#utility.yul\":2161:2226   */\n      tag_60\n      jump\t// in\n    tag_118:\n        /* \"#utility.yul\":2251:2280   */\n      tag_119\n        /* \"#utility.yul\":2273:2279   */\n      dup2\n        /* \"#utility.yul\":2251:2280   */\n      tag_61\n      jump\t// in\n    tag_119:\n        /* \"#utility.yul\":2246:2249   */\n      dup5\n        /* \"#utility.yul\":2242:2281   */\n      add\n        /* \"#utility.yul\":2235:2281   */\n      swap2\n      pop\n        /* \"#utility.yul\":2002:2287   */\n      pop\n        /* \"#utility.yul\":1910:2287   */\n      swap3\n      swap2\n      pop\n      pop\n      jump\t// out\n        /* \"#utility.yul\":2293:2716   */\n    tag_18:\n        /* \"#utility.yul\":2434:2438   */\n      0x00\n        /* \"#utility.yul\":2472:2474   */\n      0x40\n        /* \"#utility.yul\":2461:2470   */\n      dup3\n        /* \"#utility.yul\":2457:2475   */\n      add\n        /* \"#utility.yul\":2449:2475   */\n      swap1\n      pop\n        /* \"#utility.yul\":2521:2530   */\n      dup2\n        /* \"#utility.yul\":2515:2519   */\n      dup2\n        /* \"#utility.yul\":2511:2531   */\n      sub\n        /* \"#utility.yul\":2507:2508   */\n      0x00\n        /* \"#utility.yul\":2496:2505   */\n      dup4\n        /* \"#utility.yul\":2492:2509   */\n      add\n        /* \"#utility.yul\":2485:2532   */\n      mstore\n        /* \"#utility.yul\":2549:2627   */\n      tag_121\n        /* \"#utility.yul\":2622:2626   */\n      dup2\n        /* \"#utility.yul\":2613:2619   */\n      dup6\n        /* \"#utility.yul\":2549:2627   */\n      tag_62\n      jump\t// in\n    tag_121:\n        /* \"#utility.yul\":2541:2627   */\n      swap1\n      pop\n        /* \"#utility.yul\":2637:2709   */\n      tag_122\n        /* \"#utility.yul\":2705:2707   */\n      0x20\n        /* \"#utility.yul\":2694:2703   */\n      dup4\n        /* \"#utility.yul\":2690:2708   */\n      add\n        /* \"#utility.yul\":2681:2687   */\n      dup5\n        /* \"#utility.yul\":2637:2709   */\n      tag_52\n      jump\t// in\n    tag_122:\n        /* \"#utility.yul\":2293:2716   */\n      swap4\n      swap3\n      pop\n      pop\n      pop\n      jump\t// out\n        /* \"#utility.yul\":2722:2839   */\n    tag_63:\n        /* \"#utility.yul\":2831:2832   */\n      0x00\n        /* \"#utility.yul\":2828:2829   */\n      0x00\n        /* \"#utility.yul\":2821:2833   */\n      revert\n        /* \"#utility.yul\":2845:2962   */\n    tag_64:\n        /* \"#utility.yul\":2954:2955   */\n      0x00\n        /* \"#utility.yul\":2951:2952   */\n      0x00\n        /* \"#utility.yul\":2944:2956   */\n      revert\n        /* \"#utility.yul\":2968:3148   */\n    tag_65:\n        /* \"#utility.yul\":3016:3093   */\n      0x4e487b7100000000000000000000000000000000000000000000000000000000\n        /* \"#utility.yul\":3013:3014   */\n      0x00\n        /* \"#utility.yul\":3006:3094   */\n      mstore\n        /* \"#utility.yul\":3113:3117   */\n      0x41\n        /* \"#utility.yul\":3110:3111   */\n      0x04\n        /* \"#utility.yul\":3103:3118   */\n      mstore\n        /* \"#utility.yul\":3137:3141   */\n      0x24\n        /* \"#utility.yul\":3134:3135   */\n      0x00\n        /* \"#utility.yul\":3127:3142   */\n      revert\n        /* \"#utility.yul\":3154:3435   */\n    tag_66:\n        /* \"#utility.yul\":3237:3264   */\n      tag_127\n        /* \"#utility.yul\":3259:3263   */\n      dup3\n        /* \"#utility.yul\":3237:3264   */\n      tag_61\n      jump\t// in\n    tag_127:\n        /* \"#utility.yul\":3229:3235   */\n      dup2\n        /* \"#utility.yul\":3225:3265   */\n      add\n        /* \"#utility.yul\":3367:3373   */\n      dup2\n        /* \"#utility.yul\":3355:3365   */\n      dup2\n        /* \"#utility.yul\":3352:3374   */\n      lt\n        /* \"#utility.yul\":3331:3349   */\n      0xffffffffffffffff\n        /* \"#utility.yul\":3319:3329   */\n      dup3\n        /* \"#utility.yul\":3316:3350   */\n      gt\n        /* \"#utility.yul\":3313:3375   */\n      or\n        /* \"#utility.yul\":3310:3398   */\n      iszero\n      tag_128\n      jumpi\n        /* \"#utility.yul\":3378:3396   */\n      tag_129\n      tag_65\n      jump\t// in\n    tag_129:\n        /* \"#utility.yul\":3310:3398   */\n    tag_128:\n        /* \"#utility.yul\":3418:3428   */\n      dup1\n        /* \"#utility.yul\":3414:3416   */\n      0x40\n        /* \"#utility.yul\":3407:3429   */\n      mstore\n        /* \"#utility.yul\":3197:3435   */\n      pop\n        /* \"#utility.yul\":3154:3435   */\n      pop\n      pop\n      jump\t// out\n        /* \"#utility.yul\":3441:3570   */\n    tag_67:\n        /* \"#utility.yul\":3475:3481   */\n      0x00\n        /* \"#utility.yul\":3502:3522   */\n      tag_131\n      tag_53\n      jump\t// in\n    tag_131:\n        /* \"#utility.yul\":3492:3522   */\n      swap1\n      pop\n        /* \"#utility.yul\":3531:3564   */\n      tag_132\n        /* \"#utility.yul\":3559:3563   */\n      dup3\n        /* \"#utility.yul\":3551:3557   */\n      dup3\n        /* \"#utility.yul\":3531:3564   */\n      tag_66\n      jump\t// in\n    tag_132:\n        /* \"#utility.yul\":3441:3570   */\n      swap2\n      swap1\n      pop\n      jump\t// out\n        /* \"#utility.yul\":3576:3884   */\n    tag_68:\n        /* \"#utility.yul\":3638:3642   */\n      0x00\n        /* \"#utility.yul\":3728:3746   */\n      0xffffffffffffffff\n        /* \"#utility.yul\":3720:3726   */\n      dup3\n        /* \"#utility.yul\":3717:3747   */\n      gt\n        /* \"#utility.yul\":3714:3770   */\n      iszero\n      tag_134\n      jumpi\n        /* \"#utility.yul\":3750:3768   */\n      tag_135\n      tag_65\n      jump\t// in\n    tag_135:\n        /* \"#utility.yul\":3714:3770   */\n    tag_134:\n        /* \"#utility.yul\":3788:3817   */\n      tag_136\n        /* \"#utility.yul\":3810:3816   */\n      dup3\n        /* \"#utility.yul\":3788:3817   */\n      tag_61\n      jump\t// in\n    tag_136:\n        /* \"#utility.yul\":3780:3817   */\n      swap1\n      pop\n        /* \"#utility.yul\":3872:3876   */\n      0x20\n        /* \"#utility.yul\":3866:3870   */\n      dup2\n        /* \"#utility.yul\":3862:3877   */\n      add\n        /* \"#utility.yul\":3854:3877   */\n      swap1\n      pop\n        /* \"#utility.yul\":3576:3884   */\n      swap2\n      swap1\n      pop\n      jump\t// out\n        /* \"#utility.yul\":3890:4038   */\n    tag_69:\n        /* \"#utility.yul\":3988:3994   */\n      dup3\n        /* \"#utility.yul\":3983:3986   */\n      dup2\n        /* \"#utility.yul\":3978:3981   */\n      dup4\n        /* \"#utility.yul\":3965:3995   */\n      calldatacopy\n        /* \"#utility.yul\":4029:4030   */\n      0x00\n        /* \"#utility.yul\":4020:4026   */\n      dup4\n        /* \"#utility.yul\":4015:4018   */\n      dup4\n        /* \"#utility.yul\":4011:4027   */\n      add\n        /* \"#utility.yul\":4004:4031   */\n      mstore\n        /* \"#utility.yul\":3890:4038   */\n      pop\n      pop\n      pop\n      jump\t// out\n        /* \"#utility.yul\":4044:4469   */\n    tag_70:\n        /* \"#utility.yul\":4122:4127   */\n      0x00\n        /* \"#utility.yul\":4147:4213   */\n      tag_139\n        /* \"#utility.yul\":4163:4212   */\n      tag_140\n        /* \"#utility.yul\":4205:4211   */\n      dup5\n        /* \"#utility.yul\":4163:4212   */\n      tag_68\n      jump\t// in\n    tag_140:\n        /* \"#utility.yul\":4147:4213   */\n      tag_67\n      jump\t// in\n    tag_139:\n        /* \"#utility.yul\":4138:4213   */\n      swap1\n      pop\n        /* \"#utility.yul\":4236:4242   */\n      dup3\n        /* \"#utility.yul\":4229:4234   */\n      dup2\n        /* \"#utility.yul\":4222:4243   */\n      mstore\n        /* \"#utility.yul\":4274:4278   */\n      0x20\n        /* \"#utility.yul\":4267:4272   */\n      dup2\n        /* \"#utility.yul\":4263:4279   */\n      add\n        /* \"#utility.yul\":4312:4315   */\n      dup5\n        /* \"#utility.yul\":4303:4309   */\n      dup5\n        /* \"#utility.yul\":4298:4301   */\n      dup5\n        /* \"#utility.yul\":4294:4310   */\n      add\n        /* \"#utility.yul\":4291:4316   */\n      gt\n        /* \"#utility.yul\":4288:4400   */\n      iszero\n      tag_141\n      jumpi\n        /* \"#utility.yul\":4319:4398   */\n      tag_142\n      tag_64\n      jump\t// in\n    tag_142:\n        /* \"#utility.yul\":4288:4400   */\n    tag_141:\n        /* \"#utility.yul\":4409:4463   */\n      tag_143\n        /* \"#utility.yul\":4456:4462   */\n      dup5\n        /* \"#utility.yul\":4451:4454   */\n      dup3\n        /* \"#utility.yul\":4446:4449   */\n      dup6\n        /* \"#utility.yul\":4409:4463   */\n      tag_69\n      jump\t// in\n    tag_143:\n        /* \"#utility.yul\":4128:4469   */\n      pop\n        /* \"#utility.yul\":4044:4469   */\n      swap4\n      swap3\n      pop\n      pop\n      pop\n      jump\t// out\n        /* \"#utility.yul\":4489:4829   */\n    tag_71:\n        /* \"#utility.yul\":4545:4550   */\n      0x00\n        /* \"#utility.yul\":4594:4597   */\n      dup3\n        /* \"#utility.yul\":4587:4591   */\n      0x1f\n        /* \"#utility.yul\":4579:4585   */\n      dup4\n        /* \"#utility.yul\":4575:4592   */\n      add\n        /* \"#utility.yul\":4571:4598   */\n      slt\n        /* \"#utility.yul\":4561:4683   */\n      tag_145\n      jumpi\n        /* \"#utility.yul\":4602:4681   */\n      tag_146\n      tag_63\n      jump\t// in\n    tag_146:\n        /* \"#utility.yul\":4561:4683   */\n    tag_145:\n        /* \"#utility.yul\":4719:4725   */\n      dup2\n        /* \"#utility.yul\":4706:4726   */\n      calldataload\n        /* \"#utility.yul\":4744:4823   */\n      tag_147\n        /* \"#utility.yul\":4819:4822   */\n      dup5\n        /* \"#utility.yul\":4811:4817   */\n      dup3\n        /* \"#utility.yul\":4804:4808   */\n      0x20\n        /* \"#utility.yul\":4796:4802   */\n      dup7\n        /* \"#utility.yul\":4792:4809   */\n      add\n        /* \"#utility.yul\":4744:4823   */\n      tag_70\n      jump\t// in\n    tag_147:\n        /* \"#utility.yul\":4735:4823   */\n      swap2\n      pop\n        /* \"#utility.yul\":4551:4829   */\n      pop\n        /* \"#utility.yul\":4489:4829   */\n      swap3\n      swap2\n      pop\n      pop\n      jump\t// out\n        /* \"#utility.yul\":4835:5344   */\n    tag_24:\n        /* \"#utility.yul\":4904:4910   */\n      0x00\n        /* \"#utility.yul\":4953:4955   */\n      0x20\n        /* \"#utility.yul\":4941:4950   */\n      dup3\n        /* \"#utility.yul\":4932:4939   */\n      dup5\n        /* \"#utility.yul\":4928:4951   */\n      sub\n        /* \"#utility.yul\":4924:4956   */\n      slt\n        /* \"#utility.yul\":4921:5040   */\n      iszero\n      tag_149\n      jumpi\n        /* \"#utility.yul\":4959:5038   */\n      tag_150\n      tag_54\n      jump\t// in\n    tag_150:\n        /* \"#utility.yul\":4921:5040   */\n    tag_149:\n        /* \"#utility.yul\":5107:5108   */\n      0x00\n        /* \"#utility.yul\":5096:5105   */\n      dup3\n        /* \"#utility.yul\":5092:5109   */\n      add\n        /* \"#utility.yul\":5079:5110   */\n      calldataload\n        /* \"#utility.yul\":5137:5155   */\n      0xffffffffffffffff\n        /* \"#utility.yul\":5129:5135   */\n      dup2\n        /* \"#utility.yul\":5126:5156   */\n      gt\n        /* \"#utility.yul\":5123:5240   */\n      iszero\n      tag_151\n      jumpi\n        /* \"#utility.yul\":5159:5238   */\n      tag_152\n      tag_55\n      jump\t// in\n    tag_152:\n        /* \"#utility.yul\":5123:5240   */\n    tag_151:\n        /* \"#utility.yul\":5264:5327   */\n      tag_153\n        /* \"#utility.yul\":5319:5326   */\n      dup5\n        /* \"#utility.yul\":5310:5316   */\n      dup3\n        /* \"#utility.yul\":5299:5308   */\n      dup6\n        /* \"#utility.yul\":5295:5317   */\n      add\n        /* \"#utility.yul\":5264:5327   */\n      tag_71\n      jump\t// in\n    tag_153:\n        /* \"#utility.yul\":5254:5327   */\n      swap2\n      pop\n        /* \"#utility.yul\":5050:5337   */\n      pop\n        /* \"#utility.yul\":4835:5344   */\n      swap3\n      swap2\n      pop\n      pop\n      jump\t// out\n        /* \"#utility.yul\":5350:5476   */\n    tag_72:\n        /* \"#utility.yul\":5387:5394   */\n      0x00\n        /* \"#utility.yul\":5427:5469   */\n      0xffffffffffffffffffffffffffffffffffffffff\n        /* \"#utility.yul\":5420:5425   */\n      dup3\n        /* \"#utility.yul\":5416:5470   */\n      and\n        /* \"#utility.yul\":5405:5470   */\n      swap1\n      pop\n        /* \"#utility.yul\":5350:5476   */\n      swap2\n      swap1\n      pop\n      jump\t// out\n        /* \"#utility.yul\":5482:5578   */\n    tag_73:\n        /* \"#utility.yul\":5519:5526   */\n      0x00\n        /* \"#utility.yul\":5548:5572   */\n      tag_156\n        /* \"#utility.yul\":5566:5571   */\n      dup3\n        /* \"#utility.yul\":5548:5572   */\n      tag_72\n      jump\t// in\n    tag_156:\n        /* \"#utility.yul\":5537:5572   */\n      swap1\n      pop\n        /* \"#utility.yul\":5482:5578   */\n      swap2\n      swap1\n      pop\n      jump\t// out\n        /* \"#utility.yul\":5584:5702   */\n    tag_74:\n        /* \"#utility.yul\":5671:5695   */\n      tag_158\n        /* \"#utility.yul\":5689:5694   */\n      dup2\n        /* \"#utility.yul\":5671:5695   */\n      tag_73\n      jump\t// in\n    tag_158:\n        /* \"#utility.yul\":5666:5669   */\n      dup3\n        /* \"#utility.yul\":5659:5696   */\n      mstore\n        /* \"#utility.yul\":5584:5702   */\n      pop\n      pop\n      jump\t// out\n        /* \"#utility.yul\":5708:5930   */\n    tag_30:\n        /* \"#utility.yul\":5801:5805   */\n      0x00\n        /* \"#utility.yul\":5839:5841   */\n      0x20\n        /* \"#utility.yul\":5828:5837   */\n      dup3\n        /* \"#utility.yul\":5824:5842   */\n      add\n        /* \"#utility.yul\":5816:5842   */\n      swap1\n      pop\n        /* \"#utility.yul\":5852:5923   */\n      tag_160\n        /* \"#utility.yul\":5920:5921   */\n      0x00\n        /* \"#utility.yul\":5909:5918   */\n      dup4\n        /* \"#utility.yul\":5905:5922   */\n      add\n        /* \"#utility.yul\":5896:5902   */\n      dup5\n        /* \"#utility.yul\":5852:5923   */\n      tag_74\n      jump\t// in\n    tag_160:\n        /* \"#utility.yul\":5708:5930   */\n      swap3\n      swap2\n      pop\n      pop\n      jump\t// out\n        /* \"#utility.yul\":5936:6590   */\n    tag_33:\n        /* \"#utility.yul\":6014:6020   */\n      0x00\n        /* \"#utility.yul\":6022:6028   */\n      0x00\n        /* \"#utility.yul\":6071:6073   */\n      0x40\n        /* \"#utility.yul\":6059:6068   */\n      dup4\n        /* \"#utility.yul\":6050:6057   */\n      dup6\n        /* \"#utility.yul\":6046:6069   */\n      sub\n        /* \"#utility.yul\":6042:6074   */\n      slt\n        /* \"#utility.yul\":6039:6158   */\n      iszero\n      tag_162\n      jumpi\n        /* \"#utility.yul\":6077:6156   */\n      tag_163\n      tag_54\n      jump\t// in\n    tag_163:\n        /* \"#utility.yul\":6039:6158   */\n    tag_162:\n        /* \"#utility.yul\":6225:6226   */\n      0x00\n        /* \"#utility.yul\":6214:6223   */\n      dup4\n        /* \"#utility.yul\":6210:6227   */\n      add\n        /* \"#utility.yul\":6197:6228   */\n      calldataload\n        /* \"#utility.yul\":6255:6273   */\n      0xffffffffffffffff\n        /* \"#utility.yul\":6247:6253   */\n      dup2\n        /* \"#utility.yul\":6244:6274   */\n      gt\n        /* \"#utility.yul\":6241:6358   */\n      iszero\n      tag_164\n      jumpi\n        /* \"#utility.yul\":6277:6356   */\n      tag_165\n      tag_55\n      jump\t// in\n    tag_165:\n        /* \"#utility.yul\":6241:6358   */\n    tag_164:\n        /* \"#utility.yul\":6382:6445   */\n      tag_166\n        /* \"#utility.yul\":6437:6444   */\n      dup6\n        /* \"#utility.yul\":6428:6434   */\n      dup3\n        /* \"#utility.yul\":6417:6426   */\n      dup7\n        /* \"#utility.yul\":6413:6435   */\n      add\n        /* \"#utility.yul\":6382:6445   */\n      tag_71\n      jump\t// in\n    tag_166:\n        /* \"#utility.yul\":6372:6445   */\n      swap3\n      pop\n        /* \"#utility.yul\":6168:6455   */\n      pop\n        /* \"#utility.yul\":6494:6496   */\n      0x20\n        /* \"#utility.yul\":6520:6573   */\n      tag_167\n        /* \"#utility.yul\":6565:6572   */\n      dup6\n        /* \"#utility.yul\":6556:6562   */\n      dup3\n        /* \"#utility.yul\":6545:6554   */\n      dup7\n        /* \"#utility.yul\":6541:6563   */\n      add\n        /* \"#utility.yul\":6520:6573   */\n      tag_57\n      jump\t// in\n    tag_167:\n        /* \"#utility.yul\":6510:6573   */\n      swap2\n      pop\n        /* \"#utility.yul\":6465:6583   */\n      pop\n        /* \"#utility.yul\":5936:6590   */\n      swap3\n      pop\n      swap3\n      swap1\n      pop\n      jump\t// out\n        /* \"#utility.yul\":6596:6776   */\n    tag_75:\n        /* \"#utility.yul\":6644:6721   */\n      0x4e487b7100000000000000000000000000000000000000000000000000000000\n        /* \"#utility.yul\":6641:6642   */\n      0x00\n        /* \"#utility.yul\":6634:6722   */\n      mstore\n        /* \"#utility.yul\":6741:6745   */\n      0x22\n        /* \"#utility.yul\":6738:6739   */\n      0x04\n        /* \"#utility.yul\":6731:6746   */\n      mstore\n        /* \"#utility.yul\":6765:6769   */\n      0x24\n        /* \"#utility.yul\":6762:6763   */\n      0x00\n        /* \"#utility.yul\":6755:6770   */\n      revert\n        /* \"#utility.yul\":6782:7102   */\n    tag_39:\n        /* \"#utility.yul\":6826:6832   */\n      0x00\n        /* \"#utility.yul\":6863:6864   */\n      0x02\n        /* \"#utility.yul\":6857:6861   */\n      dup3\n        /* \"#utility.yul\":6853:6865   */\n      div\n        /* \"#utility.yul\":6843:6865   */\n      swap1\n      pop\n        /* \"#utility.yul\":6910:6911   */\n      0x01\n        /* \"#utility.yul\":6904:6908   */\n      dup3\n        /* \"#utility.yul\":6900:6912   */\n      and\n        /* \"#utility.yul\":6931:6949   */\n      dup1\n        /* \"#utility.yul\":6921:7002   */\n      tag_170\n      jumpi\n        /* \"#utility.yul\":6987:6991   */\n      0x7f\n        /* \"#utility.yul\":6979:6985   */\n      dup3\n        /* \"#utility.yul\":6975:6992   */\n      and\n        /* \"#utility.yul\":6965:6992   */\n      swap2\n      pop\n        /* \"#utility.yul\":6921:7002   */\n    tag_170:\n        /* \"#utility.yul\":7049:7051   */\n      0x20\n        /* \"#utility.yul\":7041:7047   */\n      dup3\n        /* \"#utility.yul\":7038:7052   */\n      lt\n        /* \"#utility.yul\":7018:7036   */\n      dup2\n        /* \"#utility.yul\":7015:7053   */\n      sub\n        /* \"#utility.yul\":7012:7096   */\n      tag_171\n      jumpi\n        /* \"#utility.yul\":7068:7086   */\n      tag_172\n      tag_75\n      jump\t// in\n    tag_172:\n        /* \"#utility.yul\":7012:7096   */\n    tag_171:\n        /* \"#utility.yul\":6833:7102   */\n      pop\n        /* \"#utility.yul\":6782:7102   */\n      swap2\n      swap1\n      pop\n      jump\t// out\n        /* \"#utility.yul\":7108:7249   */\n    tag_76:\n        /* \"#utility.yul\":7157:7161   */\n      0x00\n        /* \"#utility.yul\":7180:7183   */\n      dup2\n        /* \"#utility.yul\":7172:7183   */\n      swap1\n      pop\n        /* \"#utility.yul\":7203:7206   */\n      dup2\n        /* \"#utility.yul\":7200:7201   */\n      0x00\n        /* \"#utility.yul\":7193:7207   */\n      mstore\n        /* \"#utility.yul\":7237:7241   */\n      0x20\n        /* \"#utility.yul\":7234:7235   */\n      0x00\n        /* \"#utility.yul\":7224:7242   */\n      keccak256\n        /* \"#utility.yul\":7216:7242   */\n      swap1\n      pop\n        /* \"#utility.yul\":7108:7249   */\n      swap2\n      swap1\n      pop\n      jump\t// out\n        /* \"#utility.yul\":7255:7348   */\n    tag_77:\n        /* \"#utility.yul\":7292:7298   */\n      0x00\n        /* \"#utility.yul\":7339:7341   */\n      0x20\n        /* \"#utility.yul\":7334:7336   */\n      0x1f\n        /* \"#utility.yul\":7327:7332   */\n      dup4\n        /* \"#utility.yul\":7323:7337   */\n      add\n        /* \"#utility.yul\":7319:7342   */\n      div\n        /* \"#utility.yul\":7309:7342   */\n      swap1\n      pop\n        /* \"#utility.yul\":7255:7348   */\n      swap2\n      swap1\n      pop\n      jump\t// out\n        /* \"#utility.yul\":7354:7461   */\n    tag_78:\n        /* \"#utility.yul\":7398:7406   */\n      0x00\n        /* \"#utility.yul\":7448:7453   */\n      dup3\n        /* \"#utility.yul\":7442:7446   */\n      dup3\n        /* \"#utility.yul\":7438:7454   */\n      shl\n        /* \"#utility.yul\":7417:7454   */\n      swap1\n      pop\n        /* \"#utility.yul\":7354:7461   */\n      swap3\n      swap2\n      pop\n      pop\n      jump\t// out\n        /* \"#utility.yul\":7467:7860   */\n    tag_79:\n        /* \"#utility.yul\":7536:7542   */\n      0x00\n        /* \"#utility.yul\":7586:7587   */\n      0x08\n        /* \"#utility.yul\":7574:7584   */\n      dup4\n        /* \"#utility.yul\":7570:7588   */\n      mul\n        /* \"#utility.yul\":7609:7706   */\n      tag_177\n        /* \"#utility.yul\":7639:7705   */\n      0xffffffffffffffffffffffffffffffffffffffffffffffffffffffffffffffff\n        /* \"#utility.yul\":7628:7637   */\n      dup3\n        /* \"#utility.yul\":7609:7706   */\n      tag_78\n      jump\t// in\n    tag_177:\n        /* \"#utility.yul\":7727:7766   */\n      tag_178\n        /* \"#utility.yul\":7757:7765   */\n      dup7\n        /* \"#utility.yul\":7746:7755   */\n      dup4\n        /* \"#utility.yul\":7727:7766   */\n      tag_78\n      jump\t// in\n    tag_178:\n        /* \"#utility.yul\":7715:7766   */\n      swap6\n      pop\n        /* \"#utility.yul\":7799:7803   */\n      dup1\n        /* \"#utility.yul\":7795:7804   */\n      not\n        /* \"#utility.yul\":7788:7793   */\n      dup5\n        /* \"#utility.yul\":7784:7805   */\n      and\n        /* \"#utility.yul\":7775:7805   */\n      swap4\n      pop\n        /* \"#utility.yul\":7848:7852   */\n      dup1\n        /* \"#utility.yul\":7838:7846   */\n      dup7\n        /* \"#utility.yul\":7834:7853   */\n      and\n        /* \"#utility.yul\":7827:7832   */\n      dup5\n        /* \"#utility.yul\":7824:7854   */\n      or\n        /* \"#utility.yul\":7814:7854   */\n      swap3\n      pop\n        /* \"#utility.yul\":7543:7860   */\n      pop\n      pop\n        /* \"#utility.yul\":7467:7860   */\n      swap4\n      swap3\n      pop\n      pop\n      pop\n      jump\t// out\n        /* \"#utility.yul\":7866:7926   */\n    tag_80:\n        /* \"#utility.yul\":7894:7897   */\n      0x00\n        /* \"#utility.yul\":7915:7920   */\n      dup2\n        /* \"#utility.yul\":7908:7920   */\n      swap1\n      pop\n        /* \"#utility.yul\":7866:7926   */\n      swap2\n      swap1\n      pop\n      jump\t// out\n        /* \"#utility.yul\":7932:8074   */\n    tag_81:\n        /* \"#utility.yul\":7982:7991   */\n      0x00\n        /* \"#utility.yul\":8015:8068   */\n      tag_181\n        /* \"#utility.yul\":8033:8067   */\n      tag_182\n        /* \"#utility.yul\":8042:8066   */\n      tag_183\n        /* \"#utility.yul\":8060:8065   */\n      dup5\n        /* \"#utility.yul\":8042:8066   */\n      tag_51\n      jump\t// in\n    tag_183:\n        /* \"#utility.yul\":8033:8067   */\n      tag_80\n      jump\t// in\n    tag_182:\n        /* \"#utility.yul\":8015:8068   */\n      tag_51\n      jump\t// in\n    tag_181:\n        /* \"#utility.yul\":8002:8068   */\n      swap1\n      pop\n        /* \"#utility.yul\":7932:8074   */\n      swap2\n      swap1\n      pop\n      jump\t// out\n        /* \"#utility.yul\":8080:8155   */\n    tag_82:\n        /* \"#utility.yul\":8123:8126   */\n      0x00\n        /* \"#utility.yul\":8144:8149   */\n      dup2\n        /* \"#utility.yul\":8137:8149   */\n      swap1\n      pop\n        /* \"#utility.yul\":8080:8155   */\n      swap2\n      swap1\n      pop\n      jump\t// out\n        /* \"#utility.yul\":8161:8430   */\n    tag_83:\n        /* \"#utility.yul\":8271:8310   */\n      tag_186\n        /* \"#utility.yul\":8302:8309   */\n      dup4\n        /* \"#utility.yul\":8271:8310   */\n      tag_81\n      jump\t// in\n    tag_186:\n        /* \"#utility.yul\":8332:8423   */\n      tag_187\n        /* \"#utility.yul\":8381:8422   */\n      tag_188\n        /* \"#utility.yul\":8405:8421   */\n      dup3\n        /* \"#utility.yul\":8381:8422   */\n      tag_82\n      jump\t// in\n    tag_188:\n        /* \"#utility.yul\":8373:8379   */\n      dup5\n        /* \"#utility.yul\":8366:8370   */\n      dup5\n        /* \"#utility.yul\":8360:8371   */\n      sload\n        /* \"#utility.yul\":8332:8423   */\n      tag_79\n      jump\t// in\n    tag_187:\n        /* \"#utility.yul\":8326:8330   */\n      dup3\n        /* \"#utility.yul\":8319:8424   */\n      sstore\n        /* \"#utility.yul\":8237:8430   */\n      pop\n        /* \"#utility.yul\":8161:8430   */\n      pop\n      pop\n      pop\n      jump\t// out\n        /* \"#utility.yul\":8436:8509   */\n    tag_84:\n        /* \"#utility.yul\":8481:8484   */\n      0x00\n        /* \"#utility.yul\":8502:8503   */\n      0x00\n        /* \"#utility.yul\":8495:8503   */\n      swap1\n      pop\n        /* \"#utility.yul\":8436:8509   */\n      swap1\n      jump\t// out\n        /* \"#utility.yul\":8515:8704   */\n    tag_85:\n        /* \"#utility.yul\":8592:8624   */\n      tag_191\n      tag_84\n      jump\t// in\n    tag_191:\n        /* \"#utility.yul\":8633:8698   */\n      tag_192\n        /* \"#utility.yul\":8691:8697   */\n      dup2\n        /* \"#utility.yul\":8683:8689   */\n      dup5\n        /* \"#utility.yul\":8677:8681   */\n      dup5\n        /* \"#utility.yul\":8633:8698   */\n      tag_83\n      jump\t// in\n    tag_192:\n        /* \"#utility.yul\":8568:8704   */\n      pop\n        /* \"#utility.yul\":8515:8704   */\n      pop\n      pop\n      jump\t// out\n        /* \"#utility.yul\":8710:8896   */\n    tag_86:\n        /* \"#utility.yul\":8770:8890   */\n    tag_194:\n        /* \"#utility.yul\":8787:8790   */\n      dup2\n        /* \"#utility.yul\":8780:8785   */\n      dup2\n        /* \"#utility.yul\":8777:8791   */\n      lt\n        /* \"#utility.yul\":8770:8890   */\n      iszero\n      tag_196\n      jumpi\n        /* \"#utility.yul\":8841:8880   */\n      tag_197\n        /* \"#utility.yul\":8878:8879   */\n      0x00\n        /* \"#utility.yul\":8871:8876   */\n      dup3\n        /* \"#utility.yul\":8841:8880   */\n      tag_85\n      jump\t// in\n    tag_197:\n        /* \"#utility.yul\":8814:8815   */\n      0x01\n        /* \"#utility.yul\":8807:8812   */\n      dup2\n        /* \"#utility.yul\":8803:8816   */\n      add\n        /* \"#utility.yul\":8794:8816   */\n      swap1\n      pop\n        /* \"#utility.yul\":8770:8890   */\n      jump(tag_194)\n    tag_196:\n        /* \"#utility.yul\":8710:8896   */\n      pop\n      pop\n      jump\t// out\n        /* \"#utility.yul\":8902:9445   */\n    tag_87:\n        /* \"#utility.yul\":9003:9005   */\n      0x1f\n        /* \"#utility.yul\":8998:9001   */\n      dup3\n        /* \"#utility.yul\":8995:9006   */\n      gt\n        /* \"#utility.yul\":8992:9438   */\n      iszero\n      tag_199\n      jumpi\n        /* \"#utility.yul\":9037:9075   */\n      tag_200\n        /* \"#utility.yul\":9069:9074   */\n      dup2\n        /* \"#utility.yul\":9037:9075   */\n      tag_76\n      jump\t// in\n    tag_200:\n        /* \"#utility.yul\":9121:9150   */\n      tag_201\n        /* \"#utility.yul\":9139:9149   */\n      dup5\n        /* \"#utility.yul\":9121:9150   */\n      tag_77\n      jump\t// in\n    tag_201:\n        /* \"#utility.yul\":9111:9119   */\n      dup2\n        /* \"#utility.yul\":9107:9151   */\n      add\n        /* \"#utility.yul\":9304:9306   */\n      0x20\n        /* \"#utility.yul\":9292:9302   */\n      dup6\n        /* \"#utility.yul\":9289:9307   */\n      lt\n        /* \"#utility.yul\":9286:9335   */\n      iszero\n      tag_202\n      jumpi\n        /* \"#utility.yul\":9325:9333   */\n      dup2\n        /* \"#utility.yul\":9310:9333   */\n      swap1\n      pop\n        /* \"#utility.yul\":9286:9335   */\n    tag_202:\n        /* \"#utility.yul\":9348:9428   */\n      tag_203\n        /* \"#utility.yul\":9404:9426   */\n      tag_204\n        /* \"#utility.yul\":9422:9425   */\n      dup6\n        /* \"#utility.yul\":9404:9426   */\n      tag_77\n      jump\t// in\n    tag_204:\n        /* \"#utility.yul\":9394:9402   */\n      dup4\n        /* \"#utility.yul\":9390:9427   */\n      add\n        /* \"#utility.yul\":9377:9388   */\n      dup3\n        /* \"#utility.yul\":9348:9428   */\n      tag_86\n      jump\t// in\n    tag_203:\n        /* \"#utility.yul\":9007:9438   */\n      pop\n      pop\n        /* \"#utility.yul\":8992:9438   */\n    tag_199:\n        /* \"#utility.yul\":8902:9445   */\n      pop\n      pop\n      pop\n      jump\t// out\n        /* \"#utility.yul\":9451:9568   */\n    tag_88:\n        /* \"#utility.yul\":9505:9513   */\n      0x00\n        /* \"#utility.yul\":9555:9560   */\n      dup3\n        /* \"#utility.yul\":9549:9553   */\n      dup3\n        /* \"#utility.yul\":9545:9561   */\n      shr\n        /* \"#utility.yul\":9524:9561   */\n      swap1\n      pop\n        /* \"#utility.yul\":9451:9568   */\n      swap3\n      swap2\n      pop\n      pop\n      jump\t// out\n        /* \"#utility.yul\":9574:9743   */\n    tag_89:\n        /* \"#utility.yul\":9618:9624   */\n      0x00\n        /* \"#utility.yul\":9651:9702   */\n      tag_207\n        /* \"#utility.yul\":9699:9700   */\n      0x00\n        /* \"#utility.yul\":9695:9701   */\n      not\n        /* \"#utility.yul\":9687:9692   */\n      dup5\n        /* \"#utility.yul\":9684:9685   */\n      0x08\n        /* \"#utility.yul\":9680:9693   */\n      mul\n        /* \"#utility.yul\":9651:9702   */\n      tag_88\n      jump\t// in\n    tag_207:\n        /* \"#utility.yul\":9647:9703   */\n      not\n        /* \"#utility.yul\":9732:9736   */\n      dup1\n        /* \"#utility.yul\":9726:9730   */\n      dup4\n        /* \"#utility.yul\":9722:9737   */\n      and\n        /* \"#utility.yul\":9712:9737   */\n      swap2\n      pop\n        /* \"#utility.yul\":9625:9743   */\n      pop\n        /* \"#utility.yul\":9574:9743   */\n      swap3\n      swap2\n      pop\n      pop\n      jump\t// out\n        /* \"#utility.yul\":9748:10043   */\n    tag_90:\n        /* \"#utility.yul\":9824:9828   */\n      0x00\n        /* \"#utility.yul\":9970:9999   */\n      tag_209\n        /* \"#utility.yul\":9995:9998   */\n      dup4\n        /* \"#utility.yul\":9989:9993   */\n      dup4\n        /* \"#utility.yul\":9970:9999   */\n      tag_89\n      jump\t// in\n    tag_209:\n        /* \"#utility.yul\":9962:9999   */\n      swap2\n      pop\n        /* \"#utility.yul\":10032:10035   */\n      dup3\n        /* \"#utility.yul\":10029:10030   */\n      0x02\n        /* \"#utility.yul\":10025:10036   */\n      mul\n        /* \"#utility.yul\":10019:10023   */\n      dup3\n        /* \"#utility.yul\":10016:10037   */\n      or\n        /* \"#utility.yul\":10008:10037   */\n      swap1\n      pop\n        /* \"#utility.yul\":9748:10043   */\n      swap3\n      swap2\n      pop\n      pop\n      jump\t// out\n        /* \"#utility.yul\":10048:11443   */\n    tag_48:\n        /* \"#utility.yul\":10165:10202   */\n      tag_211\n        /* \"#utility.yul\":10198:10201   */\n      dup3\n        /* \"#utility.yul\":10165:10202   */\n      tag_58\n      jump\t// in\n    tag_211:\n        /* \"#utility.yul\":10267:10285   */\n      0xffffffffffffffff\n        /* \"#utility.yul\":10259:10265   */\n      dup2\n        /* \"#utility.yul\":10256:10286   */\n      gt\n        /* \"#utility.yul\":10253:10309   */\n      iszero\n      tag_212\n      jumpi\n        /* \"#utility.yul\":10289:10307   */\n      tag_213\n      tag_65\n      jump\t// in\n    tag_213:\n        /* \"#utility.yul\":10253:10309   */\n    tag_212:\n        /* \"#utility.yul\":10333:10371   */\n      tag_214\n        /* \"#utility.yul\":10365:10369   */\n      dup3\n        /* \"#utility.yul\":10359:10370   */\n      sload\n        /* \"#utility.yul\":10333:10371   */\n      tag_39\n      jump\t// in\n    tag_214:\n        /* \"#utility.yul\":10418:10485   */\n      tag_215\n        /* \"#utility.yul\":10478:10484   */\n      dup3\n        /* \"#utility.yul\":10470:10476   */\n      dup3\n        /* \"#utility.yul\":10464:10468   */\n      dup6\n        /* \"#utility.yul\":10418:10485   */\n      tag_87\n      jump\t// in\n    tag_215:\n        /* \"#utility.yul\":10512:10513   */\n      0x00\n        /* \"#utility.yul\":10536:10540   */\n      0x20\n        /* \"#utility.yul\":10523:10540   */\n      swap1\n      pop\n        /* \"#utility.yul\":10568:10570   */\n      0x1f\n        /* \"#utility.yul\":10560:10566   */\n      dup4\n        /* \"#utility.yul\":10557:10571   */\n      gt\n        /* \"#utility.yul\":10585:10586   */\n      0x01\n        /* \"#utility.yul\":10580:11198   */\n      dup2\n      eq\n      tag_217\n      jumpi\n        /* \"#utility.yul\":11242:11243   */\n      0x00\n        /* \"#utility.yul\":11259:11265   */\n      dup5\n        /* \"#utility.yul\":11256:11333   */\n      iszero\n      tag_218\n      jumpi\n        /* \"#utility.yul\":11308:11317   */\n      dup3\n        /* \"#utility.yul\":11303:11306   */\n      dup8\n        /* \"#utility.yul\":11299:11318   */\n      add\n        /* \"#utility.yul\":11293:11319   */\n      mload\n        /* \"#utility.yul\":11284:11319   */\n      swap1\n      pop\n        /* \"#utility.yul\":11256:11333   */\n    tag_218:\n        /* \"#utility.yul\":11359:11426   */\n      tag_219\n        /* \"#utility.yul\":11419:11425   */\n      dup6\n        /* \"#utility.yul\":11412:11417   */\n      dup3\n        /* \"#utility.yul\":11359:11426   */\n      tag_90\n      jump\t// in\n    tag_219:\n        /* \"#utility.yul\":11353:11357   */\n      dup7\n        /* \"#utility.yul\":11346:11427   */\n      sstore\n        /* \"#utility.yul\":11215:11437   */\n      pop\n        /* \"#utility.yul\":10550:11437   */\n      jump(tag_216)\n        /* \"#utility.yul\":10580:11198   */\n    tag_217:\n        /* \"#utility.yul\":10632:10636   */\n      0x1f\n        /* \"#utility.yul\":10628:10637   */\n      not\n        /* \"#utility.yul\":10620:10626   */\n      dup5\n        /* \"#utility.yul\":10616:10638   */\n      and\n        /* \"#utility.yul\":10666:10703   */\n      tag_220\n        /* \"#utility.yul\":10698:10702   */\n      dup7\n        /* \"#utility.yul\":10666:10703   */\n      tag_76\n      jump\t// in\n    tag_220:\n        /* \"#utility.yul\":10725:10726   */\n      0x00\n        /* \"#utility.yul\":10739:10947   */\n    tag_221:\n        /* \"#utility.yul\":10753:10760   */\n      dup3\n        /* \"#utility.yul\":10750:10751   */\n      dup2\n        /* \"#utility.yul\":10747:10761   */\n      lt\n        /* \"#utility.yul\":10739:10947   */\n      iszero\n      tag_223\n      jumpi\n        /* \"#utility.yul\":10832:10841   */\n      dup5\n        /* \"#utility.yul\":10827:10830   */\n      dup10\n        /* \"#utility.yul\":10823:10842   */\n      add\n        /* \"#utility.yul\":10817:10843   */\n      mload\n        /* \"#utility.yul\":10809:10815   */\n      dup3\n        /* \"#utility.yul\":10802:10844   */\n      sstore\n        /* \"#utility.yul\":10883:10884   */\n      0x01\n        /* \"#utility.yul\":10875:10881   */\n      dup3\n        /* \"#utility.yul\":10871:10885   */\n      add\n        /* \"#utility.yul\":10861:10885   */\n      swap2\n      pop\n        /* \"#utility.yul\":10930:10932   */\n      0x20\n        /* \"#utility.yul\":10919:10928   */\n      dup6\n        /* \"#utility.yul\":10915:10933   */\n      add\n        /* \"#utility.yul\":10902:10933   */\n      swap5\n      pop\n        /* \"#utility.yul\":10776:10780   */\n      0x20\n        /* \"#utility.yul\":10773:10774   */\n      dup2\n        /* \"#utility.yul\":10769:10781   */\n      add\n        /* \"#utility.yul\":10764:10781   */\n      swap1\n      pop\n        /* \"#utility.yul\":10739:10947   */\n      jump(tag_221)\n    tag_223:\n        /* \"#utility.yul\":10975:10981   */\n      dup7\n        /* \"#utility.yul\":10966:10973   */\n      dup4\n        /* \"#utility.yul\":10963:10982   */\n      lt\n        /* \"#utility.yul\":10960:11139   */\n      iszero\n      tag_224\n      jumpi\n        /* \"#utility.yul\":11033:11042   */\n      dup5\n        /* \"#utility.yul\":11028:11031   */\n      dup10\n        /* \"#utility.yul\":11024:11043   */\n      add\n        /* \"#utility.yul\":11018:11044   */\n      mload\n        /* \"#utility.yul\":11076:11124   */\n      tag_225\n        /* \"#utility.yul\":11118:11122   */\n      0x1f\n        /* \"#utility.yul\":11110:11116   */\n      dup10\n        /* \"#utility.yul\":11106:11123   */\n      and\n        /* \"#utility.yul\":11095:11104   */\n      dup3\n        /* \"#utility.yul\":11076:11124   */\n      tag_89\n      jump\t// in\n    tag_225:\n        /* \"#utility.yul\":11068:11074   */\n      dup4\n        /* \"#utility.yul\":11061:11125   */\n      sstore\n        /* \"#utility.yul\":10983:11139   */\n      pop\n        /* \"#utility.yul\":10960:11139   */\n    tag_224:\n        /* \"#utility.yul\":11185:11186   */\n      0x01\n        /* \"#utility.yul\":11181:11182   */\n      0x02\n        /* \"#utility.yul\":11173:11179   */\n      dup9\n        /* \"#utility.yul\":11169:11183   */\n      mul\n        /* \"#utility.yul\":11165:11187   */\n      add\n        /* \"#utility.yul\":11159:11163   */\n      dup9\n        /* \"#utility.yul\":11152:11188   */\n      sstore\n        /* \"#utility.yul\":10587:11198   */\n      pop\n      pop\n      pop\n        /* \"#utility.yul\":10550:11437   */\n    tag_216:\n      pop\n        /* \"#utility.yul\":10140:11443   */\n      pop\n      pop\n      pop\n        /* \"#utility.yul\":10048:11443   */\n      pop\n      pop\n      jump\t// out\n        /* \"#utility.yul\":11449:11597   */\n    tag_91:\n        /* \"#utility.yul\":11551:11562   */\n      0x00\n        /* \"#utility.yul\":11588:11591   */\n      dup2\n        /* \"#utility.yul\":11573:11591   */\n      swap1\n      pop\n        /* \"#utility.yul\":11449:11597   */\n      swap3\n      swap2\n      pop\n      pop\n      jump\t// out\n        /* \"#utility.yul\":11603:11993   */\n    tag_92:\n        /* \"#utility.yul\":11709:11712   */\n      0x00\n        /* \"#utility.yul\":11737:11776   */\n      tag_228\n        /* \"#utility.yul\":11770:11775   */\n      dup3\n        /* \"#utility.yul\":11737:11776   */\n      tag_58\n      jump\t// in\n    tag_228:\n        /* \"#utility.yul\":11792:11881   */\n      tag_229\n        /* \"#utility.yul\":11874:11880   */\n      dup2\n        /* \"#utility.yul\":11869:11872   */\n      dup6\n        /* \"#utility.yul\":11792:11881   */\n      tag_91\n      jump\t// in\n    tag_229:\n        /* \"#utility.yul\":11785:11881   */\n      swap4\n      pop\n        /* \"#utility.yul\":11890:11955   */\n      tag_230\n        /* \"#utility.yul\":11948:11954   */\n      dup2\n        /* \"#utility.yul\":11943:11946   */\n      dup6\n        /* \"#utility.yul\":11936:11940   */\n      0x20\n        /* \"#utility.yul\":11929:11934   */\n      dup7\n        /* \"#utility.yul\":11925:11941   */\n      add\n        /* \"#utility.yul\":11890:11955   */\n      tag_60\n      jump\t// in\n    tag_230:\n        /* \"#utility.yul\":11980:11986   */\n      dup1\n        /* \"#utility.yul\":11975:11978   */\n      dup5\n        /* \"#utility.yul\":11971:11987   */\n      add\n        /* \"#utility.yul\":11964:11987   */\n      swap2\n      pop\n        /* \"#utility.yul\":11713:11993   */\n      pop\n        /* \"#utility.yul\":11603:11993   */\n      swap3\n      swap2\n      pop\n      pop\n      jump\t// out\n        /* \"#utility.yul\":11999:12274   */\n    tag_50:\n        /* \"#utility.yul\":12131:12134   */\n      0x00\n        /* \"#utility.yul\":12153:12248   */\n      tag_232\n        /* \"#utility.yul\":12244:12247   */\n      dup3\n        /* \"#utility.yul\":12235:12241   */\n      dup5\n        /* \"#utility.yul\":12153:12248   */\n      tag_92\n      jump\t// in\n    tag_232:\n        /* \"#utility.yul\":12146:12248   */\n      swap2\n      pop\n        /* \"#utility.yul\":12265:12268   */\n      dup2\n        /* \"#utility.yul\":12258:12268   */\n      swap1\n      pop\n        /* \"#utility.yul\":11999:12274   */\n      swap3\n      swap2\n      pop\n      pop\n      jump\t// out\n\n    auxdata: 0xa2646970667358221220eb6d728d9b9bc7a5d6b849c651275d86b2b3e574c9325d682f7bb04440ec8a3a64736f6c634300081e0033\n}\n",
				"bytecode": {
					"linkReferences": {},
					"object": "6080604052348015600e575f5ffd5b506109c18061001c5f395ff3fe608060405234801561000f575f5ffd5b5060043610610060575f3560e01c80632e64cec1146100645780632ebce631146100825780636057361d146100b35780638bab8dd5146100cf5780638da5cb5b146100ff578063e1b3202a1461011d575b5f5ffd5b61006c610139565b604051610079919061032d565b60405180910390f35b61009c60048036038101906100979190610381565b610141565b6040516100aa92919061041c565b60405180910390f35b6100cd60048036038101906100c89190610381565b6101f6565b005b6100e960048036038101906100e49190610576565b61023f565b6040516100f6919061032d565b60405180910390f35b61010761026c565b60405161011491906105fc565b60405180910390f35b61013760048036038101906101329190610615565b610291565b005b5f5f54905090565b60028181548110610150575f80fd5b905f5260205f2090600202015f91509050805f01805461016f9061069c565b80601f016020809104026020016040519081016040528092919081815260200182805461019b9061069c565b80156101e65780601f106101bd576101008083540402835291602001916101e6565b820191905f5260205f20905b8154815290600101906020018083116101c957829003601f168201915b5050505050908060010154905082565b805f819055503360015f6101000a81548173ffffffffffffffffffffffffffffffffffffffff021916908373ffffffffffffffffffffffffffffffffffffffff16021790555050565b6003818051602081018201805184825260208301602085012081835280955050505050505f915090505481565b60015f9054906101000a900473ffffffffffffffffffffffffffffffffffffffff1681565b6002604051806040016040528084815260200183815250908060018154018082558091505060019003905f5260205f2090600202015f909190919091505f820151815f0190816102e1919061086c565b50602082015181600101555050806003836040516102ff9190610975565b9081526020016040518091039020819055505050565b5f819050919050565b61032781610315565b82525050565b5f6020820190506103405f83018461031e565b92915050565b5f604051905090565b5f5ffd5b5f5ffd5b61036081610315565b811461036a575f5ffd5b50565b5f8135905061037b81610357565b92915050565b5f602082840312156103965761039561034f565b5b5f6103a38482850161036d565b91505092915050565b5f81519050919050565b5f82825260208201905092915050565b8281835e5f83830152505050565b5f601f19601f8301169050919050565b5f6103ee826103ac565b6103f881856103b6565b93506104088185602086016103c6565b610411816103d4565b840191505092915050565b5f6040820190508181035f83015261043481856103e4565b9050610443602083018461031e565b9392505050565b5f5ffd5b5f5ffd5b7f4e487b71000000000000000000000000000000000000000000000000000000005f52604160045260245ffd5b610488826103d4565b810181811067ffffffffffffffff821117156104a7576104a6610452565b5b80604052505050565b5f6104b9610346565b90506104c5828261047f565b919050565b5f67ffffffffffffffff8211156104e4576104e3610452565b5b6104ed826103d4565b9050602081019050919050565b828183375f83830152505050565b5f61051a610515846104ca565b6104b0565b9050828152602081018484840111156105365761053561044e565b5b6105418482856104fa565b509392505050565b5f82601f83011261055d5761055c61044a565b5b813561056d848260208601610508565b91505092915050565b5f6020828403121561058b5761058a61034f565b5b5f82013567ffffffffffffffff8111156105a8576105a7610353565b5b6105b484828501610549565b91505092915050565b5f73ffffffffffffffffffffffffffffffffffffffff82169050919050565b5f6105e6826105bd565b9050919050565b6105f6816105dc565b82525050565b5f60208201905061060f5f8301846105ed565b92915050565b5f5f6040838503121561062b5761062a61034f565b5b5f83013567ffffffffffffffff81111561064857610647610353565b5b61065485828601610549565b92505060206106658582860161036d565b9150509250929050565b7f4e487b71000000000000000000000000000000000000000000000000000000005f52602260045260245ffd5b5f60028204905060018216806106b357607f821691505b6020821081036106c6576106c561066f565b5b50919050565b5f819050815f5260205f209050919050565b5f6020601f8301049050919050565b5f82821b905092915050565b5f600883026107287fffffffffffffffffffffffffffffffffffffffffffffffffffffffffffffffff826106ed565b61073286836106ed565b95508019841693508086168417925050509392505050565b5f819050919050565b5f61076d61076861076384610315565b61074a565b610315565b9050919050565b5f819050919050565b61078683610753565b61079a61079282610774565b8484546106f9565b825550505050565b5f5f905090565b6107b16107a2565b6107bc81848461077d565b505050565b5b818110156107df576107d45f826107a9565b6001810190506107c2565b5050565b601f821115610824576107f5816106cc565b6107fe846106de565b8101602085101561080d578190505b610821610819856106de565b8301826107c1565b50505b505050565b5f82821c905092915050565b5f6108445f1984600802610829565b1980831691505092915050565b5f61085c8383610835565b9150826002028217905092915050565b610875826103ac565b67ffffffffffffffff81111561088e5761088d610452565b5b610898825461069c565b6108a38282856107e3565b5f60209050601f8311600181146108d4575f84156108c2578287015190505b6108cc8582610851565b865550610933565b601f1984166108e2866106cc565b5f5b82811015610909578489015182556001820191506020850194506020810190506108e4565b868310156109265784890151610922601f891682610835565b8355505b6001600288020188555050505b505050505050565b5f81905092915050565b5f61094f826103ac565b610959818561093b565b93506109698185602086016103c6565b80840191505092915050565b5f6109808284610945565b91508190509291505056fea2646970667358221220eb6d728d9b9bc7a5d6b849c651275d86b2b3e574c9325d682f7bb04440ec8a3a64736f6c634300081e0033",
					"opcodes": "PUSH1 0x80 PUSH1 0x40 MSTORE CALLVALUE DUP1 ISZERO PUSH1 0xE JUMPI PUSH0 PUSH0 REVERT JUMPDEST POP PUSH2 0x9C1 DUP1 PUSH2 0x1C PUSH0 CODECOPY PUSH0 RETURN INVALID PUSH1 0x80 PUSH1 0x40 MSTORE CALLVALUE DUP1 ISZERO PUSH2 0xF JUMPI PUSH0 PUSH0 REVERT JUMPDEST POP PUSH1 0x4 CALLDATASIZE LT PUSH2 0x60 JUMPI PUSH0 CALLDATALOAD PUSH1 0xE0 SHR DUP1 PUSH4 0x2E64CEC1 EQ PUSH2 0x64 JUMPI DUP1 PUSH4 0x2EBCE631 EQ PUSH2 0x82 JUMPI DUP1 PUSH4 0x6057361D EQ PUSH2 0xB3 JUMPI DUP1 PUSH4 0x8BAB8DD5 EQ PUSH2 0xCF JUMPI DUP1 PUSH4 0x8DA5CB5B EQ PUSH2 0xFF JUMPI DUP1 PUSH4 0xE1B3202A EQ PUSH2 0x11D JUMPI JUMPDEST PUSH0 PUSH0 REVERT JUMPDEST PUSH2 0x6C PUSH2 0x139 JUMP JUMPDEST PUSH1 0x40 MLOAD PUSH2 0x79 SWAP2 SWAP1 PUSH2 0x32D JUMP JUMPDEST PUSH1 0x40 MLOAD DUP1 SWAP2 SUB SWAP1 RETURN JUMPDEST PUSH2 0x9C PUSH1 0x4 DUP1 CALLDATASIZE SUB DUP2 ADD SWAP1 PUSH2 0x97 SWAP2 SWAP1 PUSH2 0x381 JUMP JUMPDEST PUSH2 0x141 JUMP JUMPDEST PUSH1 0x40 MLOAD PUSH2 0xAA SWAP3 SWAP2 SWAP1 PUSH2 0x41C JUMP JUMPDEST PUSH1 0x40 MLOAD DUP1 SWAP2 SUB SWAP1 RETURN JUMPDEST PUSH2 0xCD PUSH1 0x4 DUP1 CALLDATASIZE SUB DUP2 ADD SWAP1 PUSH2 0xC8 SWAP2 SWAP1 PUSH2 0x381 JUMP JUMPDEST PUSH2 0x1F6 JUMP JUMPDEST STOP JUMPDEST PUSH2 0xE9 PUSH1 0x4 DUP1 CALLDATASIZE SUB DUP2 ADD SWAP1 PUSH2 0xE4 SWAP2 SWAP1 PUSH2 0x576 JUMP JUMPDEST PUSH2 0x23F JUMP JUMPDEST PUSH1 0x40 MLOAD PUSH2 0xF6 SWAP2 SWAP1 PUSH2 0x32D JUMP JUMPDEST PUSH1 0x40 MLOAD DUP1 SWAP2 SUB SWAP1 RETURN JUMPDEST PUSH2 0x107 PUSH2 0x26C JUMP JUMPDEST PUSH1 0x40 MLOAD PUSH2 0x114 SWAP2 SWAP1 PUSH2 0x5FC JUMP JUMPDEST PUSH1 0x40 MLOAD DUP1 SWAP2 SUB SWAP1 RETURN JUMPDEST PUSH2 0x137 PUSH1 0x4 DUP1 CALLDATASIZE SUB DUP2 ADD SWAP1 PUSH2 0x132 SWAP2 SWAP1 PUSH2 0x615 JUMP JUMPDEST PUSH2 0x291 JUMP JUMPDEST STOP JUMPDEST PUSH0 PUSH0 SLOAD SWAP1 POP SWAP1 JUMP JUMPDEST PUSH1 0x2 DUP2 DUP2 SLOAD DUP2 LT PUSH2 0x150 JUMPI PUSH0 DUP1 REVERT JUMPDEST SWAP1 PUSH0 MSTORE PUSH1 0x20 PUSH0 KECCAK256 SWAP1 PUSH1 0x2 MUL ADD PUSH0 SWAP2 POP SWAP1 POP DUP1 PUSH0 ADD DUP1 SLOAD PUSH2 0x16F SWAP1 PUSH2 0x69C JUMP JUMPDEST DUP1 PUSH1 0x1F ADD PUSH1 0x20 DUP1 SWAP2 DIV MUL PUSH1 0x20 ADD PUSH1 0x40 MLOAD SWAP1 DUP2 ADD PUSH1 0x40 MSTORE DUP1 SWAP3 SWAP2 SWAP1 DUP2 DUP2 MSTORE PUSH1 0x20 ADD DUP3 DUP1 SLOAD PUSH2 0x19B SWAP1 PUSH2 0x69C JUMP JUMPDEST DUP1 ISZERO PUSH2 0x1E6 JUMPI DUP1 PUSH1 0x1F LT PUSH2 0x1BD JUMPI PUSH2 0x100 DUP1 DUP4 SLOAD DIV MUL DUP4 MSTORE SWAP2 PUSH1 0x20 ADD SWAP2 PUSH2 0x1E6 JUMP JUMPDEST DUP3 ADD SWAP2 SWAP1 PUSH0 MSTORE PUSH1 0x20 PUSH0 KECCAK256 SWAP1 JUMPDEST DUP2 SLOAD DUP2 MSTORE SWAP1 PUSH1 0x1 ADD SWAP1 PUSH1 0x20 ADD DUP1 DUP4 GT PUSH2 0x1C9 JUMPI DUP3 SWAP1 SUB PUSH1 0x1F AND DUP3 ADD SWAP2 JUMPDEST POP POP POP POP POP SWAP1 DUP1 PUSH1 0x1 ADD SLOAD SWAP1 POP DUP3 JUMP JUMPDEST DUP1 PUSH0 DUP2 SWAP1 SSTORE POP CALLER PUSH1 0x1 PUSH0 PUSH2 0x100 EXP DUP2 SLOAD DUP2 PUSH20 0xFFFFFFFFFFFFFFFFFFFFFFFFFFFFFFFFFFFFFFFF MUL NOT AND SWAP1 DUP4 PUSH20 0xFFFFFFFFFFFFFFFFFFFFFFFFFFFFFFFFFFFFFFFF AND MUL OR SWAP1 SSTORE POP POP JUMP JUMPDEST PUSH1 0x3 DUP2 DUP1 MLOAD PUSH1 0x20 DUP2 ADD DUP3 ADD DUP1 MLOAD DUP5 DUP3 MSTORE PUSH1 0x20 DUP4 ADD PUSH1 0x20 DUP6 ADD KECCAK256 DUP2 DUP4 MSTORE DUP1 SWAP6 POP POP POP POP POP POP PUSH0 SWAP2 POP SWAP1 POP SLOAD DUP2 JUMP JUMPDEST PUSH1 0x1 PUSH0 SWAP1 SLOAD SWAP1 PUSH2 0x100 EXP SWAP1 DIV PUSH20 0xFFFFFFFFFFFFFFFFFFFFFFFFFFFFFFFFFFFFFFFF AND DUP2 JUMP JUMPDEST PUSH1 0x2 PUSH1 0x40 MLOAD DUP1 PUSH1 0x40 ADD PUSH1 0x40 MSTORE DUP1 DUP5 DUP2 MSTORE PUSH1 0x20 ADD DUP4 DUP2 MSTORE POP SWAP1 DUP1 PUSH1 0x1 DUP2 SLOAD ADD DUP1 DUP3 SSTORE DUP1 SWAP2 POP POP PUSH1 0x1 SWAP1 SUB SWAP1 PUSH0 MSTORE PUSH1 0x20 PUSH0 KECCAK256 SWAP1 PUSH1 0x2 MUL ADD PUSH0 SWAP1 SWAP2 SWAP1 SWAP2 SWAP1 SWAP2 POP PUSH0 DUP3 ADD MLOAD DUP2 PUSH0 ADD SWAP1 DUP2 PUSH2 0x2E1 SWAP2 SWAP1 PUSH2 0x86C JUMP JUMPDEST POP PUSH1 0x20 DUP3 ADD MLOAD DUP2 PUSH1 0x1 ADD SSTORE POP POP DUP1 PUSH1 0x3 DUP4 PUSH1 0x40 MLOAD PUSH2 0x2FF SWAP2 SWAP1 PUSH2 0x975 JUMP JUMPDEST SWAP1 DUP2 MSTORE PUSH1 0x20 ADD PUSH1 0x40 MLOAD DUP1 SWAP2 SUB SWAP1 KECCAK256 DUP2 SWAP1 SSTORE POP POP POP JUMP JUMPDEST PUSH0 DUP2 SWAP1 POP SWAP2 SWAP1 POP JUMP JUMPDEST PUSH2 0x327 DUP2 PUSH2 0x315 JUMP JUMPDEST DUP3 MSTORE POP POP JUMP JUMPDEST PUSH0 PUSH1 0x20 DUP3 ADD SWAP1 POP PUSH2 0x340 PUSH0 DUP4 ADD DUP5 PUSH2 0x31E JUMP JUMPDEST SWAP3 SWAP2 POP POP JUMP JUMPDEST PUSH0 PUSH1 0x40 MLOAD SWAP1 POP SWAP1 JUMP JUMPDEST PUSH0 PUSH0 REVERT JUMPDEST PUSH0 PUSH0 REVERT JUMPDEST PUSH2 0x360 DUP2 PUSH2 0x315 JUMP JUMPDEST DUP2 EQ PUSH2 0x36A JUMPI PUSH0 PUSH0 REVERT JUMPDEST POP JUMP JUMPDEST PUSH0 DUP2 CALLDATALOAD SWAP1 POP PUSH2 0x37B DUP2 PUSH2 0x357 JUMP JUMPDEST SWAP3 SWAP2 POP POP JUMP JUMPDEST PUSH0 PUSH1 0x20 DUP3 DUP5 SUB SLT ISZERO PUSH2 0x396 JUMPI PUSH2 0x395 PUSH2 0x34F JUMP JUMPDEST JUMPDEST PUSH0 PUSH2 0x3A3 DUP5 DUP3 DUP6 ADD PUSH2 0x36D JUMP JUMPDEST SWAP2 POP POP SWAP3 SWAP2 POP POP JUMP JUMPDEST PUSH0 DUP2 MLOAD SWAP1 POP SWAP2 SWAP1 POP JUMP JUMPDEST PUSH0 DUP3 DUP3 MSTORE PUSH1 0x20 DUP3 ADD SWAP1 POP SWAP3 SWAP2 POP POP JUMP JUMPDEST DUP3 DUP2 DUP4 MCOPY PUSH0 DUP4 DUP4 ADD MSTORE POP POP POP JUMP JUMPDEST PUSH0 PUSH1 0x1F NOT PUSH1 0x1F DUP4 ADD AND SWAP1 POP SWAP2 SWAP1 POP JUMP JUMPDEST PUSH0 PUSH2 0x3EE DUP3 PUSH2 0x3AC JUMP JUMPDEST PUSH2 0x3F8 DUP2 DUP6 PUSH2 0x3B6 JUMP JUMPDEST SWAP4 POP PUSH2 0x408 DUP2 DUP6 PUSH1 0x20 DUP7 ADD PUSH2 0x3C6 JUMP JUMPDEST PUSH2 0x411 DUP2 PUSH2 0x3D4 JUMP JUMPDEST DUP5 ADD SWAP2 POP POP SWAP3 SWAP2 POP POP JUMP JUMPDEST PUSH0 PUSH1 0x40 DUP3 ADD SWAP1 POP DUP2 DUP2 SUB PUSH0 DUP4 ADD MSTORE PUSH2 0x434 DUP2 DUP6 PUSH2 0x3E4 JUMP JUMPDEST SWAP1 POP PUSH2 0x443 PUSH1 0x20 DUP4 ADD DUP5 PUSH2 0x31E JUMP JUMPDEST SWAP4 SWAP3 POP POP POP JUMP JUMPDEST PUSH0 PUSH0 REVERT JUMPDEST PUSH0 PUSH0 REVERT JUMPDEST PUSH32 0x4E487B7100000000000000000000000000000000000000000000000000000000 PUSH0 MSTORE PUSH1 0x41 PUSH1 0x4 MSTORE PUSH1 0x24 PUSH0 REVERT JUMPDEST PUSH2 0x488 DUP3 PUSH2 0x3D4 JUMP JUMPDEST DUP2 ADD DUP2 DUP2 LT PUSH8 0xFFFFFFFFFFFFFFFF DUP3 GT OR ISZERO PUSH2 0x4A7 JUMPI PUSH2 0x4A6 PUSH2 0x452 JUMP JUMPDEST JUMPDEST DUP1 PUSH1 0x40 MSTORE POP POP POP JUMP JUMPDEST PUSH0 PUSH2 0x4B9 PUSH2 0x346 JUMP JUMPDEST SWAP1 POP PUSH2 0x4C5 DUP3 DUP3 PUSH2 0x47F JUMP JUMPDEST SWAP2 SWAP1 POP JUMP JUMPDEST PUSH0 PUSH8 0xFFFFFFFFFFFFFFFF DUP3 GT ISZERO PUSH2 0x4E4 JUMPI PUSH2 0x4E3 PUSH2 0x452 JUMP JUMPDEST JUMPDEST PUSH2 0x4ED DUP3 PUSH2 0x3D4 JUMP JUMPDEST SWAP1 POP PUSH1 0x20 DUP2 ADD SWAP1 POP SWAP2 SWAP1 POP JUMP JUMPDEST DUP3 DUP2 DUP4 CALLDATACOPY PUSH0 DUP4 DUP4 ADD MSTORE POP POP POP JUMP JUMPDEST PUSH0 PUSH2 0x51A PUSH2 0x515 DUP5 PUSH2 0x4CA JUMP JUMPDEST PUSH2 0x4B0 JUMP JUMPDEST SWAP1 POP DUP3 DUP2 MSTORE PUSH1 0x20 DUP2 ADD DUP5 DUP5 DUP5 ADD GT ISZERO PUSH2 0x536 JUMPI PUSH2 0x535 PUSH2 0x44E JUMP JUMPDEST JUMPDEST PUSH2 0x541 DUP5 DUP3 DUP6 PUSH2 0x4FA JUMP JUMPDEST POP SWAP4 SWAP3 POP POP POP JUMP JUMPDEST PUSH0 DUP3 PUSH1 0x1F DUP4 ADD SLT PUSH2 0x55D JUMPI PUSH2 0x55C PUSH2 0x44A JUMP JUMPDEST JUMPDEST DUP2 CALLDATALOAD PUSH2 0x56D DUP5 DUP3 PUSH1 0x20 DUP7 ADD PUSH2 0x508 JUMP JUMPDEST SWAP2 POP POP SWAP3 SWAP2 POP POP JUMP JUMPDEST PUSH0 PUSH1 0x20 DUP3 DUP5 SUB SLT ISZERO PUSH2 0x58B JUMPI PUSH2 0x58A PUSH2 0x34F JUMP JUMPDEST JUMPDEST PUSH0 DUP3 ADD CALLDATALOAD PUSH8 0xFFFFFFFFFFFFFFFF DUP2 GT ISZERO PUSH2 0x5A8 JUMPI PUSH2 0x5A7 PUSH2 0x353 JUMP JUMPDEST JUMPDEST PUSH2 0x5B4 DUP5 DUP3 DUP6 ADD PUSH2 0x549 JUMP JUMPDEST SWAP2 POP POP SWAP3 SWAP2 POP POP JUMP JUMPDEST PUSH0 PUSH20 0xFFFFFFFFFFFFFFFFFFFFFFFFFFFFFFFFFFFFFFFF DUP3 AND SWAP1 POP SWAP2 SWAP1 POP JUMP JUMPDEST PUSH0 PUSH2 0x5E6 DUP3 PUSH2 0x5BD JUMP JUMPDEST SWAP1 POP SWAP2 SWAP1 POP JUMP JUMPDEST PUSH2 0x5F6 DUP2 PUSH2 0x5DC JUMP JUMPDEST DUP3 MSTORE POP POP JUMP JUMPDEST PUSH0 PUSH1 0x20 DUP3 ADD SWAP1 POP PUSH2 0x60F PUSH0 DUP4 ADD DUP5 PUSH2 0x5ED JUMP JUMPDEST SWAP3 SWAP2 POP POP JUMP JUMPDEST PUSH0 PUSH0 PUSH1 0x40 DUP4 DUP6 SUB SLT ISZERO PUSH2 0x62B JUMPI PUSH2 0x62A PUSH2 0x34F JUMP JUMPDEST JUMPDEST PUSH0 DUP4 ADD CALLDATALOAD PUSH8 0xFFFFFFFFFFFFFFFF DUP2 GT ISZERO PUSH2 0x648 JUMPI PUSH2 0x647 PUSH2 0x353 JUMP JUMPDEST JUMPDEST PUSH2 0x654 DUP6 DUP3 DUP7 ADD PUSH2 0x549 JUMP JUMPDEST SWAP3 POP POP PUSH1 0x20 PUSH2 0x665 DUP6 DUP3 DUP7 ADD PUSH2 0x36D JUMP JUMPDEST SWAP2 POP POP SWAP3 POP SWAP3 SWAP1 POP JUMP JUMPDEST PUSH32 0x4E487B7100000000000000000000000000000000000000000000000000000000 PUSH0 MSTORE PUSH1 0x22 PUSH1 0x4 MSTORE PUSH1 0x24 PUSH0 REVERT JUMPDEST PUSH0 PUSH1 0x2 DUP3 DIV SWAP1 POP PUSH1 0x1 DUP3 AND DUP1 PUSH2 0x6B3 JUMPI PUSH1 0x7F DUP3 AND SWAP2 POP JUMPDEST PUSH1 0x20 DUP3 LT DUP2 SUB PUSH2 0x6C6 JUMPI PUSH2 0x6C5 PUSH2 0x66F JUMP JUMPDEST JUMPDEST POP SWAP2 SWAP1 POP JUMP JUMPDEST PUSH0 DUP2 SWAP1 POP DUP2 PUSH0 MSTORE PUSH1 0x20 PUSH0 KECCAK256 SWAP1 POP SWAP2 SWAP1 POP JUMP JUMPDEST PUSH0 PUSH1 0x20 PUSH1 0x1F DUP4 ADD DIV SWAP1 POP SWAP2 SWAP1 POP JUMP JUMPDEST PUSH0 DUP3 DUP3 SHL SWAP1 POP SWAP3 SWAP2 POP POP JUMP JUMPDEST PUSH0 PUSH1 0x8 DUP4 MUL PUSH2 0x728 PUSH32 0xFFFFFFFFFFFFFFFFFFFFFFFFFFFFFFFFFFFFFFFFFFFFFFFFFFFFFFFFFFFFFFFF DUP3 PUSH2 0x6ED JUMP JUMPDEST PUSH2 0x732 DUP7 DUP4 PUSH2 0x6ED JUMP JUMPDEST SWAP6 POP DUP1 NOT DUP5 AND SWAP4 POP DUP1 DUP7 AND DUP5 OR SWAP3 POP POP POP SWAP4 SWAP3 POP POP POP JUMP JUMPDEST PUSH0 DUP2 SWAP1 POP SWAP2 SWAP1 POP JUMP JUMPDEST PUSH0 PUSH2 0x76D PUSH2 0x768 PUSH2 0x763 DUP5 PUSH2 0x315 JUMP JUMPDEST PUSH2 0x74A JUMP JUMPDEST PUSH2 0x315 JUMP JUMPDEST SWAP1 POP SWAP2 SWAP1 POP JUMP JUMPDEST PUSH0 DUP2 SWAP1 POP SWAP2 SWAP1 POP JUMP JUMPDEST PUSH2 0x786 DUP4 PUSH2 0x753 JUMP JUMPDEST PUSH2 0x79A PUSH2 0x792 DUP3 PUSH2 0x774 JUMP JUMPDEST DUP5 DUP5 SLOAD PUSH2 0x6F9 JUMP JUMPDEST DUP3 SSTORE POP POP POP POP JUMP JUMPDEST PUSH0 PUSH0 SWAP1 POP SWAP1 JUMP JUMPDEST PUSH2 0x7B1 PUSH2 0x7A2 JUMP JUMPDEST PUSH2 0x7BC DUP2 DUP5 DUP5 PUSH2 0x77D JUMP JUMPDEST POP POP POP JUMP JUMPDEST JUMPDEST DUP2 DUP2 LT ISZERO PUSH2 0x7DF JUMPI PUSH2 0x7D4 PUSH0 DUP3 PUSH2 0x7A9 JUMP JUMPDEST PUSH1 0x1 DUP2 ADD SWAP1 POP PUSH2 0x7C2 JUMP JUMPDEST POP POP JUMP JUMPDEST PUSH1 0x1F DUP3 GT ISZERO PUSH2 0x824 JUMPI PUSH2 0x7F5 DUP2 PUSH2 0x6CC JUMP JUMPDEST PUSH2 0x7FE DUP5 PUSH2 0x6DE JUMP JUMPDEST DUP2 ADD PUSH1 0x20 DUP6 LT ISZERO PUSH2 0x80D JUMPI DUP2 SWAP1 POP JUMPDEST PUSH2 0x821 PUSH2 0x819 DUP6 PUSH2 0x6DE JUMP JUMPDEST DUP4 ADD DUP3 PUSH2 0x7C1 JUMP JUMPDEST POP POP JUMPDEST POP POP POP JUMP JUMPDEST PUSH0 DUP3 DUP3 SHR SWAP1 POP SWAP3 SWAP2 POP POP JUMP JUMPDEST PUSH0 PUSH2 0x844 PUSH0 NOT DUP5 PUSH1 0x8 MUL PUSH2 0x829 JUMP JUMPDEST NOT DUP1 DUP4 AND SWAP2 POP POP SWAP3 SWAP2 POP POP JUMP JUMPDEST PUSH0 PUSH2 0x85C DUP4 DUP4 PUSH2 0x835 JUMP JUMPDEST SWAP2 POP DUP3 PUSH1 0x2 MUL DUP3 OR SWAP1 POP SWAP3 SWAP2 POP POP JUMP JUMPDEST PUSH2 0x875 DUP3 PUSH2 0x3AC JUMP JUMPDEST PUSH8 0xFFFFFFFFFFFFFFFF DUP2 GT ISZERO PUSH2 0x88E JUMPI PUSH2 0x88D PUSH2 0x452 JUMP JUMPDEST JUMPDEST PUSH2 0x898 DUP3 SLOAD PUSH2 0x69C JUMP JUMPDEST PUSH2 0x8A3 DUP3 DUP3 DUP6 PUSH2 0x7E3 JUMP JUMPDEST PUSH0 PUSH1 0x20 SWAP1 POP PUSH1 0x1F DUP4 GT PUSH1 0x1 DUP2 EQ PUSH2 0x8D4 JUMPI PUSH0 DUP5 ISZERO PUSH2 0x8C2 JUMPI DUP3 DUP8 ADD MLOAD SWAP1 POP JUMPDEST PUSH2 0x8CC DUP6 DUP3 PUSH2 0x851 JUMP JUMPDEST DUP7 SSTORE POP PUSH2 0x933 JUMP JUMPDEST PUSH1 0x1F NOT DUP5 AND PUSH2 0x8E2 DUP7 PUSH2 0x6CC JUMP JUMPDEST PUSH0 JUMPDEST DUP3 DUP2 LT ISZERO PUSH2 0x909 JUMPI DUP5 DUP10 ADD MLOAD DUP3 SSTORE PUSH1 0x1 DUP3 ADD SWAP2 POP PUSH1 0x20 DUP6 ADD SWAP5 POP PUSH1 0x20 DUP2 ADD SWAP1 POP PUSH2 0x8E4 JUMP JUMPDEST DUP7 DUP4 LT ISZERO PUSH2 0x926 JUMPI DUP5 DUP10 ADD MLOAD PUSH2 0x922 PUSH1 0x1F DUP10 AND DUP3 PUSH2 0x835 JUMP JUMPDEST DUP4 SSTORE POP JUMPDEST PUSH1 0x1 PUSH1 0x2 DUP9 MUL ADD DUP9 SSTORE POP POP POP JUMPDEST POP POP POP POP POP POP JUMP JUMPDEST PUSH0 DUP2 SWAP1 POP SWAP3 SWAP2 POP POP JUMP JUMPDEST PUSH0 PUSH2 0x94F DUP3 PUSH2 0x3AC JUMP JUMPDEST PUSH2 0x959 DUP2 DUP6 PUSH2 0x93B JUMP JUMPDEST SWAP4 POP PUSH2 0x969 DUP2 DUP6 PUSH1 0x20 DUP7 ADD PUSH2 0x3C6 JUMP JUMPDEST DUP1 DUP5 ADD SWAP2 POP POP SWAP3 SWAP2 POP POP JUMP JUMPDEST PUSH0 PUSH2 0x980 DUP3 DUP5 PUSH2 0x945 JUMP JUMPDEST SWAP2 POP DUP2 SWAP1 POP SWAP3 SWAP2 POP POP JUMP INVALID LOG2 PUSH5 0x6970667358 0x22 SLT KECCAK256 0xEB PUSH14 0x728D9B9BC7A5D6B849C651275D86 0xB2 0xB3 JUMPF 0x74C9 ORIGIN TSTORE PUSH9 0x2F7BB04440EC8A3A64 PUSH20 0x6F6C634300081E00330000000000000000000000 "
				},
				"gasEstimates": {
					"creation": {
						"codeDepositCost": "499400",
						"executionCost": "535",
						"totalCost": "499935"
					},
					"external": {
						"addperson(string,uint256)": "infinite",
						"listOfPeople(uint256)": "infinite",
						"nameToFavoriteNumber(string)": "infinite",
						"owner()": "2574",
						"retrieve()": "2409",
						"store(uint256)": "46801"
					}
				},
				"methodIdentifiers": {
					"addperson(string,uint256)": "e1b3202a",
					"listOfPeople(uint256)": "2ebce631",
					"nameToFavoriteNumber(string)": "8bab8dd5",
					"owner()": "8da5cb5b",
					"retrieve()": "2e64cec1",
					"store(uint256)": "6057361d"
				}
			},
			"storageLayout": {
				"storage": [
					{
						"astId": 3,
						"contract": "Solidity/SimpleStore.sol:simpleStore",
						"label": "MyFavoriteNumber",
						"offset": 0,
						"slot": "0",
						"type": "t_uint256"
					},
					{
						"astId": 5,
						"contract": "Solidity/SimpleStore.sol:simpleStore",
						"label": "owner",
						"offset": 0,
						"slot": "1",
						"type": "t_address"
					},
					{
						"astId": 9,
						"contract": "Solidity/SimpleStore.sol:simpleStore",
						"label": "listOfPeople",
						"offset": 0,
						"slot": "2",
						"type": "t_array(t_struct(People)18_storage)dyn_storage"
					},
					{
						"astId": 13,
						"contract": "Solidity/SimpleStore.sol:simpleStore",
						"label": "nameToFavoriteNumber",
						"offset": 0,
						"slot": "3",
						"type": "t_mapping(t_string_memory_ptr,t_uint256)"
					}
				],
				"types": {
					"t_address": {
						"encoding": "inplace",
						"label": "address",
						"numberOfBytes": "20"
					},
					"t_array(t_struct(People)18_storage)dyn_storage": {
						"base": "t_struct(People)18_storage",
						"encoding": "dynamic_array",
						"label": "struct simpleStore.People[]",
						"numberOfBytes": "32"
					},
					"t_mapping(t_string_memory_ptr,t_uint256)": {
						"encoding": "mapping",
						"key": "t_string_memory_ptr",
						"label": "mapping(string => uint256)",
						"numberOfBytes": "32",
						"value": "t_uint256"
					},
					"t_string_memory_ptr": {
						"encoding": "bytes",
						"label": "string",
						"numberOfBytes": "32"
					},
					"t_string_storage": {
						"encoding": "bytes",
						"label": "string",
						"numberOfBytes": "32"
					},
					"t_struct(People)18_storage": {
						"encoding": "inplace",
						"label": "struct simpleStore.People",
						"members": [
							{
								"astId": 15,
								"contract": "Solidity/SimpleStore.sol:simpleStore",
								"label": "name",
								"offset": 0,
								"slot": "0",
								"type": "t_string_storage"
							},
							{
								"astId": 17,
								"contract": "Solidity/SimpleStore.sol:simpleStore",
								"label": "favoriteNumber",
								"offset": 0,
								"slot": "1",
								"type": "t_uint256"
							}
						],
						"numberOfBytes": "64"
					},
					"t_uint256": {
						"encoding": "inplace",
						"label": "uint256",
						"numberOfBytes": "32"
					}
				}
			},
			"userdoc": {
				"kind": "user",
				"methods": {},
				"version": 1
			}
		}
	}
}