{
	"storageFactory/AddFiveNumber.sol": {
		"AddFiveNumber": {
			"abi": [
				{
					"inputs": [
						{
							"internalType": "string",
							"name": "_name",
							"type": "string"
						},
						{
							"internalType": "uint256",
							"name": "_favoriteNumber",
							"type": "uint256"
						}
					],
					"name": "addperson",
					"outputs": [],
					"stateMutability": "nonpayable",
					"type": "function"
				},
				{
					"inputs": [
						{
							"internalType": "uint256",
							"name": "",
							"type": "uint256"
						}
					],
					"name": "listOfPeople",
					"outputs": [
						{
							"internalType": "string",
							"name": "name",
							"type": "string"
						},
						{
							"internalType": "uint256",
							"name": "favoriteNumber",
							"type": "uint256"
						}
					],
					"stateMutability": "view",
					"type": "function"
				},
				{
					"inputs": [
						{
							"internalType": "string",
							"name": "",
							"type": "string"
						}
					],
					"name": "nameToFavoriteNumber",
					"outputs": [
						{
							"internalType": "uint256",
							"name": "",
							"type": "uint256"
						}
					],
					"stateMutability": "view",
					"type": "function"
				},
				{
					"inputs": [],
					"name": "owner",
					"outputs": [
						{
							"internalType": "address",
							"name": "",
							"type": "address"
						}
					],
					"stateMutability": "view",
					"type": "function"
				},
				{
					"inputs": [],
					"name": "retrieve",
					"outputs": [
						{
							"internalType": "uint256",
							"name": "",
							"type": "uint256"
						}
					],
					"stateMutability": "view",
					"type": "function"
				},
				{
					"inputs": [
						{
							"internalType": "uint256",
							"name": "_newNumber",
							"type": "uint256"
						}
					],
					"name": "store",
					"outputs": [],
					"stateMutability": "nonpayable",
					"type": "function"
				}
			],
			"devdoc": {
				"kind": "dev",
				"methods": {},
				"version": 1
			},
			"evm": {
				"assembly": "    /* \"storageFactory/AddFiveNumber.sol\":107:261  contract AddFiveNumber is SimpleStore{... */\n  mstore(0x40, 0x80)\n  callvalue\n  dup1\n  iszero\n  tag_1\n  jumpi\n  revert(0x00, 0x00)\ntag_1:\n  pop\n  dataSize(sub_0)\n  dup1\n  dataOffset(sub_0)\n  0x00\n  codecopy\n  0x00\n  return\nstop\n\nsub_0: assembly {\n        /* \"storageFactory/AddFiveNumber.sol\":107:261  contract AddFiveNumber is SimpleStore{... */\n      mstore(0x40, 0x80)\n      callvalue\n      dup1\n      iszero\n      tag_1\n      jumpi\n      revert(0x00, 0x00)\n    tag_1:\n      pop\n      jumpi(tag_2, lt(calldatasize, 0x04))\n      shr(0xe0, calldataload(0x00))\n      dup1\n      0x2e64cec1\n      eq\n      tag_3\n      jumpi\n      dup1\n      0x2ebce631\n      eq\n      tag_4\n      jumpi\n      dup1\n      0x6057361d\n      eq\n      tag_5\n      jumpi\n      dup1\n      0x8bab8dd5\n      eq\n      tag_6\n      jumpi\n      dup1\n      0x8da5cb5b\n      eq\n      tag_7\n      jumpi\n      dup1\n      0xe1b3202a\n      eq\n      tag_8\n      jumpi\n    tag_2:\n      revert(0x00, 0x00)\n        /* \"storageFactory/SimpleStore.sol\":456:545  function retrieve() public view returns (uint256){... */\n    tag_3:\n      tag_9\n      tag_10\n      jump\t// in\n    tag_9:\n      mload(0x40)\n      tag_11\n      swap2\n      swap1\n      tag_12\n      jump\t// in\n    tag_11:\n      mload(0x40)\n      dup1\n      swap2\n      sub\n      swap1\n      return\n        /* \"storageFactory/SimpleStore.sol\":143:171  People[] public listOfPeople */\n    tag_4:\n      tag_13\n      0x04\n      dup1\n      calldatasize\n      sub\n      dup2\n      add\n      swap1\n      tag_14\n      swap2\n      swap1\n      tag_15\n      jump\t// in\n    tag_14:\n      tag_16\n      jump\t// in\n    tag_13:\n      mload(0x40)\n      tag_17\n      swap3\n      swap2\n      swap1\n      tag_18\n      jump\t// in\n    tag_17:\n      mload(0x40)\n      dup1\n      swap2\n      sub\n      swap1\n      return\n        /* \"storageFactory/AddFiveNumber.sol\":150:259  function store(uint256 _newNumber) public override{... */\n    tag_5:\n      tag_19\n      0x04\n      dup1\n      calldatasize\n      sub\n      dup2\n      add\n      swap1\n      tag_20\n      swap2\n      swap1\n      tag_15\n      jump\t// in\n    tag_20:\n      tag_21\n      jump\t// in\n    tag_19:\n      stop\n        /* \"storageFactory/SimpleStore.sol\":178:230  mapping(string=>uint256) public nameToFavoriteNumber */\n    tag_6:\n      tag_22\n      0x04\n      dup1\n      calldatasize\n      sub\n      dup2\n      add\n      swap1\n      tag_23\n      swap2\n      swap1\n      tag_24\n      jump\t// in\n    tag_23:\n      tag_25\n      jump\t// in\n    tag_22:\n      mload(0x40)\n      tag_26\n      swap2\n      swap1\n      tag_12\n      jump\t// in\n    tag_26:\n      mload(0x40)\n      dup1\n      swap2\n      sub\n      swap1\n      return\n        /* \"storageFactory/SimpleStore.sol\":116:136  address public owner */\n    tag_7:\n      tag_27\n      tag_28\n      jump\t// in\n    tag_27:\n      mload(0x40)\n      tag_29\n      swap2\n      swap1\n      tag_30\n      jump\t// in\n    tag_29:\n      mload(0x40)\n      dup1\n      swap2\n      sub\n      swap1\n      return\n        /* \"storageFactory/SimpleStore.sol\":551:741  function addperson(string memory _name,uint256 _favoriteNumber) public{... */\n    tag_8:\n      tag_31\n      0x04\n      dup1\n      calldatasize\n      sub\n      dup2\n      add\n      swap1\n      tag_32\n      swap2\n      swap1\n      tag_33\n      jump\t// in\n    tag_32:\n      tag_34\n      jump\t// in\n    tag_31:\n      stop\n        /* \"storageFactory/SimpleStore.sol\":456:545  function retrieve() public view returns (uint256){... */\n    tag_10:\n        /* \"storageFactory/SimpleStore.sol\":497:504  uint256 */\n      0x00\n        /* \"storageFactory/SimpleStore.sol\":522:538  MyFavoriteNumber */\n      sload(0x00)\n        /* \"storageFactory/SimpleStore.sol\":515:538  return MyFavoriteNumber */\n      swap1\n      pop\n        /* \"storageFactory/SimpleStore.sol\":456:545  function retrieve() public view returns (uint256){... */\n      swap1\n      jump\t// out\n        /* \"storageFactory/SimpleStore.sol\":143:171  People[] public listOfPeople */\n    tag_16:\n      0x02\n      dup2\n      dup2\n      sload\n      dup2\n      lt\n      tag_36\n      jumpi\n      0x00\n      dup1\n      revert\n    tag_36:\n      swap1\n      0x00\n      mstore\n      keccak256(0x00, 0x20)\n      swap1\n      0x02\n      mul\n      add\n      0x00\n      swap2\n      pop\n      swap1\n      pop\n      dup1\n      0x00\n      add\n      dup1\n      sload\n      tag_38\n      swap1\n      tag_39\n      jump\t// in\n    tag_38:\n      dup1\n      0x1f\n      add\n      0x20\n      dup1\n      swap2\n      div\n      mul\n      0x20\n      add\n      mload(0x40)\n      swap1\n      dup2\n      add\n      0x40\n      mstore\n      dup1\n      swap3\n      swap2\n      swap1\n      dup2\n      dup2\n      mstore\n      0x20\n      add\n      dup3\n      dup1\n      sload\n      tag_40\n      swap1\n      tag_39\n      jump\t// in\n    tag_40:\n      dup1\n      iszero\n      tag_41\n      jumpi\n      dup1\n      0x1f\n      lt\n      tag_42\n      jumpi\n      0x0100\n      dup1\n      dup4\n      sload\n      div\n      mul\n      dup4\n      mstore\n      swap2\n      0x20\n      add\n      swap2\n      jump(tag_41)\n    tag_42:\n      dup3\n      add\n      swap2\n      swap1\n      0x00\n      mstore\n      keccak256(0x00, 0x20)\n      swap1\n    tag_43:\n      dup2\n      sload\n      dup2\n      mstore\n      swap1\n      0x01\n      add\n      swap1\n      0x20\n      add\n      dup1\n      dup4\n      gt\n      tag_43\n      jumpi\n      dup3\n      swap1\n      sub\n      0x1f\n      and\n      dup3\n      add\n      swap2\n    tag_41:\n      pop\n      pop\n      pop\n      pop\n      pop\n      swap1\n      dup1\n      0x01\n      add\n      sload\n      swap1\n      pop\n      dup3\n      jump\t// out\n        /* \"storageFactory/AddFiveNumber.sol\":150:259  function store(uint256 _newNumber) public override{... */\n    tag_21:\n        /* \"storageFactory/AddFiveNumber.sol\":242:243  5 */\n      0x05\n        /* \"storageFactory/AddFiveNumber.sol\":229:239  _newNumber */\n      dup2\n        /* \"storageFactory/AddFiveNumber.sol\":229:243  _newNumber + 5 */\n      tag_45\n      swap2\n      swap1\n      tag_46\n      jump\t// in\n    tag_45:\n        /* \"storageFactory/AddFiveNumber.sol\":210:226  MyFavoriteNumber */\n      0x00\n        /* \"storageFactory/AddFiveNumber.sol\":210:243  MyFavoriteNumber = _newNumber + 5 */\n      dup2\n      swap1\n      sstore\n      pop\n        /* \"storageFactory/AddFiveNumber.sol\":150:259  function store(uint256 _newNumber) public override{... */\n      pop\n      jump\t// out\n        /* \"storageFactory/SimpleStore.sol\":178:230  mapping(string=>uint256) public nameToFavoriteNumber */\n    tag_25:\n      0x03\n      dup2\n      dup1\n      mload\n      0x20\n      dup2\n      add\n      dup3\n      add\n      dup1\n      mload\n      dup5\n      dup3\n      mstore\n      0x20\n      dup4\n      add\n      0x20\n      dup6\n      add\n      keccak256\n      dup2\n      dup4\n      mstore\n      dup1\n      swap6\n      pop\n      pop\n      pop\n      pop\n      pop\n      pop\n      0x00\n      swap2\n      pop\n      swap1\n      pop\n      sload\n      dup2\n      jump\t// out\n        /* \"storageFactory/SimpleStore.sol\":116:136  address public owner */\n    tag_28:\n      0x01\n      0x00\n      swap1\n      sload\n      swap1\n      0x0100\n      exp\n      swap1\n      div\n      0xffffffffffffffffffffffffffffffffffffffff\n      and\n      dup2\n      jump\t// out\n        /* \"storageFactory/SimpleStore.sol\":551:741  function addperson(string memory _name,uint256 _favoriteNumber) public{... */\n    tag_34:\n        /* \"storageFactory/SimpleStore.sol\":631:643  listOfPeople */\n      0x02\n        /* \"storageFactory/SimpleStore.sol\":649:678  People(_name,_favoriteNumber) */\n      mload(0x40)\n      dup1\n      0x40\n      add\n      0x40\n      mstore\n      dup1\n        /* \"storageFactory/SimpleStore.sol\":656:661  _name */\n      dup5\n        /* \"storageFactory/SimpleStore.sol\":649:678  People(_name,_favoriteNumber) */\n      dup2\n      mstore\n      0x20\n      add\n        /* \"storageFactory/SimpleStore.sol\":662:677  _favoriteNumber */\n      dup4\n        /* \"storageFactory/SimpleStore.sol\":649:678  People(_name,_favoriteNumber) */\n      dup2\n      mstore\n      pop\n        /* \"storageFactory/SimpleStore.sol\":631:679  listOfPeople.push(People(_name,_favoriteNumber)) */\n      swap1\n      dup1\n      0x01\n      dup2\n      sload\n      add\n      dup1\n      dup3\n      sstore\n      dup1\n      swap2\n      pop\n      pop\n      0x01\n      swap1\n      sub\n      swap1\n      0x00\n      mstore\n      keccak256(0x00, 0x20)\n      swap1\n      0x02\n      mul\n      add\n      0x00\n      swap1\n      swap2\n      swap1\n      swap2\n      swap1\n      swap2\n      pop\n      0x00\n      dup3\n      add\n      mload\n      dup2\n      0x00\n      add\n      swap1\n      dup2\n      tag_49\n      swap2\n      swap1\n      tag_50\n      jump\t// in\n    tag_49:\n      pop\n      0x20\n      dup3\n      add\n      mload\n      dup2\n      0x01\n      add\n      sstore\n      pop\n      pop\n        /* \"storageFactory/SimpleStore.sol\":719:734  _favoriteNumber */\n      dup1\n        /* \"storageFactory/SimpleStore.sol\":689:709  nameToFavoriteNumber */\n      0x03\n        /* \"storageFactory/SimpleStore.sol\":710:715  _name */\n      dup4\n        /* \"storageFactory/SimpleStore.sol\":689:716  nameToFavoriteNumber[_name] */\n      mload(0x40)\n      tag_51\n      swap2\n      swap1\n      tag_52\n      jump\t// in\n    tag_51:\n      swap1\n      dup2\n      mstore\n      0x20\n      add\n      mload(0x40)\n      dup1\n      swap2\n      sub\n      swap1\n      keccak256\n        /* \"storageFactory/SimpleStore.sol\":689:734  nameToFavoriteNumber[_name] = _favoriteNumber */\n      dup2\n      swap1\n      sstore\n      pop\n        /* \"storageFactory/SimpleStore.sol\":551:741  function addperson(string memory _name,uint256 _favoriteNumber) public{... */\n      pop\n      pop\n      jump\t// out\n        /* \"#utility.yul\":7:84   */\n    tag_53:\n        /* \"#utility.yul\":44:51   */\n      0x00\n        /* \"#utility.yul\":73:78   */\n      dup2\n        /* \"#utility.yul\":62:78   */\n      swap1\n      pop\n        /* \"#utility.yul\":7:84   */\n      swap2\n      swap1\n      pop\n      jump\t// out\n        /* \"#utility.yul\":90:208   */\n    tag_54:\n        /* \"#utility.yul\":177:201   */\n      tag_99\n        /* \"#utility.yul\":195:200   */\n      dup2\n        /* \"#utility.yul\":177:201   */\n      tag_53\n      jump\t// in\n    tag_99:\n        /* \"#utility.yul\":172:175   */\n      dup3\n        /* \"#utility.yul\":165:202   */\n      mstore\n        /* \"#utility.yul\":90:208   */\n      pop\n      pop\n      jump\t// out\n        /* \"#utility.yul\":214:436   */\n    tag_12:\n        /* \"#utility.yul\":307:311   */\n      0x00\n        /* \"#utility.yul\":345:347   */\n      0x20\n        /* \"#utility.yul\":334:343   */\n      dup3\n        /* \"#utility.yul\":330:348   */\n      add\n        /* \"#utility.yul\":322:348   */\n      swap1\n      pop\n        /* \"#utility.yul\":358:429   */\n      tag_101\n        /* \"#utility.yul\":426:427   */\n      0x00\n        /* \"#utility.yul\":415:424   */\n      dup4\n        /* \"#utility.yul\":411:428   */\n      add\n        /* \"#utility.yul\":402:408   */\n      dup5\n        /* \"#utility.yul\":358:429   */\n      tag_54\n      jump\t// in\n    tag_101:\n        /* \"#utility.yul\":214:436   */\n      swap3\n      swap2\n      pop\n      pop\n      jump\t// out\n        /* \"#utility.yul\":442:517   */\n    tag_55:\n        /* \"#utility.yul\":475:481   */\n      0x00\n        /* \"#utility.yul\":508:510   */\n      0x40\n        /* \"#utility.yul\":502:511   */\n      mload\n        /* \"#utility.yul\":492:511   */\n      swap1\n      pop\n        /* \"#utility.yul\":442:517   */\n      swap1\n      jump\t// out\n        /* \"#utility.yul\":523:640   */\n    tag_56:\n        /* \"#utility.yul\":632:633   */\n      0x00\n        /* \"#utility.yul\":629:630   */\n      0x00\n        /* \"#utility.yul\":622:634   */\n      revert\n        /* \"#utility.yul\":646:763   */\n    tag_57:\n        /* \"#utility.yul\":755:756   */\n      0x00\n        /* \"#utility.yul\":752:753   */\n      0x00\n        /* \"#utility.yul\":745:757   */\n      revert\n        /* \"#utility.yul\":769:891   */\n    tag_58:\n        /* \"#utility.yul\":842:866   */\n      tag_106\n        /* \"#utility.yul\":860:865   */\n      dup2\n        /* \"#utility.yul\":842:866   */\n      tag_53\n      jump\t// in\n    tag_106:\n        /* \"#utility.yul\":835:840   */\n      dup2\n        /* \"#utility.yul\":832:867   */\n      eq\n        /* \"#utility.yul\":822:885   */\n      tag_107\n      jumpi\n        /* \"#utility.yul\":881:882   */\n      0x00\n        /* \"#utility.yul\":878:879   */\n      0x00\n        /* \"#utility.yul\":871:883   */\n      revert\n        /* \"#utility.yul\":822:885   */\n    tag_107:\n        /* \"#utility.yul\":769:891   */\n      pop\n      jump\t// out\n        /* \"#utility.yul\":897:1036   */\n    tag_59:\n        /* \"#utility.yul\":943:948   */\n      0x00\n        /* \"#utility.yul\":981:987   */\n      dup2\n        /* \"#utility.yul\":968:988   */\n      calldataload\n        /* \"#utility.yul\":959:988   */\n      swap1\n      pop\n        /* \"#utility.yul\":997:1030   */\n      tag_109\n        /* \"#utility.yul\":1024:1029   */\n      dup2\n        /* \"#utility.yul\":997:1030   */\n      tag_58\n      jump\t// in\n    tag_109:\n        /* \"#utility.yul\":897:1036   */\n      swap3\n      swap2\n      pop\n      pop\n      jump\t// out\n        /* \"#utility.yul\":1042:1371   */\n    tag_15:\n        /* \"#utility.yul\":1101:1107   */\n      0x00\n        /* \"#utility.yul\":1150:1152   */\n      0x20\n        /* \"#utility.yul\":1138:1147   */\n      dup3\n        /* \"#utility.yul\":1129:1136   */\n      dup5\n        /* \"#utility.yul\":1125:1148   */\n      sub\n        /* \"#utility.yul\":1121:1153   */\n      slt\n        /* \"#utility.yul\":1118:1237   */\n      iszero\n      tag_111\n      jumpi\n        /* \"#utility.yul\":1156:1235   */\n      tag_112\n      tag_56\n      jump\t// in\n    tag_112:\n        /* \"#utility.yul\":1118:1237   */\n    tag_111:\n        /* \"#utility.yul\":1276:1277   */\n      0x00\n        /* \"#utility.yul\":1301:1354   */\n      tag_113\n        /* \"#utility.yul\":1346:1353   */\n      dup5\n        /* \"#utility.yul\":1337:1343   */\n      dup3\n        /* \"#utility.yul\":1326:1335   */\n      dup6\n        /* \"#utility.yul\":1322:1344   */\n      add\n        /* \"#utility.yul\":1301:1354   */\n      tag_59\n      jump\t// in\n    tag_113:\n        /* \"#utility.yul\":1291:1354   */\n      swap2\n      pop\n        /* \"#utility.yul\":1247:1364   */\n      pop\n        /* \"#utility.yul\":1042:1371   */\n      swap3\n      swap2\n      pop\n      pop\n      jump\t// out\n        /* \"#utility.yul\":1377:1476   */\n    tag_60:\n        /* \"#utility.yul\":1429:1435   */\n      0x00\n        /* \"#utility.yul\":1463:1468   */\n      dup2\n        /* \"#utility.yul\":1457:1469   */\n      mload\n        /* \"#utility.yul\":1447:1469   */\n      swap1\n      pop\n        /* \"#utility.yul\":1377:1476   */\n      swap2\n      swap1\n      pop\n      jump\t// out\n        /* \"#utility.yul\":1482:1651   */\n    tag_61:\n        /* \"#utility.yul\":1566:1577   */\n      0x00\n        /* \"#utility.yul\":1600:1606   */\n      dup3\n        /* \"#utility.yul\":1595:1598   */\n      dup3\n        /* \"#utility.yul\":1588:1607   */\n      mstore\n        /* \"#utility.yul\":1640:1644   */\n      0x20\n        /* \"#utility.yul\":1635:1638   */\n      dup3\n        /* \"#utility.yul\":1631:1645   */\n      add\n        /* \"#utility.yul\":1616:1645   */\n      swap1\n      pop\n        /* \"#utility.yul\":1482:1651   */\n      swap3\n      swap2\n      pop\n      pop\n      jump\t// out\n        /* \"#utility.yul\":1657:1796   */\n    tag_62:\n        /* \"#utility.yul\":1746:1752   */\n      dup3\n        /* \"#utility.yul\":1741:1744   */\n      dup2\n        /* \"#utility.yul\":1736:1739   */\n      dup4\n        /* \"#utility.yul\":1730:1753   */\n      mcopy\n        /* \"#utility.yul\":1787:1788   */\n      0x00\n        /* \"#utility.yul\":1778:1784   */\n      dup4\n        /* \"#utility.yul\":1773:1776   */\n      dup4\n        /* \"#utility.yul\":1769:1785   */\n      add\n        /* \"#utility.yul\":1762:1789   */\n      mstore\n        /* \"#utility.yul\":1657:1796   */\n      pop\n      pop\n      pop\n      jump\t// out\n        /* \"#utility.yul\":1802:1904   */\n    tag_63:\n        /* \"#utility.yul\":1843:1849   */\n      0x00\n        /* \"#utility.yul\":1894:1896   */\n      0x1f\n        /* \"#utility.yul\":1890:1897   */\n      not\n        /* \"#utility.yul\":1885:1887   */\n      0x1f\n        /* \"#utility.yul\":1878:1883   */\n      dup4\n        /* \"#utility.yul\":1874:1888   */\n      add\n        /* \"#utility.yul\":1870:1898   */\n      and\n        /* \"#utility.yul\":1860:1898   */\n      swap1\n      pop\n        /* \"#utility.yul\":1802:1904   */\n      swap2\n      swap1\n      pop\n      jump\t// out\n        /* \"#utility.yul\":1910:2287   */\n    tag_64:\n        /* \"#utility.yul\":1998:2001   */\n      0x00\n        /* \"#utility.yul\":2026:2065   */\n      tag_119\n        /* \"#utility.yul\":2059:2064   */\n      dup3\n        /* \"#utility.yul\":2026:2065   */\n      tag_60\n      jump\t// in\n    tag_119:\n        /* \"#utility.yul\":2081:2152   */\n      tag_120\n        /* \"#utility.yul\":2145:2151   */\n      dup2\n        /* \"#utility.yul\":2140:2143   */\n      dup6\n        /* \"#utility.yul\":2081:2152   */\n      tag_61\n      jump\t// in\n    tag_120:\n        /* \"#utility.yul\":2074:2152   */\n      swap4\n      pop\n        /* \"#utility.yul\":2161:2226   */\n      tag_121\n        /* \"#utility.yul\":2219:2225   */\n      dup2\n        /* \"#utility.yul\":2214:2217   */\n      dup6\n        /* \"#utility.yul\":2207:2211   */\n      0x20\n        /* \"#utility.yul\":2200:2205   */\n      dup7\n        /* \"#utility.yul\":2196:2212   */\n      add\n        /* \"#utility.yul\":2161:2226   */\n      tag_62\n      jump\t// in\n    tag_121:\n        /* \"#utility.yul\":2251:2280   */\n      tag_122\n        /* \"#utility.yul\":2273:2279   */\n      dup2\n        /* \"#utility.yul\":2251:2280   */\n      tag_63\n      jump\t// in\n    tag_122:\n        /* \"#utility.yul\":2246:2249   */\n      dup5\n        /* \"#utility.yul\":2242:2281   */\n      add\n        /* \"#utility.yul\":2235:2281   */\n      swap2\n      pop\n        /* \"#utility.yul\":2002:2287   */\n      pop\n        /* \"#utility.yul\":1910:2287   */\n      swap3\n      swap2\n      pop\n      pop\n      jump\t// out\n        /* \"#utility.yul\":2293:2716   */\n    tag_18:\n        /* \"#utility.yul\":2434:2438   */\n      0x00\n        /* \"#utility.yul\":2472:2474   */\n      0x40\n        /* \"#utility.yul\":2461:2470   */\n      dup3\n        /* \"#utility.yul\":2457:2475   */\n      add\n        /* \"#utility.yul\":2449:2475   */\n      swap1\n      pop\n        /* \"#utility.yul\":2521:2530   */\n      dup2\n        /* \"#utility.yul\":2515:2519   */\n      dup2\n        /* \"#utility.yul\":2511:2531   */\n      sub\n        /* \"#utility.yul\":2507:2508   */\n      0x00\n        /* \"#utility.yul\":2496:2505   */\n      dup4\n        /* \"#utility.yul\":2492:2509   */\n      add\n        /* \"#utility.yul\":2485:2532   */\n      mstore\n        /* \"#utility.yul\":2549:2627   */\n      tag_124\n        /* \"#utility.yul\":2622:2626   */\n      dup2\n        /* \"#utility.yul\":2613:2619   */\n      dup6\n        /* \"#utility.yul\":2549:2627   */\n      tag_64\n      jump\t// in\n    tag_124:\n        /* \"#utility.yul\":2541:2627   */\n      swap1\n      pop\n        /* \"#utility.yul\":2637:2709   */\n      tag_125\n        /* \"#utility.yul\":2705:2707   */\n      0x20\n        /* \"#utility.yul\":2694:2703   */\n      dup4\n        /* \"#utility.yul\":2690:2708   */\n      add\n        /* \"#utility.yul\":2681:2687   */\n      dup5\n        /* \"#utility.yul\":2637:2709   */\n      tag_54\n      jump\t// in\n    tag_125:\n        /* \"#utility.yul\":2293:2716   */\n      swap4\n      swap3\n      pop\n      pop\n      pop\n      jump\t// out\n        /* \"#utility.yul\":2722:2839   */\n    tag_65:\n        /* \"#utility.yul\":2831:2832   */\n      0x00\n        /* \"#utility.yul\":2828:2829   */\n      0x00\n        /* \"#utility.yul\":2821:2833   */\n      revert\n        /* \"#utility.yul\":2845:2962   */\n    tag_66:\n        /* \"#utility.yul\":2954:2955   */\n      0x00\n        /* \"#utility.yul\":2951:2952   */\n      0x00\n        /* \"#utility.yul\":2944:2956   */\n      revert\n        /* \"#utility.yul\":2968:3148   */\n    tag_67:\n        /* \"#utility.yul\":3016:3093   */\n      0x4e487b7100000000000000000000000000000000000000000000000000000000\n        /* \"#utility.yul\":3013:3014   */\n      0x00\n        /* \"#utility.yul\":3006:3094   */\n      mstore\n        /* \"#utility.yul\":3113:3117   */\n      0x41\n        /* \"#utility.yul\":3110:3111   */\n      0x04\n        /* \"#utility.yul\":3103:3118   */\n      mstore\n        /* \"#utility.yul\":3137:3141   */\n      0x24\n        /* \"#utility.yul\":3134:3135   */\n      0x00\n        /* \"#utility.yul\":3127:3142   */\n      revert\n        /* \"#utility.yul\":3154:3435   */\n    tag_68:\n        /* \"#utility.yul\":3237:3264   */\n      tag_130\n        /* \"#utility.yul\":3259:3263   */\n      dup3\n        /* \"#utility.yul\":3237:3264   */\n      tag_63\n      jump\t// in\n    tag_130:\n        /* \"#utility.yul\":3229:3235   */\n      dup2\n        /* \"#utility.yul\":3225:3265   */\n      add\n        /* \"#utility.yul\":3367:3373   */\n      dup2\n        /* \"#utility.yul\":3355:3365   */\n      dup2\n        /* \"#utility.yul\":3352:3374   */\n      lt\n        /* \"#utility.yul\":3331:3349   */\n      0xffffffffffffffff\n        /* \"#utility.yul\":3319:3329   */\n      dup3\n        /* \"#utility.yul\":3316:3350   */\n      gt\n        /* \"#utility.yul\":3313:3375   */\n      or\n        /* \"#utility.yul\":3310:3398   */\n      iszero\n      tag_131\n      jumpi\n        /* \"#utility.yul\":3378:3396   */\n      tag_132\n      tag_67\n      jump\t// in\n    tag_132:\n        /* \"#utility.yul\":3310:3398   */\n    tag_131:\n        /* \"#utility.yul\":3418:3428   */\n      dup1\n        /* \"#utility.yul\":3414:3416   */\n      0x40\n        /* \"#utility.yul\":3407:3429   */\n      mstore\n        /* \"#utility.yul\":3197:3435   */\n      pop\n        /* \"#utility.yul\":3154:3435   */\n      pop\n      pop\n      jump\t// out\n        /* \"#utility.yul\":3441:3570   */\n    tag_69:\n        /* \"#utility.yul\":3475:3481   */\n      0x00\n        /* \"#utility.yul\":3502:3522   */\n      tag_134\n      tag_55\n      jump\t// in\n    tag_134:\n        /* \"#utility.yul\":3492:3522   */\n      swap1\n      pop\n        /* \"#utility.yul\":3531:3564   */\n      tag_135\n        /* \"#utility.yul\":3559:3563   */\n      dup3\n        /* \"#utility.yul\":3551:3557   */\n      dup3\n        /* \"#utility.yul\":3531:3564   */\n      tag_68\n      jump\t// in\n    tag_135:\n        /* \"#utility.yul\":3441:3570   */\n      swap2\n      swap1\n      pop\n      jump\t// out\n        /* \"#utility.yul\":3576:3884   */\n    tag_70:\n        /* \"#utility.yul\":3638:3642   */\n      0x00\n        /* \"#utility.yul\":3728:3746   */\n      0xffffffffffffffff\n        /* \"#utility.yul\":3720:3726   */\n      dup3\n        /* \"#utility.yul\":3717:3747   */\n      gt\n        /* \"#utility.yul\":3714:3770   */\n      iszero\n      tag_137\n      jumpi\n        /* \"#utility.yul\":3750:3768   */\n      tag_138\n      tag_67\n      jump\t// in\n    tag_138:\n        /* \"#utility.yul\":3714:3770   */\n    tag_137:\n        /* \"#utility.yul\":3788:3817   */\n      tag_139\n        /* \"#utility.yul\":3810:3816   */\n      dup3\n        /* \"#utility.yul\":3788:3817   */\n      tag_63\n      jump\t// in\n    tag_139:\n        /* \"#utility.yul\":3780:3817   */\n      swap1\n      pop\n        /* \"#utility.yul\":3872:3876   */\n      0x20\n        /* \"#utility.yul\":3866:3870   */\n      dup2\n        /* \"#utility.yul\":3862:3877   */\n      add\n        /* \"#utility.yul\":3854:3877   */\n      swap1\n      pop\n        /* \"#utility.yul\":3576:3884   */\n      swap2\n      swap1\n      pop\n      jump\t// out\n        /* \"#utility.yul\":3890:4038   */\n    tag_71:\n        /* \"#utility.yul\":3988:3994   */\n      dup3\n        /* \"#utility.yul\":3983:3986   */\n      dup2\n        /* \"#utility.yul\":3978:3981   */\n      dup4\n        /* \"#utility.yul\":3965:3995   */\n      calldatacopy\n        /* \"#utility.yul\":4029:4030   */\n      0x00\n        /* \"#utility.yul\":4020:4026   */\n      dup4\n        /* \"#utility.yul\":4015:4018   */\n      dup4\n        /* \"#utility.yul\":4011:4027   */\n      add\n        /* \"#utility.yul\":4004:4031   */\n      mstore\n        /* \"#utility.yul\":3890:4038   */\n      pop\n      pop\n      pop\n      jump\t// out\n        /* \"#utility.yul\":4044:4469   */\n    tag_72:\n        /* \"#utility.yul\":4122:4127   */\n      0x00\n        /* \"#utility.yul\":4147:4213   */\n      tag_142\n        /* \"#utility.yul\":4163:4212   */\n      tag_143\n        /* \"#utility.yul\":4205:4211   */\n      dup5\n        /* \"#utility.yul\":4163:4212   */\n      tag_70\n      jump\t// in\n    tag_143:\n        /* \"#utility.yul\":4147:4213   */\n      tag_69\n      jump\t// in\n    tag_142:\n        /* \"#utility.yul\":4138:4213   */\n      swap1\n      pop\n        /* \"#utility.yul\":4236:4242   */\n      dup3\n        /* \"#utility.yul\":4229:4234   */\n      dup2\n        /* \"#utility.yul\":4222:4243   */\n      mstore\n        /* \"#utility.yul\":4274:4278   */\n      0x20\n        /* \"#utility.yul\":4267:4272   */\n      dup2\n        /* \"#utility.yul\":4263:4279   */\n      add\n        /* \"#utility.yul\":4312:4315   */\n      dup5\n        /* \"#utility.yul\":4303:4309   */\n      dup5\n        /* \"#utility.yul\":4298:4301   */\n      dup5\n        /* \"#utility.yul\":4294:4310   */\n      add\n        /* \"#utility.yul\":4291:4316   */\n      gt\n        /* \"#utility.yul\":4288:4400   */\n      iszero\n      tag_144\n      jumpi\n        /* \"#utility.yul\":4319:4398   */\n      tag_145\n      tag_66\n      jump\t// in\n    tag_145:\n        /* \"#utility.yul\":4288:4400   */\n    tag_144:\n        /* \"#utility.yul\":4409:4463   */\n      tag_146\n        /* \"#utility.yul\":4456:4462   */\n      dup5\n        /* \"#utility.yul\":4451:4454   */\n      dup3\n        /* \"#utility.yul\":4446:4449   */\n      dup6\n        /* \"#utility.yul\":4409:4463   */\n      tag_71\n      jump\t// in\n    tag_146:\n        /* \"#utility.yul\":4128:4469   */\n      pop\n        /* \"#utility.yul\":4044:4469   */\n      swap4\n      swap3\n      pop\n      pop\n      pop\n      jump\t// out\n        /* \"#utility.yul\":4489:4829   */\n    tag_73:\n        /* \"#utility.yul\":4545:4550   */\n      0x00\n        /* \"#utility.yul\":4594:4597   */\n      dup3\n        /* \"#utility.yul\":4587:4591   */\n      0x1f\n        /* \"#utility.yul\":4579:4585   */\n      dup4\n        /* \"#utility.yul\":4575:4592   */\n      add\n        /* \"#utility.yul\":4571:4598   */\n      slt\n        /* \"#utility.yul\":4561:4683   */\n      tag_148\n      jumpi\n        /* \"#utility.yul\":4602:4681   */\n      tag_149\n      tag_65\n      jump\t// in\n    tag_149:\n        /* \"#utility.yul\":4561:4683   */\n    tag_148:\n        /* \"#utility.yul\":4719:4725   */\n      dup2\n        /* \"#utility.yul\":4706:4726   */\n      calldataload\n        /* \"#utility.yul\":4744:4823   */\n      tag_150\n        /* \"#utility.yul\":4819:4822   */\n      dup5\n        /* \"#utility.yul\":4811:4817   */\n      dup3\n        /* \"#utility.yul\":4804:4808   */\n      0x20\n        /* \"#utility.yul\":4796:4802   */\n      dup7\n        /* \"#utility.yul\":4792:4809   */\n      add\n        /* \"#utility.yul\":4744:4823   */\n      tag_72\n      jump\t// in\n    tag_150:\n        /* \"#utility.yul\":4735:4823   */\n      swap2\n      pop\n        /* \"#utility.yul\":4551:4829   */\n      pop\n        /* \"#utility.yul\":4489:4829   */\n      swap3\n      swap2\n      pop\n      pop\n      jump\t// out\n        /* \"#utility.yul\":4835:5344   */\n    tag_24:\n        /* \"#utility.yul\":4904:4910   */\n      0x00\n        /* \"#utility.yul\":4953:4955   */\n      0x20\n        /* \"#utility.yul\":4941:4950   */\n      dup3\n        /* \"#utility.yul\":4932:4939   */\n      dup5\n        /* \"#utility.yul\":4928:4951   */\n      sub\n        /* \"#utility.yul\":4924:4956   */\n      slt\n        /* \"#utility.yul\":4921:5040   */\n      iszero\n      tag_152\n      jumpi\n        /* \"#utility.yul\":4959:5038   */\n      tag_153\n      tag_56\n      jump\t// in\n    tag_153:\n        /* \"#utility.yul\":4921:5040   */\n    tag_152:\n        /* \"#utility.yul\":5107:5108   */\n      0x00\n        /* \"#utility.yul\":5096:5105   */\n      dup3\n        /* \"#utility.yul\":5092:5109   */\n      add\n        /* \"#utility.yul\":5079:5110   */\n      calldataload\n        /* \"#utility.yul\":5137:5155   */\n      0xffffffffffffffff\n        /* \"#utility.yul\":5129:5135   */\n      dup2\n        /* \"#utility.yul\":5126:5156   */\n      gt\n        /* \"#utility.yul\":5123:5240   */\n      iszero\n      tag_154\n      jumpi\n        /* \"#utility.yul\":5159:5238   */\n      tag_155\n      tag_57\n      jump\t// in\n    tag_155:\n        /* \"#utility.yul\":5123:5240   */\n    tag_154:\n        /* \"#utility.yul\":5264:5327   */\n      tag_156\n        /* \"#utility.yul\":5319:5326   */\n      dup5\n        /* \"#utility.yul\":5310:5316   */\n      dup3\n        /* \"#utility.yul\":5299:5308   */\n      dup6\n        /* \"#utility.yul\":5295:5317   */\n      add\n        /* \"#utility.yul\":5264:5327   */\n      tag_73\n      jump\t// in\n    tag_156:\n        /* \"#utility.yul\":5254:5327   */\n      swap2\n      pop\n        /* \"#utility.yul\":5050:5337   */\n      pop\n        /* \"#utility.yul\":4835:5344   */\n      swap3\n      swap2\n      pop\n      pop\n      jump\t// out\n        /* \"#utility.yul\":5350:5476   */\n    tag_74:\n        /* \"#utility.yul\":5387:5394   */\n      0x00\n        /* \"#utility.yul\":5427:5469   */\n      0xffffffffffffffffffffffffffffffffffffffff\n        /* \"#utility.yul\":5420:5425   */\n      dup3\n        /* \"#utility.yul\":5416:5470   */\n      and\n        /* \"#utility.yul\":5405:5470   */\n      swap1\n      pop\n        /* \"#utility.yul\":5350:5476   */\n      swap2\n      swap1\n      pop\n      jump\t// out\n        /* \"#utility.yul\":5482:5578   */\n    tag_75:\n        /* \"#utility.yul\":5519:5526   */\n      0x00\n        /* \"#utility.yul\":5548:5572   */\n      tag_159\n        /* \"#utility.yul\":5566:5571   */\n      dup3\n        /* \"#utility.yul\":5548:5572   */\n      tag_74\n      jump\t// in\n    tag_159:\n        /* \"#utility.yul\":5537:5572   */\n      swap1\n      pop\n        /* \"#utility.yul\":5482:5578   */\n      swap2\n      swap1\n      pop\n      jump\t// out\n        /* \"#utility.yul\":5584:5702   */\n    tag_76:\n        /* \"#utility.yul\":5671:5695   */\n      tag_161\n        /* \"#utility.yul\":5689:5694   */\n      dup2\n        /* \"#utility.yul\":5671:5695   */\n      tag_75\n      jump\t// in\n    tag_161:\n        /* \"#utility.yul\":5666:5669   */\n      dup3\n        /* \"#utility.yul\":5659:5696   */\n      mstore\n        /* \"#utility.yul\":5584:5702   */\n      pop\n      pop\n      jump\t// out\n        /* \"#utility.yul\":5708:5930   */\n    tag_30:\n        /* \"#utility.yul\":5801:5805   */\n      0x00\n        /* \"#utility.yul\":5839:5841   */\n      0x20\n        /* \"#utility.yul\":5828:5837   */\n      dup3\n        /* \"#utility.yul\":5824:5842   */\n      add\n        /* \"#utility.yul\":5816:5842   */\n      swap1\n      pop\n        /* \"#utility.yul\":5852:5923   */\n      tag_163\n        /* \"#utility.yul\":5920:5921   */\n      0x00\n        /* \"#utility.yul\":5909:5918   */\n      dup4\n        /* \"#utility.yul\":5905:5922   */\n      add\n        /* \"#utility.yul\":5896:5902   */\n      dup5\n        /* \"#utility.yul\":5852:5923   */\n      tag_76\n      jump\t// in\n    tag_163:\n        /* \"#utility.yul\":5708:5930   */\n      swap3\n      swap2\n      pop\n      pop\n      jump\t// out\n        /* \"#utility.yul\":5936:6590   */\n    tag_33:\n        /* \"#utility.yul\":6014:6020   */\n      0x00\n        /* \"#utility.yul\":6022:6028   */\n      0x00\n        /* \"#utility.yul\":6071:6073   */\n      0x40\n        /* \"#utility.yul\":6059:6068   */\n      dup4\n        /* \"#utility.yul\":6050:6057   */\n      dup6\n        /* \"#utility.yul\":6046:6069   */\n      sub\n        /* \"#utility.yul\":6042:6074   */\n      slt\n        /* \"#utility.yul\":6039:6158   */\n      iszero\n      tag_165\n      jumpi\n        /* \"#utility.yul\":6077:6156   */\n      tag_166\n      tag_56\n      jump\t// in\n    tag_166:\n        /* \"#utility.yul\":6039:6158   */\n    tag_165:\n        /* \"#utility.yul\":6225:6226   */\n      0x00\n        /* \"#utility.yul\":6214:6223   */\n      dup4\n        /* \"#utility.yul\":6210:6227   */\n      add\n        /* \"#utility.yul\":6197:6228   */\n      calldataload\n        /* \"#utility.yul\":6255:6273   */\n      0xffffffffffffffff\n        /* \"#utility.yul\":6247:6253   */\n      dup2\n        /* \"#utility.yul\":6244:6274   */\n      gt\n        /* \"#utility.yul\":6241:6358   */\n      iszero\n      tag_167\n      jumpi\n        /* \"#utility.yul\":6277:6356   */\n      tag_168\n      tag_57\n      jump\t// in\n    tag_168:\n        /* \"#utility.yul\":6241:6358   */\n    tag_167:\n        /* \"#utility.yul\":6382:6445   */\n      tag_169\n        /* \"#utility.yul\":6437:6444   */\n      dup6\n        /* \"#utility.yul\":6428:6434   */\n      dup3\n        /* \"#utility.yul\":6417:6426   */\n      dup7\n        /* \"#utility.yul\":6413:6435   */\n      add\n        /* \"#utility.yul\":6382:6445   */\n      tag_73\n      jump\t// in\n    tag_169:\n        /* \"#utility.yul\":6372:6445   */\n      swap3\n      pop\n        /* \"#utility.yul\":6168:6455   */\n      pop\n        /* \"#utility.yul\":6494:6496   */\n      0x20\n        /* \"#utility.yul\":6520:6573   */\n      tag_170\n        /* \"#utility.yul\":6565:6572   */\n      dup6\n        /* \"#utility.yul\":6556:6562   */\n      dup3\n        /* \"#utility.yul\":6545:6554   */\n      dup7\n        /* \"#utility.yul\":6541:6563   */\n      add\n        /* \"#utility.yul\":6520:6573   */\n      tag_59\n      jump\t// in\n    tag_170:\n        /* \"#utility.yul\":6510:6573   */\n      swap2\n      pop\n        /* \"#utility.yul\":6465:6583   */\n      pop\n        /* \"#utility.yul\":5936:6590   */\n      swap3\n      pop\n      swap3\n      swap1\n      pop\n      jump\t// out\n        /* \"#utility.yul\":6596:6776   */\n    tag_77:\n        /* \"#utility.yul\":6644:6721   */\n      0x4e487b7100000000000000000000000000000000000000000000000000000000\n        /* \"#utility.yul\":6641:6642   */\n      0x00\n        /* \"#utility.yul\":6634:6722   */\n      mstore\n        /* \"#utility.yul\":6741:6745   */\n      0x22\n        /* \"#utility.yul\":6738:6739   */\n      0x04\n        /* \"#utility.yul\":6731:6746   */\n      mstore\n        /* \"#utility.yul\":6765:6769   */\n      0x24\n        /* \"#utility.yul\":6762:6763   */\n      0x00\n        /* \"#utility.yul\":6755:6770   */\n      revert\n        /* \"#utility.yul\":6782:7102   */\n    tag_39:\n        /* \"#utility.yul\":6826:6832   */\n      0x00\n        /* \"#utility.yul\":6863:6864   */\n      0x02\n        /* \"#utility.yul\":6857:6861   */\n      dup3\n        /* \"#utility.yul\":6853:6865   */\n      div\n        /* \"#utility.yul\":6843:6865   */\n      swap1\n      pop\n        /* \"#utility.yul\":6910:6911   */\n      0x01\n        /* \"#utility.yul\":6904:6908   */\n      dup3\n        /* \"#utility.yul\":6900:6912   */\n      and\n        /* \"#utility.yul\":6931:6949   */\n      dup1\n        /* \"#utility.yul\":6921:7002   */\n      tag_173\n      jumpi\n        /* \"#utility.yul\":6987:6991   */\n      0x7f\n        /* \"#utility.yul\":6979:6985   */\n      dup3\n        /* \"#utility.yul\":6975:6992   */\n      and\n        /* \"#utility.yul\":6965:6992   */\n      swap2\n      pop\n        /* \"#utility.yul\":6921:7002   */\n    tag_173:\n        /* \"#utility.yul\":7049:7051   */\n      0x20\n        /* \"#utility.yul\":7041:7047   */\n      dup3\n        /* \"#utility.yul\":7038:7052   */\n      lt\n        /* \"#utility.yul\":7018:7036   */\n      dup2\n        /* \"#utility.yul\":7015:7053   */\n      sub\n        /* \"#utility.yul\":7012:7096   */\n      tag_174\n      jumpi\n        /* \"#utility.yul\":7068:7086   */\n      tag_175\n      tag_77\n      jump\t// in\n    tag_175:\n        /* \"#utility.yul\":7012:7096   */\n    tag_174:\n        /* \"#utility.yul\":6833:7102   */\n      pop\n        /* \"#utility.yul\":6782:7102   */\n      swap2\n      swap1\n      pop\n      jump\t// out\n        /* \"#utility.yul\":7108:7288   */\n    tag_78:\n        /* \"#utility.yul\":7156:7233   */\n      0x4e487b7100000000000000000000000000000000000000000000000000000000\n        /* \"#utility.yul\":7153:7154   */\n      0x00\n        /* \"#utility.yul\":7146:7234   */\n      mstore\n        /* \"#utility.yul\":7253:7257   */\n      0x11\n        /* \"#utility.yul\":7250:7251   */\n      0x04\n        /* \"#utility.yul\":7243:7258   */\n      mstore\n        /* \"#utility.yul\":7277:7281   */\n      0x24\n        /* \"#utility.yul\":7274:7275   */\n      0x00\n        /* \"#utility.yul\":7267:7282   */\n      revert\n        /* \"#utility.yul\":7294:7485   */\n    tag_46:\n        /* \"#utility.yul\":7334:7337   */\n      0x00\n        /* \"#utility.yul\":7353:7373   */\n      tag_178\n        /* \"#utility.yul\":7371:7372   */\n      dup3\n        /* \"#utility.yul\":7353:7373   */\n      tag_53\n      jump\t// in\n    tag_178:\n        /* \"#utility.yul\":7348:7373   */\n      swap2\n      pop\n        /* \"#utility.yul\":7387:7407   */\n      tag_179\n        /* \"#utility.yul\":7405:7406   */\n      dup4\n        /* \"#utility.yul\":7387:7407   */\n      tag_53\n      jump\t// in\n    tag_179:\n        /* \"#utility.yul\":7382:7407   */\n      swap3\n      pop\n        /* \"#utility.yul\":7430:7431   */\n      dup3\n        /* \"#utility.yul\":7427:7428   */\n      dup3\n        /* \"#utility.yul\":7423:7432   */\n      add\n        /* \"#utility.yul\":7416:7432   */\n      swap1\n      pop\n        /* \"#utility.yul\":7451:7454   */\n      dup1\n        /* \"#utility.yul\":7448:7449   */\n      dup3\n        /* \"#utility.yul\":7445:7455   */\n      gt\n        /* \"#utility.yul\":7442:7478   */\n      iszero\n      tag_180\n      jumpi\n        /* \"#utility.yul\":7458:7476   */\n      tag_181\n      tag_78\n      jump\t// in\n    tag_181:\n        /* \"#utility.yul\":7442:7478   */\n    tag_180:\n        /* \"#utility.yul\":7294:7485   */\n      swap3\n      swap2\n      pop\n      pop\n      jump\t// out\n        /* \"#utility.yul\":7491:7632   */\n    tag_79:\n        /* \"#utility.yul\":7540:7544   */\n      0x00\n        /* \"#utility.yul\":7563:7566   */\n      dup2\n        /* \"#utility.yul\":7555:7566   */\n      swap1\n      pop\n        /* \"#utility.yul\":7586:7589   */\n      dup2\n        /* \"#utility.yul\":7583:7584   */\n      0x00\n        /* \"#utility.yul\":7576:7590   */\n      mstore\n        /* \"#utility.yul\":7620:7624   */\n      0x20\n        /* \"#utility.yul\":7617:7618   */\n      0x00\n        /* \"#utility.yul\":7607:7625   */\n      keccak256\n        /* \"#utility.yul\":7599:7625   */\n      swap1\n      pop\n        /* \"#utility.yul\":7491:7632   */\n      swap2\n      swap1\n      pop\n      jump\t// out\n        /* \"#utility.yul\":7638:7731   */\n    tag_80:\n        /* \"#utility.yul\":7675:7681   */\n      0x00\n        /* \"#utility.yul\":7722:7724   */\n      0x20\n        /* \"#utility.yul\":7717:7719   */\n      0x1f\n        /* \"#utility.yul\":7710:7715   */\n      dup4\n        /* \"#utility.yul\":7706:7720   */\n      add\n        /* \"#utility.yul\":7702:7725   */\n      div\n        /* \"#utility.yul\":7692:7725   */\n      swap1\n      pop\n        /* \"#utility.yul\":7638:7731   */\n      swap2\n      swap1\n      pop\n      jump\t// out\n        /* \"#utility.yul\":7737:7844   */\n    tag_81:\n        /* \"#utility.yul\":7781:7789   */\n      0x00\n        /* \"#utility.yul\":7831:7836   */\n      dup3\n        /* \"#utility.yul\":7825:7829   */\n      dup3\n        /* \"#utility.yul\":7821:7837   */\n      shl\n        /* \"#utility.yul\":7800:7837   */\n      swap1\n      pop\n        /* \"#utility.yul\":7737:7844   */\n      swap3\n      swap2\n      pop\n      pop\n      jump\t// out\n        /* \"#utility.yul\":7850:8243   */\n    tag_82:\n        /* \"#utility.yul\":7919:7925   */\n      0x00\n        /* \"#utility.yul\":7969:7970   */\n      0x08\n        /* \"#utility.yul\":7957:7967   */\n      dup4\n        /* \"#utility.yul\":7953:7971   */\n      mul\n        /* \"#utility.yul\":7992:8089   */\n      tag_186\n        /* \"#utility.yul\":8022:8088   */\n      0xffffffffffffffffffffffffffffffffffffffffffffffffffffffffffffffff\n        /* \"#utility.yul\":8011:8020   */\n      dup3\n        /* \"#utility.yul\":7992:8089   */\n      tag_81\n      jump\t// in\n    tag_186:\n        /* \"#utility.yul\":8110:8149   */\n      tag_187\n        /* \"#utility.yul\":8140:8148   */\n      dup7\n        /* \"#utility.yul\":8129:8138   */\n      dup4\n        /* \"#utility.yul\":8110:8149   */\n      tag_81\n      jump\t// in\n    tag_187:\n        /* \"#utility.yul\":8098:8149   */\n      swap6\n      pop\n        /* \"#utility.yul\":8182:8186   */\n      dup1\n        /* \"#utility.yul\":8178:8187   */\n      not\n        /* \"#utility.yul\":8171:8176   */\n      dup5\n        /* \"#utility.yul\":8167:8188   */\n      and\n        /* \"#utility.yul\":8158:8188   */\n      swap4\n      pop\n        /* \"#utility.yul\":8231:8235   */\n      dup1\n        /* \"#utility.yul\":8221:8229   */\n      dup7\n        /* \"#utility.yul\":8217:8236   */\n      and\n        /* \"#utility.yul\":8210:8215   */\n      dup5\n        /* \"#utility.yul\":8207:8237   */\n      or\n        /* \"#utility.yul\":8197:8237   */\n      swap3\n      pop\n        /* \"#utility.yul\":7926:8243   */\n      pop\n      pop\n        /* \"#utility.yul\":7850:8243   */\n      swap4\n      swap3\n      pop\n      pop\n      pop\n      jump\t// out\n        /* \"#utility.yul\":8249:8309   */\n    tag_83:\n        /* \"#utility.yul\":8277:8280   */\n      0x00\n        /* \"#utility.yul\":8298:8303   */\n      dup2\n        /* \"#utility.yul\":8291:8303   */\n      swap1\n      pop\n        /* \"#utility.yul\":8249:8309   */\n      swap2\n      swap1\n      pop\n      jump\t// out\n        /* \"#utility.yul\":8315:8457   */\n    tag_84:\n        /* \"#utility.yul\":8365:8374   */\n      0x00\n        /* \"#utility.yul\":8398:8451   */\n      tag_190\n        /* \"#utility.yul\":8416:8450   */\n      tag_191\n        /* \"#utility.yul\":8425:8449   */\n      tag_192\n        /* \"#utility.yul\":8443:8448   */\n      dup5\n        /* \"#utility.yul\":8425:8449   */\n      tag_53\n      jump\t// in\n    tag_192:\n        /* \"#utility.yul\":8416:8450   */\n      tag_83\n      jump\t// in\n    tag_191:\n        /* \"#utility.yul\":8398:8451   */\n      tag_53\n      jump\t// in\n    tag_190:\n        /* \"#utility.yul\":8385:8451   */\n      swap1\n      pop\n        /* \"#utility.yul\":8315:8457   */\n      swap2\n      swap1\n      pop\n      jump\t// out\n        /* \"#utility.yul\":8463:8538   */\n    tag_85:\n        /* \"#utility.yul\":8506:8509   */\n      0x00\n        /* \"#utility.yul\":8527:8532   */\n      dup2\n        /* \"#utility.yul\":8520:8532   */\n      swap1\n      pop\n        /* \"#utility.yul\":8463:8538   */\n      swap2\n      swap1\n      pop\n      jump\t// out\n        /* \"#utility.yul\":8544:8813   */\n    tag_86:\n        /* \"#utility.yul\":8654:8693   */\n      tag_195\n        /* \"#utility.yul\":8685:8692   */\n      dup4\n        /* \"#utility.yul\":8654:8693   */\n      tag_84\n      jump\t// in\n    tag_195:\n        /* \"#utility.yul\":8715:8806   */\n      tag_196\n        /* \"#utility.yul\":8764:8805   */\n      tag_197\n        /* \"#utility.yul\":8788:8804   */\n      dup3\n        /* \"#utility.yul\":8764:8805   */\n      tag_85\n      jump\t// in\n    tag_197:\n        /* \"#utility.yul\":8756:8762   */\n      dup5\n        /* \"#utility.yul\":8749:8753   */\n      dup5\n        /* \"#utility.yul\":8743:8754   */\n      sload\n        /* \"#utility.yul\":8715:8806   */\n      tag_82\n      jump\t// in\n    tag_196:\n        /* \"#utility.yul\":8709:8713   */\n      dup3\n        /* \"#utility.yul\":8702:8807   */\n      sstore\n        /* \"#utility.yul\":8620:8813   */\n      pop\n        /* \"#utility.yul\":8544:8813   */\n      pop\n      pop\n      pop\n      jump\t// out\n        /* \"#utility.yul\":8819:8892   */\n    tag_87:\n        /* \"#utility.yul\":8864:8867   */\n      0x00\n        /* \"#utility.yul\":8885:8886   */\n      0x00\n        /* \"#utility.yul\":8878:8886   */\n      swap1\n      pop\n        /* \"#utility.yul\":8819:8892   */\n      swap1\n      jump\t// out\n        /* \"#utility.yul\":8898:9087   */\n    tag_88:\n        /* \"#utility.yul\":8975:9007   */\n      tag_200\n      tag_87\n      jump\t// in\n    tag_200:\n        /* \"#utility.yul\":9016:9081   */\n      tag_201\n        /* \"#utility.yul\":9074:9080   */\n      dup2\n        /* \"#utility.yul\":9066:9072   */\n      dup5\n        /* \"#utility.yul\":9060:9064   */\n      dup5\n        /* \"#utility.yul\":9016:9081   */\n      tag_86\n      jump\t// in\n    tag_201:\n        /* \"#utility.yul\":8951:9087   */\n      pop\n        /* \"#utility.yul\":8898:9087   */\n      pop\n      pop\n      jump\t// out\n        /* \"#utility.yul\":9093:9279   */\n    tag_89:\n        /* \"#utility.yul\":9153:9273   */\n    tag_203:\n        /* \"#utility.yul\":9170:9173   */\n      dup2\n        /* \"#utility.yul\":9163:9168   */\n      dup2\n        /* \"#utility.yul\":9160:9174   */\n      lt\n        /* \"#utility.yul\":9153:9273   */\n      iszero\n      tag_205\n      jumpi\n        /* \"#utility.yul\":9224:9263   */\n      tag_206\n        /* \"#utility.yul\":9261:9262   */\n      0x00\n        /* \"#utility.yul\":9254:9259   */\n      dup3\n        /* \"#utility.yul\":9224:9263   */\n      tag_88\n      jump\t// in\n    tag_206:\n        /* \"#utility.yul\":9197:9198   */\n      0x01\n        /* \"#utility.yul\":9190:9195   */\n      dup2\n        /* \"#utility.yul\":9186:9199   */\n      add\n        /* \"#utility.yul\":9177:9199   */\n      swap1\n      pop\n        /* \"#utility.yul\":9153:9273   */\n      jump(tag_203)\n    tag_205:\n        /* \"#utility.yul\":9093:9279   */\n      pop\n      pop\n      jump\t// out\n        /* \"#utility.yul\":9285:9828   */\n    tag_90:\n        /* \"#utility.yul\":9386:9388   */\n      0x1f\n        /* \"#utility.yul\":9381:9384   */\n      dup3\n        /* \"#utility.yul\":9378:9389   */\n      gt\n        /* \"#utility.yul\":9375:9821   */\n      iszero\n      tag_208\n      jumpi\n        /* \"#utility.yul\":9420:9458   */\n      tag_209\n        /* \"#utility.yul\":9452:9457   */\n      dup2\n        /* \"#utility.yul\":9420:9458   */\n      tag_79\n      jump\t// in\n    tag_209:\n        /* \"#utility.yul\":9504:9533   */\n      tag_210\n        /* \"#utility.yul\":9522:9532   */\n      dup5\n        /* \"#utility.yul\":9504:9533   */\n      tag_80\n      jump\t// in\n    tag_210:\n        /* \"#utility.yul\":9494:9502   */\n      dup2\n        /* \"#utility.yul\":9490:9534   */\n      add\n        /* \"#utility.yul\":9687:9689   */\n      0x20\n        /* \"#utility.yul\":9675:9685   */\n      dup6\n        /* \"#utility.yul\":9672:9690   */\n      lt\n        /* \"#utility.yul\":9669:9718   */\n      iszero\n      tag_211\n      jumpi\n        /* \"#utility.yul\":9708:9716   */\n      dup2\n        /* \"#utility.yul\":9693:9716   */\n      swap1\n      pop\n        /* \"#utility.yul\":9669:9718   */\n    tag_211:\n        /* \"#utility.yul\":9731:9811   */\n      tag_212\n        /* \"#utility.yul\":9787:9809   */\n      tag_213\n        /* \"#utility.yul\":9805:9808   */\n      dup6\n        /* \"#utility.yul\":9787:9809   */\n      tag_80\n      jump\t// in\n    tag_213:\n        /* \"#utility.yul\":9777:9785   */\n      dup4\n        /* \"#utility.yul\":9773:9810   */\n      add\n        /* \"#utility.yul\":9760:9771   */\n      dup3\n        /* \"#utility.yul\":9731:9811   */\n      tag_89\n      jump\t// in\n    tag_212:\n        /* \"#utility.yul\":9390:9821   */\n      pop\n      pop\n        /* \"#utility.yul\":9375:9821   */\n    tag_208:\n        /* \"#utility.yul\":9285:9828   */\n      pop\n      pop\n      pop\n      jump\t// out\n        /* \"#utility.yul\":9834:9951   */\n    tag_91:\n        /* \"#utility.yul\":9888:9896   */\n      0x00\n        /* \"#utility.yul\":9938:9943   */\n      dup3\n        /* \"#utility.yul\":9932:9936   */\n      dup3\n        /* \"#utility.yul\":9928:9944   */\n      shr\n        /* \"#utility.yul\":9907:9944   */\n      swap1\n      pop\n        /* \"#utility.yul\":9834:9951   */\n      swap3\n      swap2\n      pop\n      pop\n      jump\t// out\n        /* \"#utility.yul\":9957:10126   */\n    tag_92:\n        /* \"#utility.yul\":10001:10007   */\n      0x00\n        /* \"#utility.yul\":10034:10085   */\n      tag_216\n        /* \"#utility.yul\":10082:10083   */\n      0x00\n        /* \"#utility.yul\":10078:10084   */\n      not\n        /* \"#utility.yul\":10070:10075   */\n      dup5\n        /* \"#utility.yul\":10067:10068   */\n      0x08\n        /* \"#utility.yul\":10063:10076   */\n      mul\n        /* \"#utility.yul\":10034:10085   */\n      tag_91\n      jump\t// in\n    tag_216:\n        /* \"#utility.yul\":10030:10086   */\n      not\n        /* \"#utility.yul\":10115:10119   */\n      dup1\n        /* \"#utility.yul\":10109:10113   */\n      dup4\n        /* \"#utility.yul\":10105:10120   */\n      and\n        /* \"#utility.yul\":10095:10120   */\n      swap2\n      pop\n        /* \"#utility.yul\":10008:10126   */\n      pop\n        /* \"#utility.yul\":9957:10126   */\n      swap3\n      swap2\n      pop\n      pop\n      jump\t// out\n        /* \"#utility.yul\":10131:10426   */\n    tag_93:\n        /* \"#utility.yul\":10207:10211   */\n      0x00\n        /* \"#utility.yul\":10353:10382   */\n      tag_218\n        /* \"#utility.yul\":10378:10381   */\n      dup4\n        /* \"#utility.yul\":10372:10376   */\n      dup4\n        /* \"#utility.yul\":10353:10382   */\n      tag_92\n      jump\t// in\n    tag_218:\n        /* \"#utility.yul\":10345:10382   */\n      swap2\n      pop\n        /* \"#utility.yul\":10415:10418   */\n      dup3\n        /* \"#utility.yul\":10412:10413   */\n      0x02\n        /* \"#utility.yul\":10408:10419   */\n      mul\n        /* \"#utility.yul\":10402:10406   */\n      dup3\n        /* \"#utility.yul\":10399:10420   */\n      or\n        /* \"#utility.yul\":10391:10420   */\n      swap1\n      pop\n        /* \"#utility.yul\":10131:10426   */\n      swap3\n      swap2\n      pop\n      pop\n      jump\t// out\n        /* \"#utility.yul\":10431:11826   */\n    tag_50:\n        /* \"#utility.yul\":10548:10585   */\n      tag_220\n        /* \"#utility.yul\":10581:10584   */\n      dup3\n        /* \"#utility.yul\":10548:10585   */\n      tag_60\n      jump\t// in\n    tag_220:\n        /* \"#utility.yul\":10650:10668   */\n      0xffffffffffffffff\n        /* \"#utility.yul\":10642:10648   */\n      dup2\n        /* \"#utility.yul\":10639:10669   */\n      gt\n        /* \"#utility.yul\":10636:10692   */\n      iszero\n      tag_221\n      jumpi\n        /* \"#utility.yul\":10672:10690   */\n      tag_222\n      tag_67\n      jump\t// in\n    tag_222:\n        /* \"#utility.yul\":10636:10692   */\n    tag_221:\n        /* \"#utility.yul\":10716:10754   */\n      tag_223\n        /* \"#utility.yul\":10748:10752   */\n      dup3\n        /* \"#utility.yul\":10742:10753   */\n      sload\n        /* \"#utility.yul\":10716:10754   */\n      tag_39\n      jump\t// in\n    tag_223:\n        /* \"#utility.yul\":10801:10868   */\n      tag_224\n        /* \"#utility.yul\":10861:10867   */\n      dup3\n        /* \"#utility.yul\":10853:10859   */\n      dup3\n        /* \"#utility.yul\":10847:10851   */\n      dup6\n        /* \"#utility.yul\":10801:10868   */\n      tag_90\n      jump\t// in\n    tag_224:\n        /* \"#utility.yul\":10895:10896   */\n      0x00\n        /* \"#utility.yul\":10919:10923   */\n      0x20\n        /* \"#utility.yul\":10906:10923   */\n      swap1\n      pop\n        /* \"#utility.yul\":10951:10953   */\n      0x1f\n        /* \"#utility.yul\":10943:10949   */\n      dup4\n        /* \"#utility.yul\":10940:10954   */\n      gt\n        /* \"#utility.yul\":10968:10969   */\n      0x01\n        /* \"#utility.yul\":10963:11581   */\n      dup2\n      eq\n      tag_226\n      jumpi\n        /* \"#utility.yul\":11625:11626   */\n      0x00\n        /* \"#utility.yul\":11642:11648   */\n      dup5\n        /* \"#utility.yul\":11639:11716   */\n      iszero\n      tag_227\n      jumpi\n        /* \"#utility.yul\":11691:11700   */\n      dup3\n        /* \"#utility.yul\":11686:11689   */\n      dup8\n        /* \"#utility.yul\":11682:11701   */\n      add\n        /* \"#utility.yul\":11676:11702   */\n      mload\n        /* \"#utility.yul\":11667:11702   */\n      swap1\n      pop\n        /* \"#utility.yul\":11639:11716   */\n    tag_227:\n        /* \"#utility.yul\":11742:11809   */\n      tag_228\n        /* \"#utility.yul\":11802:11808   */\n      dup6\n        /* \"#utility.yul\":11795:11800   */\n      dup3\n        /* \"#utility.yul\":11742:11809   */\n      tag_93\n      jump\t// in\n    tag_228:\n        /* \"#utility.yul\":11736:11740   */\n      dup7\n        /* \"#utility.yul\":11729:11810   */\n      sstore\n        /* \"#utility.yul\":11598:11820   */\n      pop\n        /* \"#utility.yul\":10933:11820   */\n      jump(tag_225)\n        /* \"#utility.yul\":10963:11581   */\n    tag_226:\n        /* \"#utility.yul\":11015:11019   */\n      0x1f\n        /* \"#utility.yul\":11011:11020   */\n      not\n        /* \"#utility.yul\":11003:11009   */\n      dup5\n        /* \"#utility.yul\":10999:11021   */\n      and\n        /* \"#utility.yul\":11049:11086   */\n      tag_229\n        /* \"#utility.yul\":11081:11085   */\n      dup7\n        /* \"#utility.yul\":11049:11086   */\n      tag_79\n      jump\t// in\n    tag_229:\n        /* \"#utility.yul\":11108:11109   */\n      0x00\n        /* \"#utility.yul\":11122:11330   */\n    tag_230:\n        /* \"#utility.yul\":11136:11143   */\n      dup3\n        /* \"#utility.yul\":11133:11134   */\n      dup2\n        /* \"#utility.yul\":11130:11144   */\n      lt\n        /* \"#utility.yul\":11122:11330   */\n      iszero\n      tag_232\n      jumpi\n        /* \"#utility.yul\":11215:11224   */\n      dup5\n        /* \"#utility.yul\":11210:11213   */\n      dup10\n        /* \"#utility.yul\":11206:11225   */\n      add\n        /* \"#utility.yul\":11200:11226   */\n      mload\n        /* \"#utility.yul\":11192:11198   */\n      dup3\n        /* \"#utility.yul\":11185:11227   */\n      sstore\n        /* \"#utility.yul\":11266:11267   */\n      0x01\n        /* \"#utility.yul\":11258:11264   */\n      dup3\n        /* \"#utility.yul\":11254:11268   */\n      add\n        /* \"#utility.yul\":11244:11268   */\n      swap2\n      pop\n        /* \"#utility.yul\":11313:11315   */\n      0x20\n        /* \"#utility.yul\":11302:11311   */\n      dup6\n        /* \"#utility.yul\":11298:11316   */\n      add\n        /* \"#utility.yul\":11285:11316   */\n      swap5\n      pop\n        /* \"#utility.yul\":11159:11163   */\n      0x20\n        /* \"#utility.yul\":11156:11157   */\n      dup2\n        /* \"#utility.yul\":11152:11164   */\n      add\n        /* \"#utility.yul\":11147:11164   */\n      swap1\n      pop\n        /* \"#utility.yul\":11122:11330   */\n      jump(tag_230)\n    tag_232:\n        /* \"#utility.yul\":11358:11364   */\n      dup7\n        /* \"#utility.yul\":11349:11356   */\n      dup4\n        /* \"#utility.yul\":11346:11365   */\n      lt\n        /* \"#utility.yul\":11343:11522   */\n      iszero\n      tag_233\n      jumpi\n        /* \"#utility.yul\":11416:11425   */\n      dup5\n        /* \"#utility.yul\":11411:11414   */\n      dup10\n        /* \"#utility.yul\":11407:11426   */\n      add\n        /* \"#utility.yul\":11401:11427   */\n      mload\n        /* \"#utility.yul\":11459:11507   */\n      tag_234\n        /* \"#utility.yul\":11501:11505   */\n      0x1f\n        /* \"#utility.yul\":11493:11499   */\n      dup10\n        /* \"#utility.yul\":11489:11506   */\n      and\n        /* \"#utility.yul\":11478:11487   */\n      dup3\n        /* \"#utility.yul\":11459:11507   */\n      tag_92\n      jump\t// in\n    tag_234:\n        /* \"#utility.yul\":11451:11457   */\n      dup4\n        /* \"#utility.yul\":11444:11508   */\n      sstore\n        /* \"#utility.yul\":11366:11522   */\n      pop\n        /* \"#utility.yul\":11343:11522   */\n    tag_233:\n        /* \"#utility.yul\":11568:11569   */\n      0x01\n        /* \"#utility.yul\":11564:11565   */\n      0x02\n        /* \"#utility.yul\":11556:11562   */\n      dup9\n        /* \"#utility.yul\":11552:11566   */\n      mul\n        /* \"#utility.yul\":11548:11570   */\n      add\n        /* \"#utility.yul\":11542:11546   */\n      dup9\n        /* \"#utility.yul\":11535:11571   */\n      sstore\n        /* \"#utility.yul\":10970:11581   */\n      pop\n      pop\n      pop\n        /* \"#utility.yul\":10933:11820   */\n    tag_225:\n      pop\n        /* \"#utility.yul\":10523:11826   */\n      pop\n      pop\n      pop\n        /* \"#utility.yul\":10431:11826   */\n      pop\n      pop\n      jump\t// out\n        /* \"#utility.yul\":11832:11980   */\n    tag_94:\n        /* \"#utility.yul\":11934:11945   */\n      0x00\n        /* \"#utility.yul\":11971:11974   */\n      dup2\n        /* \"#utility.yul\":11956:11974   */\n      swap1\n      pop\n        /* \"#utility.yul\":11832:11980   */\n      swap3\n      swap2\n      pop\n      pop\n      jump\t// out\n        /* \"#utility.yul\":11986:12376   */\n    tag_95:\n        /* \"#utility.yul\":12092:12095   */\n      0x00\n        /* \"#utility.yul\":12120:12159   */\n      tag_237\n        /* \"#utility.yul\":12153:12158   */\n      dup3\n        /* \"#utility.yul\":12120:12159   */\n      tag_60\n      jump\t// in\n    tag_237:\n        /* \"#utility.yul\":12175:12264   */\n      tag_238\n        /* \"#utility.yul\":12257:12263   */\n      dup2\n        /* \"#utility.yul\":12252:12255   */\n      dup6\n        /* \"#utility.yul\":12175:12264   */\n      tag_94\n      jump\t// in\n    tag_238:\n        /* \"#utility.yul\":12168:12264   */\n      swap4\n      pop\n        /* \"#utility.yul\":12273:12338   */\n      tag_239\n        /* \"#utility.yul\":12331:12337   */\n      dup2\n        /* \"#utility.yul\":12326:12329   */\n      dup6\n        /* \"#utility.yul\":12319:12323   */\n      0x20\n        /* \"#utility.yul\":12312:12317   */\n      dup7\n        /* \"#utility.yul\":12308:12324   */\n      add\n        /* \"#utility.yul\":12273:12338   */\n      tag_62\n      jump\t// in\n    tag_239:\n        /* \"#utility.yul\":12363:12369   */\n      dup1\n        /* \"#utility.yul\":12358:12361   */\n      dup5\n        /* \"#utility.yul\":12354:12370   */\n      add\n        /* \"#utility.yul\":12347:12370   */\n      swap2\n      pop\n        /* \"#utility.yul\":12096:12376   */\n      pop\n        /* \"#utility.yul\":11986:12376   */\n      swap3\n      swap2\n      pop\n      pop\n      jump\t// out\n        /* \"#utility.yul\":12382:12657   */\n    tag_52:\n        /* \"#utility.yul\":12514:12517   */\n      0x00\n        /* \"#utility.yul\":12536:12631   */\n      tag_241\n        /* \"#utility.yul\":12627:12630   */\n      dup3\n        /* \"#utility.yul\":12618:12624   */\n      dup5\n        /* \"#utility.yul\":12536:12631   */\n      tag_95\n      jump\t// in\n    tag_241:\n        /* \"#utility.yul\":12529:12631   */\n      swap2\n      pop\n        /* \"#utility.yul\":12648:12651   */\n      dup2\n        /* \"#utility.yul\":12641:12651   */\n      swap1\n      pop\n        /* \"#utility.yul\":12382:12657   */\n      swap3\n      swap2\n      pop\n      pop\n      jump\t// out\n\n    auxdata: 0xa2646970667358221220e19df0395d7afb3d022f72abb87fa8051a2a5474efd471e5ea77e376d1df88f364736f6c634300081e0033\n}\n",
				"bytecode": {
					"linkReferences": {},
					"object": "6080604052348015600e575f5ffd5b506109ed8061001c5f395ff3fe608060405234801561000f575f5ffd5b5060043610610060575f3560e01c80632e64cec1146100645780632ebce631146100825780636057361d146100b35780638bab8dd5146100cf5780638da5cb5b146100ff578063e1b3202a1461011d575b5f5ffd5b61006c610139565b60405161007991906102f9565b60405180910390f35b61009c6004803603810190610097919061034d565b610141565b6040516100aa9291906103e8565b60405180910390f35b6100cd60048036038101906100c8919061034d565b6101f6565b005b6100e960048036038101906100e49190610542565b61020b565b6040516100f691906102f9565b60405180910390f35b610107610238565b60405161011491906105c8565b60405180910390f35b610137600480360381019061013291906105e1565b61025d565b005b5f5f54905090565b60028181548110610150575f80fd5b905f5260205f2090600202015f91509050805f01805461016f90610668565b80601f016020809104026020016040519081016040528092919081815260200182805461019b90610668565b80156101e65780601f106101bd576101008083540402835291602001916101e6565b820191905f5260205f20905b8154815290600101906020018083116101c957829003601f168201915b5050505050908060010154905082565b60058161020391906106c5565b5f8190555050565b6003818051602081018201805184825260208301602085012081835280955050505050505f915090505481565b60015f9054906101000a900473ffffffffffffffffffffffffffffffffffffffff1681565b6002604051806040016040528084815260200183815250908060018154018082558091505060019003905f5260205f2090600202015f909190919091505f820151815f0190816102ad9190610898565b50602082015181600101555050806003836040516102cb91906109a1565b9081526020016040518091039020819055505050565b5f819050919050565b6102f3816102e1565b82525050565b5f60208201905061030c5f8301846102ea565b92915050565b5f604051905090565b5f5ffd5b5f5ffd5b61032c816102e1565b8114610336575f5ffd5b50565b5f8135905061034781610323565b92915050565b5f602082840312156103625761036161031b565b5b5f61036f84828501610339565b91505092915050565b5f81519050919050565b5f82825260208201905092915050565b8281835e5f83830152505050565b5f601f19601f8301169050919050565b5f6103ba82610378565b6103c48185610382565b93506103d4818560208601610392565b6103dd816103a0565b840191505092915050565b5f6040820190508181035f83015261040081856103b0565b905061040f60208301846102ea565b9392505050565b5f5ffd5b5f5ffd5b7f4e487b71000000000000000000000000000000000000000000000000000000005f52604160045260245ffd5b610454826103a0565b810181811067ffffffffffffffff821117156104735761047261041e565b5b80604052505050565b5f610485610312565b9050610491828261044b565b919050565b5f67ffffffffffffffff8211156104b0576104af61041e565b5b6104b9826103a0565b9050602081019050919050565b828183375f83830152505050565b5f6104e66104e184610496565b61047c565b9050828152602081018484840111156105025761050161041a565b5b61050d8482856104c6565b509392505050565b5f82601f83011261052957610528610416565b5b81356105398482602086016104d4565b91505092915050565b5f602082840312156105575761055661031b565b5b5f82013567ffffffffffffffff8111156105745761057361031f565b5b61058084828501610515565b91505092915050565b5f73ffffffffffffffffffffffffffffffffffffffff82169050919050565b5f6105b282610589565b9050919050565b6105c2816105a8565b82525050565b5f6020820190506105db5f8301846105b9565b92915050565b5f5f604083850312156105f7576105f661031b565b5b5f83013567ffffffffffffffff8111156106145761061361031f565b5b61062085828601610515565b925050602061063185828601610339565b9150509250929050565b7f4e487b71000000000000000000000000000000000000000000000000000000005f52602260045260245ffd5b5f600282049050600182168061067f57607f821691505b6020821081036106925761069161063b565b5b50919050565b7f4e487b71000000000000000000000000000000000000000000000000000000005f52601160045260245ffd5b5f6106cf826102e1565b91506106da836102e1565b92508282019050808211156106f2576106f1610698565b5b92915050565b5f819050815f5260205f209050919050565b5f6020601f8301049050919050565b5f82821b905092915050565b5f600883026107547fffffffffffffffffffffffffffffffffffffffffffffffffffffffffffffffff82610719565b61075e8683610719565b95508019841693508086168417925050509392505050565b5f819050919050565b5f61079961079461078f846102e1565b610776565b6102e1565b9050919050565b5f819050919050565b6107b28361077f565b6107c66107be826107a0565b848454610725565b825550505050565b5f5f905090565b6107dd6107ce565b6107e88184846107a9565b505050565b5b8181101561080b576108005f826107d5565b6001810190506107ee565b5050565b601f82111561085057610821816106f8565b61082a8461070a565b81016020851015610839578190505b61084d6108458561070a565b8301826107ed565b50505b505050565b5f82821c905092915050565b5f6108705f1984600802610855565b1980831691505092915050565b5f6108888383610861565b9150826002028217905092915050565b6108a182610378565b67ffffffffffffffff8111156108ba576108b961041e565b5b6108c48254610668565b6108cf82828561080f565b5f60209050601f831160018114610900575f84156108ee578287015190505b6108f8858261087d565b86555061095f565b601f19841661090e866106f8565b5f5b8281101561093557848901518255600182019150602085019450602081019050610910565b86831015610952578489015161094e601f891682610861565b8355505b6001600288020188555050505b505050505050565b5f81905092915050565b5f61097b82610378565b6109858185610967565b9350610995818560208601610392565b80840191505092915050565b5f6109ac8284610971565b91508190509291505056fea2646970667358221220e19df0395d7afb3d022f72abb87fa8051a2a5474efd471e5ea77e376d1df88f364736f6c634300081e0033",
					"opcodes": "PUSH1 0x80 PUSH1 0x40 MSTORE CALLVALUE DUP1 ISZERO PUSH1 0xE JUMPI PUSH0 PUSH0 REVERT JUMPDEST POP PUSH2 0x9ED DUP1 PUSH2 0x1C PUSH0 CODECOPY PUSH0 RETURN INVALID PUSH1 0x80 PUSH1 0x40 MSTORE CALLVALUE DUP1 ISZERO PUSH2 0xF JUMPI PUSH0 PUSH0 REVERT JUMPDEST POP PUSH1 0x4 CALLDATASIZE LT PUSH2 0x60 JUMPI PUSH0 CALLDATALOAD PUSH1 0xE0 SHR DUP1 PUSH4 0x2E64CEC1 EQ PUSH2 0x64 JUMPI DUP1 PUSH4 0x2EBCE631 EQ PUSH2 0x82 JUMPI DUP1 PUSH4 0x6057361D EQ PUSH2 0xB3 JUMPI DUP1 PUSH4 0x8BAB8DD5 EQ PUSH2 0xCF JUMPI DUP1 PUSH4 0x8DA5CB5B EQ PUSH2 0xFF JUMPI DUP1 PUSH4 0xE1B3202A EQ PUSH2 0x11D JUMPI JUMPDEST PUSH0 PUSH0 REVERT JUMPDEST PUSH2 0x6C PUSH2 0x139 JUMP JUMPDEST PUSH1 0x40 MLOAD PUSH2 0x79 SWAP2 SWAP1 PUSH2 0x2F9 JUMP JUMPDEST PUSH1 0x40 MLOAD DUP1 SWAP2 SUB SWAP1 RETURN JUMPDEST PUSH2 0x9C PUSH1 0x4 DUP1 CALLDATASIZE SUB DUP2 ADD SWAP1 PUSH2 0x97 SWAP2 SWAP1 PUSH2 0x34D JUMP JUMPDEST PUSH2 0x141 JUMP JUMPDEST PUSH1 0x40 MLOAD PUSH2 0xAA SWAP3 SWAP2 SWAP1 PUSH2 0x3E8 JUMP JUMPDEST PUSH1 0x40 MLOAD DUP1 SWAP2 SUB SWAP1 RETURN JUMPDEST PUSH2 0xCD PUSH1 0x4 DUP1 CALLDATASIZE SUB DUP2 ADD SWAP1 PUSH2 0xC8 SWAP2 SWAP1 PUSH2 0x34D JUMP JUMPDEST PUSH2 0x1F6 JUMP JUMPDEST STOP JUMPDEST PUSH2 0xE9 PUSH1 0x4 DUP1 CALLDATASIZE SUB DUP2 ADD SWAP1 PUSH2 0xE4 SWAP2 SWAP1 PUSH2 0x542 JUMP JUMPDEST PUSH2 0x20B JUMP JUMPDEST PUSH1 0x40 MLOAD PUSH2 0xF6 SWAP2 SWAP1 PUSH2 0x2F9 JUMP JUMPDEST PUSH1 0x40 MLOAD DUP1 SWAP2 SUB SWAP1 RETURN JUMPDEST PUSH2 0x107 PUSH2 0x238 JUMP JUMPDEST PUSH1 0x40 MLOAD PUSH2 0x114 SWAP2 SWAP1 PUSH2 0x5C8 JUMP JUMPDEST PUSH1 0x40 MLOAD DUP1 SWAP2 SUB SWAP1 RETURN JUMPDEST PUSH2 0x137 PUSH1 0x4 DUP1 CALLDATASIZE SUB DUP2 ADD SWAP1 PUSH2 0x132 SWAP2 SWAP1 PUSH2 0x5E1 JUMP JUMPDEST PUSH2 0x25D JUMP JUMPDEST STOP JUMPDEST PUSH0 PUSH0 SLOAD SWAP1 POP SWAP1 JUMP JUMPDEST PUSH1 0x2 DUP2 DUP2 SLOAD DUP2 LT PUSH2 0x150 JUMPI PUSH0 DUP1 REVERT JUMPDEST SWAP1 PUSH0 MSTORE PUSH1 0x20 PUSH0 KECCAK256 SWAP1 PUSH1 0x2 MUL ADD PUSH0 SWAP2 POP SWAP1 POP DUP1 PUSH0 ADD DUP1 SLOAD PUSH2 0x16F SWAP1 PUSH2 0x668 JUMP JUMPDEST DUP1 PUSH1 0x1F ADD PUSH1 0x20 DUP1 SWAP2 DIV MUL PUSH1 0x20 ADD PUSH1 0x40 MLOAD SWAP1 DUP2 ADD PUSH1 0x40 MSTORE DUP1 SWAP3 SWAP2 SWAP1 DUP2 DUP2 MSTORE PUSH1 0x20 ADD DUP3 DUP1 SLOAD PUSH2 0x19B SWAP1 PUSH2 0x668 JUMP JUMPDEST DUP1 ISZERO PUSH2 0x1E6 JUMPI DUP1 PUSH1 0x1F LT PUSH2 0x1BD JUMPI PUSH2 0x100 DUP1 DUP4 SLOAD DIV MUL DUP4 MSTORE SWAP2 PUSH1 0x20 ADD SWAP2 PUSH2 0x1E6 JUMP JUMPDEST DUP3 ADD SWAP2 SWAP1 PUSH0 MSTORE PUSH1 0x20 PUSH0 KECCAK256 SWAP1 JUMPDEST DUP2 SLOAD DUP2 MSTORE SWAP1 PUSH1 0x1 ADD SWAP1 PUSH1 0x20 ADD DUP1 DUP4 GT PUSH2 0x1C9 JUMPI DUP3 SWAP1 SUB PUSH1 0x1F AND DUP3 ADD SWAP2 JUMPDEST POP POP POP POP POP SWAP1 DUP1 PUSH1 0x1 ADD SLOAD SWAP1 POP DUP3 JUMP JUMPDEST PUSH1 0x5 DUP2 PUSH2 0x203 SWAP2 SWAP1 PUSH2 0x6C5 JUMP JUMPDEST PUSH0 DUP2 SWAP1 SSTORE POP POP JUMP JUMPDEST PUSH1 0x3 DUP2 DUP1 MLOAD PUSH1 0x20 DUP2 ADD DUP3 ADD DUP1 MLOAD DUP5 DUP3 MSTORE PUSH1 0x20 DUP4 ADD PUSH1 0x20 DUP6 ADD KECCAK256 DUP2 DUP4 MSTORE DUP1 SWAP6 POP POP POP POP POP POP PUSH0 SWAP2 POP SWAP1 POP SLOAD DUP2 JUMP JUMPDEST PUSH1 0x1 PUSH0 SWAP1 SLOAD SWAP1 PUSH2 0x100 EXP SWAP1 DIV PUSH20 0xFFFFFFFFFFFFFFFFFFFFFFFFFFFFFFFFFFFFFFFF AND DUP2 JUMP JUMPDEST PUSH1 0x2 PUSH1 0x40 MLOAD DUP1 PUSH1 0x40 ADD PUSH1 0x40 MSTORE DUP1 DUP5 DUP2 MSTORE PUSH1 0x20 ADD DUP4 DUP2 MSTORE POP SWAP1 DUP1 PUSH1 0x1 DUP2 SLOAD ADD DUP1 DUP3 SSTORE DUP1 SWAP2 POP POP PUSH1 0x1 SWAP1 SUB SWAP1 PUSH0 MSTORE PUSH1 0x20 PUSH0 KECCAK256 SWAP1 PUSH1 0x2 MUL ADD PUSH0 SWAP1 SWAP2 SWAP1 SWAP2 SWAP1 SWAP2 POP PUSH0 DUP3 ADD MLOAD DUP2 PUSH0 ADD SWAP1 DUP2 PUSH2 0x2AD SWAP2 SWAP1 PUSH2 0x898 JUMP JUMPDEST POP PUSH1 0x20 DUP3 ADD MLOAD DUP2 PUSH1 0x1 ADD SSTORE POP POP DUP1 PUSH1 0x3 DUP4 PUSH1 0x40 MLOAD PUSH2 0x2CB SWAP2 SWAP1 PUSH2 0x9A1 JUMP JUMPDEST SWAP1 DUP2 MSTORE PUSH1 0x20 ADD PUSH1 0x40 MLOAD DUP1 SWAP2 SUB SWAP1 KECCAK256 DUP2 SWAP1 SSTORE POP POP POP JUMP JUMPDEST PUSH0 DUP2 SWAP1 POP SWAP2 SWAP1 POP JUMP JUMPDEST PUSH2 0x2F3 DUP2 PUSH2 0x2E1 JUMP JUMPDEST DUP3 MSTORE POP POP JUMP JUMPDEST PUSH0 PUSH1 0x20 DUP3 ADD SWAP1 POP PUSH2 0x30C PUSH0 DUP4 ADD DUP5 PUSH2 0x2EA JUMP JUMPDEST SWAP3 SWAP2 POP POP JUMP JUMPDEST PUSH0 PUSH1 0x40 MLOAD SWAP1 POP SWAP1 JUMP JUMPDEST PUSH0 PUSH0 REVERT JUMPDEST PUSH0 PUSH0 REVERT JUMPDEST PUSH2 0x32C DUP2 PUSH2 0x2E1 JUMP JUMPDEST DUP2 EQ PUSH2 0x336 JUMPI PUSH0 PUSH0 REVERT JUMPDEST POP JUMP JUMPDEST PUSH0 DUP2 CALLDATALOAD SWAP1 POP PUSH2 0x347 DUP2 PUSH2 0x323 JUMP JUMPDEST SWAP3 SWAP2 POP POP JUMP JUMPDEST PUSH0 PUSH1 0x20 DUP3 DUP5 SUB SLT ISZERO PUSH2 0x362 JUMPI PUSH2 0x361 PUSH2 0x31B JUMP JUMPDEST JUMPDEST PUSH0 PUSH2 0x36F DUP5 DUP3 DUP6 ADD PUSH2 0x339 JUMP JUMPDEST SWAP2 POP POP SWAP3 SWAP2 POP POP JUMP JUMPDEST PUSH0 DUP2 MLOAD SWAP1 POP SWAP2 SWAP1 POP JUMP JUMPDEST PUSH0 DUP3 DUP3 MSTORE PUSH1 0x20 DUP3 ADD SWAP1 POP SWAP3 SWAP2 POP POP JUMP JUMPDEST DUP3 DUP2 DUP4 MCOPY PUSH0 DUP4 DUP4 ADD MSTORE POP POP POP JUMP JUMPDEST PUSH0 PUSH1 0x1F NOT PUSH1 0x1F DUP4 ADD AND SWAP1 POP SWAP2 SWAP1 POP JUMP JUMPDEST PUSH0 PUSH2 0x3BA DUP3 PUSH2 0x378 JUMP JUMPDEST PUSH2 0x3C4 DUP2 DUP6 PUSH2 0x382 JUMP JUMPDEST SWAP4 POP PUSH2 0x3D4 DUP2 DUP6 PUSH1 0x20 DUP7 ADD PUSH2 0x392 JUMP JUMPDEST PUSH2 0x3DD DUP2 PUSH2 0x3A0 JUMP JUMPDEST DUP5 ADD SWAP2 POP POP SWAP3 SWAP2 POP POP JUMP JUMPDEST PUSH0 PUSH1 0x40 DUP3 ADD SWAP1 POP DUP2 DUP2 SUB PUSH0 DUP4 ADD MSTORE PUSH2 0x400 DUP2 DUP6 PUSH2 0x3B0 JUMP JUMPDEST SWAP1 POP PUSH2 0x40F PUSH1 0x20 DUP4 ADD DUP5 PUSH2 0x2EA JUMP JUMPDEST SWAP4 SWAP3 POP POP POP JUMP JUMPDEST PUSH0 PUSH0 REVERT JUMPDEST PUSH0 PUSH0 REVERT JUMPDEST PUSH32 0x4E487B7100000000000000000000000000000000000000000000000000000000 PUSH0 MSTORE PUSH1 0x41 PUSH1 0x4 MSTORE PUSH1 0x24 PUSH0 REVERT JUMPDEST PUSH2 0x454 DUP3 PUSH2 0x3A0 JUMP JUMPDEST DUP2 ADD DUP2 DUP2 LT PUSH8 0xFFFFFFFFFFFFFFFF DUP3 GT OR ISZERO PUSH2 0x473 JUMPI PUSH2 0x472 PUSH2 0x41E JUMP JUMPDEST JUMPDEST DUP1 PUSH1 0x40 MSTORE POP POP POP JUMP JUMPDEST PUSH0 PUSH2 0x485 PUSH2 0x312 JUMP JUMPDEST SWAP1 POP PUSH2 0x491 DUP3 DUP3 PUSH2 0x44B JUMP JUMPDEST SWAP2 SWAP1 POP JUMP JUMPDEST PUSH0 PUSH8 0xFFFFFFFFFFFFFFFF DUP3 GT ISZERO PUSH2 0x4B0 JUMPI PUSH2 0x4AF PUSH2 0x41E JUMP JUMPDEST JUMPDEST PUSH2 0x4B9 DUP3 PUSH2 0x3A0 JUMP JUMPDEST SWAP1 POP PUSH1 0x20 DUP2 ADD SWAP1 POP SWAP2 SWAP1 POP JUMP JUMPDEST DUP3 DUP2 DUP4 CALLDATACOPY PUSH0 DUP4 DUP4 ADD MSTORE POP POP POP JUMP JUMPDEST PUSH0 PUSH2 0x4E6 PUSH2 0x4E1 DUP5 PUSH2 0x496 JUMP JUMPDEST PUSH2 0x47C JUMP JUMPDEST SWAP1 POP DUP3 DUP2 MSTORE PUSH1 0x20 DUP2 ADD DUP5 DUP5 DUP5 ADD GT ISZERO PUSH2 0x502 JUMPI PUSH2 0x501 PUSH2 0x41A JUMP JUMPDEST JUMPDEST PUSH2 0x50D DUP5 DUP3 DUP6 PUSH2 0x4C6 JUMP JUMPDEST POP SWAP4 SWAP3 POP POP POP JUMP JUMPDEST PUSH0 DUP3 PUSH1 0x1F DUP4 ADD SLT PUSH2 0x529 JUMPI PUSH2 0x528 PUSH2 0x416 JUMP JUMPDEST JUMPDEST DUP2 CALLDATALOAD PUSH2 0x539 DUP5 DUP3 PUSH1 0x20 DUP7 ADD PUSH2 0x4D4 JUMP JUMPDEST SWAP2 POP POP SWAP3 SWAP2 POP POP JUMP JUMPDEST PUSH0 PUSH1 0x20 DUP3 DUP5 SUB SLT ISZERO PUSH2 0x557 JUMPI PUSH2 0x556 PUSH2 0x31B JUMP JUMPDEST JUMPDEST PUSH0 DUP3 ADD CALLDATALOAD PUSH8 0xFFFFFFFFFFFFFFFF DUP2 GT ISZERO PUSH2 0x574 JUMPI PUSH2 0x573 PUSH2 0x31F JUMP JUMPDEST JUMPDEST PUSH2 0x580 DUP5 DUP3 DUP6 ADD PUSH2 0x515 JUMP JUMPDEST SWAP2 POP POP SWAP3 SWAP2 POP POP JUMP JUMPDEST PUSH0 PUSH20 0xFFFFFFFFFFFFFFFFFFFFFFFFFFFFFFFFFFFFFFFF DUP3 AND SWAP1 POP SWAP2 SWAP1 POP JUMP JUMPDEST PUSH0 PUSH2 0x5B2 DUP3 PUSH2 0x589 JUMP JUMPDEST SWAP1 POP SWAP2 SWAP1 POP JUMP JUMPDEST PUSH2 0x5C2 DUP2 PUSH2 0x5A8 JUMP JUMPDEST DUP3 MSTORE POP POP JUMP JUMPDEST PUSH0 PUSH1 0x20 DUP3 ADD SWAP1 POP PUSH2 0x5DB PUSH0 DUP4 ADD DUP5 PUSH2 0x5B9 JUMP JUMPDEST SWAP3 SWAP2 POP POP JUMP JUMPDEST PUSH0 PUSH0 PUSH1 0x40 DUP4 DUP6 SUB SLT ISZERO PUSH2 0x5F7 JUMPI PUSH2 0x5F6 PUSH2 0x31B JUMP JUMPDEST JUMPDEST PUSH0 DUP4 ADD CALLDATALOAD PUSH8 0xFFFFFFFFFFFFFFFF DUP2 GT ISZERO PUSH2 0x614 JUMPI PUSH2 0x613 PUSH2 0x31F JUMP JUMPDEST JUMPDEST PUSH2 0x620 DUP6 DUP3 DUP7 ADD PUSH2 0x515 JUMP JUMPDEST SWAP3 POP POP PUSH1 0x20 PUSH2 0x631 DUP6 DUP3 DUP7 ADD PUSH2 0x339 JUMP JUMPDEST SWAP2 POP POP SWAP3 POP SWAP3 SWAP1 POP JUMP JUMPDEST PUSH32 0x4E487B7100000000000000000000000000000000000000000000000000000000 PUSH0 MSTORE PUSH1 0x22 PUSH1 0x4 MSTORE PUSH1 0x24 PUSH0 REVERT JUMPDEST PUSH0 PUSH1 0x2 DUP3 DIV SWAP1 POP PUSH1 0x1 DUP3 AND DUP1 PUSH2 0x67F JUMPI PUSH1 0x7F DUP3 AND SWAP2 POP JUMPDEST PUSH1 0x20 DUP3 LT DUP2 SUB PUSH2 0x692 JUMPI PUSH2 0x691 PUSH2 0x63B JUMP JUMPDEST JUMPDEST POP SWAP2 SWAP1 POP JUMP JUMPDEST PUSH32 0x4E487B7100000000000000000000000000000000000000000000000000000000 PUSH0 MSTORE PUSH1 0x11 PUSH1 0x4 MSTORE PUSH1 0x24 PUSH0 REVERT JUMPDEST PUSH0 PUSH2 0x6CF DUP3 PUSH2 0x2E1 JUMP JUMPDEST SWAP2 POP PUSH2 0x6DA DUP4 PUSH2 0x2E1 JUMP JUMPDEST SWAP3 POP DUP3 DUP3 ADD SWAP1 POP DUP1 DUP3 GT ISZERO PUSH2 0x6F2 JUMPI PUSH2 0x6F1 PUSH2 0x698 JUMP JUMPDEST JUMPDEST SWAP3 SWAP2 POP POP JUMP JUMPDEST PUSH0 DUP2 SWAP1 POP DUP2 PUSH0 MSTORE PUSH1 0x20 PUSH0 KECCAK256 SWAP1 POP SWAP2 SWAP1 POP JUMP JUMPDEST PUSH0 PUSH1 0x20 PUSH1 0x1F DUP4 ADD DIV SWAP1 POP SWAP2 SWAP1 POP JUMP JUMPDEST PUSH0 DUP3 DUP3 SHL SWAP1 POP SWAP3 SWAP2 POP POP JUMP JUMPDEST PUSH0 PUSH1 0x8 DUP4 MUL PUSH2 0x754 PUSH32 0xFFFFFFFFFFFFFFFFFFFFFFFFFFFFFFFFFFFFFFFFFFFFFFFFFFFFFFFFFFFFFFFF DUP3 PUSH2 0x719 JUMP JUMPDEST PUSH2 0x75E DUP7 DUP4 PUSH2 0x719 JUMP JUMPDEST SWAP6 POP DUP1 NOT DUP5 AND SWAP4 POP DUP1 DUP7 AND DUP5 OR SWAP3 POP POP POP SWAP4 SWAP3 POP POP POP JUMP JUMPDEST PUSH0 DUP2 SWAP1 POP SWAP2 SWAP1 POP JUMP JUMPDEST PUSH0 PUSH2 0x799 PUSH2 0x794 PUSH2 0x78F DUP5 PUSH2 0x2E1 JUMP JUMPDEST PUSH2 0x776 JUMP JUMPDEST PUSH2 0x2E1 JUMP JUMPDEST SWAP1 POP SWAP2 SWAP1 POP JUMP JUMPDEST PUSH0 DUP2 SWAP1 POP SWAP2 SWAP1 POP JUMP JUMPDEST PUSH2 0x7B2 DUP4 PUSH2 0x77F JUMP JUMPDEST PUSH2 0x7C6 PUSH2 0x7BE DUP3 PUSH2 0x7A0 JUMP JUMPDEST DUP5 DUP5 SLOAD PUSH2 0x725 JUMP JUMPDEST DUP3 SSTORE POP POP POP POP JUMP JUMPDEST PUSH0 PUSH0 SWAP1 POP SWAP1 JUMP JUMPDEST PUSH2 0x7DD PUSH2 0x7CE JUMP JUMPDEST PUSH2 0x7E8 DUP2 DUP5 DUP5 PUSH2 0x7A9 JUMP JUMPDEST POP POP POP JUMP JUMPDEST JUMPDEST DUP2 DUP2 LT ISZERO PUSH2 0x80B JUMPI PUSH2 0x800 PUSH0 DUP3 PUSH2 0x7D5 JUMP JUMPDEST PUSH1 0x1 DUP2 ADD SWAP1 POP PUSH2 0x7EE JUMP JUMPDEST POP POP JUMP JUMPDEST PUSH1 0x1F DUP3 GT ISZERO PUSH2 0x850 JUMPI PUSH2 0x821 DUP2 PUSH2 0x6F8 JUMP JUMPDEST PUSH2 0x82A DUP5 PUSH2 0x70A JUMP JUMPDEST DUP2 ADD PUSH1 0x20 DUP6 LT ISZERO PUSH2 0x839 JUMPI DUP2 SWAP1 POP JUMPDEST PUSH2 0x84D PUSH2 0x845 DUP6 PUSH2 0x70A JUMP JUMPDEST DUP4 ADD DUP3 PUSH2 0x7ED JUMP JUMPDEST POP POP JUMPDEST POP POP POP JUMP JUMPDEST PUSH0 DUP3 DUP3 SHR SWAP1 POP SWAP3 SWAP2 POP POP JUMP JUMPDEST PUSH0 PUSH2 0x870 PUSH0 NOT DUP5 PUSH1 0x8 MUL PUSH2 0x855 JUMP JUMPDEST NOT DUP1 DUP4 AND SWAP2 POP POP SWAP3 SWAP2 POP POP JUMP JUMPDEST PUSH0 PUSH2 0x888 DUP4 DUP4 PUSH2 0x861 JUMP JUMPDEST SWAP2 POP DUP3 PUSH1 0x2 MUL DUP3 OR SWAP1 POP SWAP3 SWAP2 POP POP JUMP JUMPDEST PUSH2 0x8A1 DUP3 PUSH2 0x378 JUMP JUMPDEST PUSH8 0xFFFFFFFFFFFFFFFF DUP2 GT ISZERO PUSH2 0x8BA JUMPI PUSH2 0x8B9 PUSH2 0x41E JUMP JUMPDEST JUMPDEST PUSH2 0x8C4 DUP3 SLOAD PUSH2 0x668 JUMP JUMPDEST PUSH2 0x8CF DUP3 DUP3 DUP6 PUSH2 0x80F JUMP JUMPDEST PUSH0 PUSH1 0x20 SWAP1 POP PUSH1 0x1F DUP4 GT PUSH1 0x1 DUP2 EQ PUSH2 0x900 JUMPI PUSH0 DUP5 ISZERO PUSH2 0x8EE JUMPI DUP3 DUP8 ADD MLOAD SWAP1 POP JUMPDEST PUSH2 0x8F8 DUP6 DUP3 PUSH2 0x87D JUMP JUMPDEST DUP7 SSTORE POP PUSH2 0x95F JUMP JUMPDEST PUSH1 0x1F NOT DUP5 AND PUSH2 0x90E DUP7 PUSH2 0x6F8 JUMP JUMPDEST PUSH0 JUMPDEST DUP3 DUP2 LT ISZERO PUSH2 0x935 JUMPI DUP5 DUP10 ADD MLOAD DUP3 SSTORE PUSH1 0x1 DUP3 ADD SWAP2 POP PUSH1 0x20 DUP6 ADD SWAP5 POP PUSH1 0x20 DUP2 ADD SWAP1 POP PUSH2 0x910 JUMP JUMPDEST DUP7 DUP4 LT ISZERO PUSH2 0x952 JUMPI DUP5 DUP10 ADD MLOAD PUSH2 0x94E PUSH1 0x1F DUP10 AND DUP3 PUSH2 0x861 JUMP JUMPDEST DUP4 SSTORE POP JUMPDEST PUSH1 0x1 PUSH1 0x2 DUP9 MUL ADD DUP9 SSTORE POP POP POP JUMPDEST POP POP POP POP POP POP JUMP JUMPDEST PUSH0 DUP2 SWAP1 POP SWAP3 SWAP2 POP POP JUMP JUMPDEST PUSH0 PUSH2 0x97B DUP3 PUSH2 0x378 JUMP JUMPDEST PUSH2 0x985 DUP2 DUP6 PUSH2 0x967 JUMP JUMPDEST SWAP4 POP PUSH2 0x995 DUP2 DUP6 PUSH1 0x20 DUP7 ADD PUSH2 0x392 JUMP JUMPDEST DUP1 DUP5 ADD SWAP2 POP POP SWAP3 SWAP2 POP POP JUMP JUMPDEST PUSH0 PUSH2 0x9AC DUP3 DUP5 PUSH2 0x971 JUMP JUMPDEST SWAP2 POP DUP2 SWAP1 POP SWAP3 SWAP2 POP POP JUMP INVALID LOG2 PUSH5 0x6970667358 0x22 SLT KECCAK256 RJUMPI 0x9DF0 CODECOPY TSTORE PUSH27 0xFB3D022F72ABB87FA8051A2A5474EFD471E5EA77E376D1DF88F364 PUSH20 0x6F6C634300081E00330000000000000000000000 "
				},
				"gasEstimates": {
					"creation": {
						"codeDepositCost": "508200",
						"executionCost": "541",
						"totalCost": "508741"
					},
					"external": {
						"addperson(string,uint256)": "infinite",
						"listOfPeople(uint256)": "infinite",
						"nameToFavoriteNumber(string)": "infinite",
						"owner()": "2574",
						"retrieve()": "2409",
						"store(uint256)": "infinite"
					}
				},
				"methodIdentifiers": {
					"addperson(string,uint256)": "e1b3202a",
					"listOfPeople(uint256)": "2ebce631",
					"nameToFavoriteNumber(string)": "8bab8dd5",
					"owner()": "8da5cb5b",
					"retrieve()": "2e64cec1",
					"store(uint256)": "6057361d"
				}
			},
			"storageLayout": {
				"storage": [
					{
						"astId": 23,
						"contract": "storageFactory/AddFiveNumber.sol:AddFiveNumber",
						"label": "MyFavoriteNumber",
						"offset": 0,
						"slot": "0",
						"type": "t_uint256"
					},
					{
						"astId": 25,
						"contract": "storageFactory/AddFiveNumber.sol:AddFiveNumber",
						"label": "owner",
						"offset": 0,
						"slot": "1",
						"type": "t_address"
					},
					{
						"astId": 29,
						"contract": "storageFactory/AddFiveNumber.sol:AddFiveNumber",
						"label": "listOfPeople",
						"offset": 0,
						"slot": "2",
						"type": "t_array(t_struct(People)38_storage)dyn_storage"
					},
					{
						"astId": 33,
						"contract": "storageFactory/AddFiveNumber.sol:AddFiveNumber",
						"label": "nameToFavoriteNumber",
						"offset": 0,
						"slot": "3",
						"type": "t_mapping(t_string_memory_ptr,t_uint256)"
					}
				],
				"types": {
					"t_address": {
						"encoding": "inplace",
						"label": "address",
						"numberOfBytes": "20"
					},
					"t_array(t_struct(People)38_storage)dyn_storage": {
						"base": "t_struct(People)38_storage",
						"encoding": "dynamic_array",
						"label": "struct SimpleStore.People[]",
						"numberOfBytes": "32"
					},
					"t_mapping(t_string_memory_ptr,t_uint256)": {
						"encoding": "mapping",
						"key": "t_string_memory_ptr",
						"label": "mapping(string => uint256)",
						"numberOfBytes": "32",
						"value": "t_uint256"
					},
					"t_string_memory_ptr": {
						"encoding": "bytes",
						"label": "string",
						"numberOfBytes": "32"
					},
					"t_string_storage": {
						"encoding": "bytes",
						"label": "string",
						"numberOfBytes": "32"
					},
					"t_struct(People)38_storage": {
						"encoding": "inplace",
						"label": "struct SimpleStore.People",
						"members": [
							{
								"astId": 35,
								"contract": "storageFactory/AddFiveNumber.sol:AddFiveNumber",
								"label": "name",
								"offset": 0,
								"slot": "0",
								"type": "t_string_storage"
							},
							{
								"astId": 37,
								"contract": "storageFactory/AddFiveNumber.sol:AddFiveNumber",
								"label": "favoriteNumber",
								"offset": 0,
								"slot": "1",
								"type": "t_uint256"
							}
						],
						"numberOfBytes": "64"
					},
					"t_uint256": {
						"encoding": "inplace",
						"label": "uint256",
						"numberOfBytes": "32"
					}
				}
			},
			"userdoc": {
				"kind": "user",
				"methods": {},
				"version": 1
			}
		}
	}
}